:020000040000FA
:10000000022F008B688A69896A8C6B8D6CE4FDFC19
:10001000C3ED956EEC956D501FE56C2DFFE56B3CC7
:10002000FE1236137868E475F001120DCFEF120B53
:0A003000240DBD00010C80D822222F
:10003B00022AA57557008F5890084BE025E02484C1
:10004B00F582E4343AF583740193243BFFE4933453
:10005B00FFFEAD58AC5712354D7BFF7A3A7971855F
:10006B005766855867020EC002367E755800755963
:10007B0000755A537B007A00795112322DEF6003D1
:10008B000209E77BFF7AEB797085516685526785AC
:10009B005368855469120EC0C3E55194EC500302AA
:1000AB0001327B017A06790285535A85545BAF5234
:1000BB00AE5112237FD3747A955274EC9551501331
:1000CB00C3749A955274EF9551400890084BE0FF1A
:1000DB0002220ED37408955274EC95515013C374CD
:1000EB0054955274EC9551400890084BE0FF022850
:1000FB0073E552B4FF0DE551B4F40890084BE0FFE3
:10010B00021829D37403955274F5955140030209D3
:10011B00E7C37463955274F5955150030209E79048
:10012B00084BE0FF021F0FC3E5529401E551948089
:10013B0050030209E7E5528551F0120E0501B0801C
:10014B000202128004024C80050295800603228075
:10015B0007034A80080372800903D0800A052280B6
:10016B000B065F800C06AC800E0713800F085680C1
:10017B0011086D80120896801308F68014093580DB
:10018B001509648017043C8018077B8019058A8049
:10019B001A04A6801B07E1801C05F1801D088480D2
:1001AB001E000009E7E5546402455370159008489A
:1001BB00E0640460030209E71235D8900848740222
:1001CB00F022E5546404455370367BFF7AEB797D5E
:1001DB00900848E0756600F567120EC0900848E07D
:1001EB00640270051235C48010900848E064016009
:1001FB0008E0640360030209E79008487404F022E6
:10020B00E5546403455322900848E064016005E01F
:10021B0064037006900803020382900848E06404AC
:10022B006008E0640260030209E7900849E0655446
:10023B007002E55370030209E7E554F0E0FF022E6C
:10024B005D900848E06401600DE064036008E064C1
:10025B000260030209E7C3E5549404E5539400409C
:10026B00030209E77BFF7AEB798E900849E075660C
:10027B0000F567120EC090084AE065547002E55312
:10028B0070030209E7AF540211BAC3E5549408E5B1
:10029B0053940040030209E7900848E064016005AD
:1002AB00E064037006900805020382900848E0643E
:1002BB0002702B90084AE06401701DA3E065547036
:1002CB0002E55370030209E7C3E5549409E553941F
:1002DB000040030209E7803790084B020382900825
:1002EB0048E0640460030209E790084AE064016097
:1002FB00030209E7A3E065547002E553700302099A
:10030B00E7C3E5549409E553940040030209E7E57C
:10031B0054F0E0FF022C51C3E5549408E5539400CC
:10032B0040030209E7900848E06401600DE06403B4
:10033B006008E0640260030209E790084C8038C350
:10034B00E5549408E553940040030209E7900848EC
:10035B00E06401600DE064036008E0640260030286
:10036B0009E790084D8010900848E064016005E0B3
:10037B0064037007900809E554F022900848E06484
:10038B00026008E0640460030209E790084AE06435
:10039B000160030209E790084FE065547002E553D2
:1003AB0070030209E7D3E55494FFE553940040032F
:1003BB000209E7E554F0E0FF90084EE0FE131354FA
:1003CB0003FD023344900848E064016005E06403D8
:1003DB00700690084B0204B6900848E0640260086F
:1003EB00E0640460030209E790084BE025E0245029
:1003FB00F582E43408F583E0FEA3E065547003EE68
:10040B00655370030209E7D3E55494BCE55394029A
:10041B0040030209E790084BE025E02450F582E405
:10042B003408F583E553F0A3E554F090084B02052F
:10043B0019900848E064016005E0640370059008BA
:10044B004C8068900848E064026008E06404600334
:10045B000209E790084CE025E02450F582E43408CB
:10046B00F583E0FEA3E065547003EE655370030261
:10047B0009E7D3E55494BCE553940240030209E722
:10048B0090084CE025E02450F582E43408F583E530
:10049B0053F0A3E554F090084C8073900848E06447
:1004AB00016005E06403701090084DE025E0240A1C
:1004BB00F582E434080207FB900848E06402600808
:1004CB00E0640460030209E790084DE025E0245046
:1004DB00F582E43408F583E0FEA3E065547003EE87
:1004EB00655370030209E7D3E55494BCE5539402BA
:1004FB0040030209E790084DE025E02450F582E423
:10050B003408F583E553F0A3E554F090084DE0FD76
:10051B00AF54AE5302209B900848E064016005E0A5
:10052B006403701090084BE025E0241CF582E43442
:10053B00080207FB900848E064026008E06404606E
:10054B00030209E790084BE025E02462F582E434CE
:10055B0008F583E0FEA3E065547003EE655370036A
:10056B000209E790084BE025E02462F582E43408A9
:10057B00F583E553F0A3E554F090084B0206569033
:10058B000848E064016005E06403701090084CE0DB
:10059B0025E0241CF582E434080207FB900848E0B0
:1005AB0064026008E0640460030209E790084CE011
:1005BB0025E02462F582E43408F583E0FEA3E065D0
:1005CB00547003EE655370030209E790084CE02565
:1005DB00E02462F582E43408F583E553F0A3E55497
:1005EB00F090084C8065900848E064016005E06479
:1005FB0003701090084DE025E0241CF582E43408CC
:10060B000207FB900848E064026008E064046003A2
:10061B000209E790084DE025E02462F582E43408F6
:10062B00F583E0FEA3E065547003EE65537003029F
:10063B0009E790084DE025E02462F582E43408F5E3
:10064B0083E553F0A3E554F090084DE0FDAF54AEB5
:10065B0053023080900848E064016005E064037049
:10066B000EE5545403FF900808E054FC4FF0229021
:10067B000848E064026008E0640460030209E79044
:10068B00084EE0540365547002E55370030209E70A
:10069B00E5545403FFE054FC4FF0E05403FF0231E8
:1006AB0095900848E064016005E064037012E5541E
:1006BB00540325E025E0FF900808E054F34FF022A7
:1006CB00900848E064026008E0640460030209E7F4
:1006DB0090084AE0640160030209E790084EE013BA
:1006EB0013540365547002E55370030209E7E55494
:1006FB00540325E025E0FFE054F34FF0E0131354CF
:10070B0003FFA3E0FD022F8F900848E06401600512
:10071B00E06403701090084BE025E0242EF582E492
:10072B0034080207FB900848E064026008E06404A8
:10073B0060030209E790084BE025E02474F582E49E
:10074B003408F583E0FEA3E065547003EE65537047
:10075B00030209E790084BE025E02474F582E434AA
:10076B0008F583E553F0A3E554F090084B02084DD0
:10077B00900848E064016005E06403700F90084C3A
:10078B00E025E0242EF582E434088064900848E0EC
:10079B0064026008E0640460030209E790084CE01F
:1007AB0025E02474F582E43408F583E0FEA3E065CC
:1007BB00547003EE655370030209E790084CE02573
:1007CB00E02474F582E43408F583E553F0A3E55493
:1007DB00F090084C806C900848E064016005E06480
:1007EB0003701790084DE025E0242EF582E43408C1
:1007FB00F583E553F0A3E554F022900848E064023A
:10080B006008E0640460030209E790084DE025E00E
:10081B002474F582E43408F583E0FEA3E06554709C
:10082B0003EE655370030209E790084DE025E024C1
:10083B0074F582E43408F583E553F0A3E554F090A6
:10084B00084DE0FDAF54AE530231E2900848E0642E
:10085B00026008E0640460030209E7AF54AE530280
:10086B0033F7900848E064026008E0640460030218
:10087B0009E7AF54AE530233BD900848E064026001
:10088B00030209E7AF54AE53022D03900848E0640E
:10089B00016005E064037011E5545403C454F0FF88
:1008AB00900808E054CF4FF022900848E0640260B3
:1008BB0008E0640460030209E790084AE064016001
:1008CB00030209E790084EE0C4540365547002E537
:1008DB005370030209E7E5545403C454F0FFE0548A
:1008EB00CF4FF0E0C45403FF02003E900846E5539F
:1008FB00F0A3E554F07BFF7AEB79A8855366F56797
:10090B00120EC0900846E0FEA3E0FF1236D390080B
:10091B0044EEF0A3EFF07BFF7AEB79BCA3E0F56636
:10092B00A3E0F5678E688F69802C900846E0FEA3E4
:10093B00E0FF4E70030209E7AD54AC531236D0E41E
:10094B00900846F0A3F07BFF7AEB79DBF566F56751
:10095B00855368855469020EC0900848E0640270A4
:10096B007B90084AE06401700D900886E554F0E036
:10097B00FF90084B806190084AE064027023900856
:10098B0086E065547002E5536052E554F0E0FF9049
:10099B00084BE0FD1224ED900886E0FF90084C8098
:1009AB003690084AE064037033900886E065547013
:1009BB0002E5536027E554F0E0FF90084BE0FD1291
:1009CB0024ED900886E0FF90084CE0FD1224ED909A
:1009DB000886E0FF90084DE0FD1224ED22E709F6B2
:1009EB0008DFFA8046E709F208DFFA803E88828C3E
:1009FB0083E709F0A3DFFA8032E309F608DFFA8018
:100A0B0078E309F208DFFA807088828C83E309F0BF
:100A1B00A3DFFA806489828A83E0A3F608DFFA8079
:100A2B005889828A83E0A3F208DFFA804C80D28057
:100A3B00FA80C680D4806980F28033801080A680D3
:100A4B00EA809A80A880DA80E280CA803389828A21
:100A5B0083ECFAE493A3C8C582C8CCC583CCF0A3BE
:100A6B00C8C582C8CCC583CCDFE9DEE7800D89829F
:100A7B008A83E493A3F608DFF9ECFAA9F0EDFB22E5
:100A8B0089828A83ECFAE0A3C8C582C8CCC583CC23
:100A9B00F0A3C8C582C8CCC583CCDFEADEE880DB17
:100AAB0089828A83E493A3F208DFF980CC88F0EF84
:100ABB0060010E4E60C388F0ED2402B4040050B9FF
:100ACB00F582EB2402B4040050AF2323458223901C
:100ADB000A3873BB010689828A83E0225002E7221F
:100AEB00BBFE02E32289828A83E49322BB010CE5DD
:100AFB008229F582E5833AF583E0225006E92582C7
:100B0B00F8E622BBFE06E92582F8E222E58229F50A
:100B1B0082E5833AF583E49322BB010689828A83BB
:100B2B00F0225002F722BBFE01F322EF8DF0A4A8B6
:100B3B00F0CF8CF0A428CE8DF0A42EFE22BC000B9F
:100B4B00BE0029EF8DF084FFADF022E4CCF875F0F8
:100B5B0008EF2FFFEE33FEEC33FCEE9DEC984005D7
:100B6B00FCEE9DFE0FD5F0E9E4CEFD22EDF8F5F09D
:100B7B00EE8420D21CFEADF075F008EF2FFFED33A5
:100B8B00FD4007985006D5F0F222C398FD0FD5F023
:100B9B00EA22C2D5EC30E709B2D5E4C39DFDE49C53
:100BAB00FCEE30E715B2D5E4C39FFFE49EFE120BBB
:100BBB0048C3E49DFDE49CFC8003120B4830D50731
:100BCB00C3E49FFFE49EFE22BB010A89828A83E075
:100BDB00F5F0A3E022500687F009E71922BBFE07C8
:100BEB00E3F5F009E3192289828A83E493F5F07423
:100BFB00019322BB0110E58229F582E5833AF58347
:100C0B00E0F5F0A3E0225009E92582F886F008E62A
:100C1B0022BBFE0AE92582F8E2F5F008E222E58321
:100C2B002AF583E993F5F0A3E99322BB010A8982A4
:100C3B008A83F0E5F0A3F0225006F709A7F01922FA
:100C4B00BBFE06F3E5F009F31922F8BB0111E582AF
:100C5B0029F582E5833AF583E8F0E5F0A3F022501D
:100C6B0009E92582C8F608A6F022BBFE09E9258210
:100C7B00C8F2E5F008F222E88FF0A4CC8BF0A42C9C
:100C8B00FCE98EF0A42CFC8AF0EDA42CFCEA8EF08F
:100C9B00A4CDA8F08BF0A42DCC3825F0FDE98FF076
:100CAB00A42CCD35F0FCEB8EF0A4FEA9F0EB8FF06D
:100CBB00A4CFC5F02ECD39FEE43CFCEAA42DCE35F5
:100CCB00F0FDE43CFC2275F008758200EF2FFFEE7F
:100CDB0033FECD33CDCC33CCC58233C5829BED9A5D
:100CEB00EC99E58298400CF582EE9BFEED9AFDECBB
:100CFB0099FC0FD5F0D6E4CEFBE4CDFAE4CCF9A801
:100D0B008222B800C1B90059BA002DEC8BF084CF08
:100D1B00CECDFCE5F0CBF97818EF2FFFEE33FEEDDF
:100D2B0033FDEC33FCEB33FB10D703994004EB9909
:100D3B00FB0FD8E5E4F9FA227818EF2FFFEE33FE1C
:100D4B00ED33FDEC33FCC933C910D7059BE99A4051
:100D5B0007EC9BFCE99AF90FD8E0E4C9FAE4CCFB69
:100D6B002275F010EF2FFFEE33FEED33FDCC33CCBD
:100D7B00C833C810D7079BEC9AE899400AED9BFD46
:100D8B00EC9AFCE899F80FD5F0DAE4CDFBE4CCFA59
:100D9B00E4C8F922E0FCA3E0FDA3E0FEA3E0FF2200
:100DAB00E0F8A3E0F9A3E0FAA3E0FB22ECF0A3ED5B
:100DBB00F0A3EEF0A3EFF022A42582F582E5F03547
:100DCB0083F58322FAE6FB0808E6F925F0F618E628
:100DDB00CA3AF622D083D082F8E49370127401934E
:100DEB00700DA3A393F8740193F5828883E4737455
:100DFB0002936860EFA3A3A380DFD083D082F8E4D3
:100E0B00937012740193700DA3A393F8740193F56F
:100E1B00828883E473740293B5F00674039368605D
:100E2B00E9A3A3A3A380D8EF4E6012EF60010EEDF0
:100E3B00BB010B89828A83F0A3DFFCDEFA2289F0E7
:100E4B005007F709DFFCA9F022BBFEFCF309DFFC1E
:100E5B00A9F022E5722466F8E60572227863300861
:100E6B00027866E475F001120DCF020ADE2001EB69
:100E7B007F2ED2018018EF540F2490D43440D4FF2E
:100E8B0030050BEF24BFB41A0050032461FFE57348
:100E9B00600215730576E5767002057530080D78DE
:100EAB0063E475F001120DCFEF020B240236D974F7
:100EBB0003D2088003E4C208F5728B638A648965E8
:100ECB00E4F573F575F576E57360077F20120E99DF
:100EDB0080F57574FFC202C201C203C204C206C20E
:100EEB0007C209120E67FF700D3008057F00120E46
:100EFB00AAAF76AE7522B4255FC2D5C205120E67B6
:100F0B00FF24D0B40A00501A75F00A787330D50557
:100F1B0008B6FF0106C6A426F620D5047002D2043B
:100F2B0080D924CFB41A00EF5004C2E5D2050210C9
:100F3B00AAD20280C6D20180C0D20380BCD2D58097
:100F4B00BAD20680B47F20120E992003077401B524
:100F5B00730040F1120E5EFF120E99020ED2D209EF
:100F6B00D2078095120E5EFB120E5EFA120E5EF920
:100F7B004A4B7006797B7A117BFF20032EE5736059
:100F8B002A7E008E82758300120AF760060EEE65CC
:100F9B007470F0C2D5EBC0E0EAC0E0E9C0E0EE123D
:100FAB0010F1D0E0F9D0E0FAD0E0FB120ADEFF60DE
:100FBB00AAEBC0E0EAC0E0E9C0E0120E99D0E02451
:100FCB0001F9D0E03400FAD0E0FBE5740460DCD525
:100FDB0074D980877BFF7A1079EDD203809C7910CE
:100FEB0080027908C207C2098008D2D5790A800429
:100FFB00790AC2D5E574047002F574E4FAFDFEFFBC
:10100B00120E5EFC7B08200213120E5EFD7B10306D
:10101B00010A120E5EFE120E5EFF7B20EC3382D5B0
:10102B0092D55013C3E43001069FFFE49EFEE420EB
:10103B0002039DFDE49CFCE4CBF8C202EC700CCFE8
:10104B00CECDCCE824F8F870F38017C3EF33FFEE66
:10105B0033FEED33FDEC33FCEB33FB994002FB0F1E
:10106B00D8E9EB300205F8D0E0C448B202C0E00A80
:10107B00EC4D4E4F78207B0070C2EAB5740040BC3B
:10108B00C0E01210F3D0F0D0E0200204C4C0E0C4E2
:10109B00B202C0F0120E82D0F0D5F0EB020ED212DB
:1010AB000DDF0F6F530FE9580F404C0F3C420FED04
:1010BB004F0FF5440FF5490F55430FFB550FDF4607
:1010CB000FDF450FDF47119B500F442D0F482E0F9D
:1010DB006B2B0F4C230F692011842A0F044800003F
:1010EB000F633F3F3F00790AA2D520041430060955
:1010FB00B910020404B9080104A2D520070250015B
:10110B00042003689203B573005034C0E07F203095
:10111B0004197F30A20372077206500F12114AC2D4
:10112B0003C207C206C2097F30800F300603E9C035
:10113B00E0120E99300603D0E0F9D0E0B573CC3055
:10114B0006177F30B9100C120E997F583005077FA8
:10115B00788003B90803120E993003057F2D020E18
:10116B00997F202009F87F2B2007F322920380CF51
:10117B00286E756C6C2900D202120E5E3002F8C21A
:10118B0002787330D50108F6020F042D50434958ED
:10119B00120E5E2403B405004001E49011969312E5
:1011AB000E8A743A120E8AD204757304020FE98FF9
:1011BB00557BFF7A37799F7566008F67120EC0E5F6
:1011CB00556401703390084BE0C39409748094808C
:1011DB00400302150990084AE555F0A3E0FF122CD5
:1011EB005190084EE054036009E05403FD7C00026B
:1011FB0014F7E4FDFC0214F7AF55EF640260030231
:10120B0013417BFF7A3779B1F5668F6790084BE016
:10121B00756800F569A3E0756A00F56B120EC09056
:10122B00084D74FFF090084BE0C3940974809480D0
:10123B00400302133EA3E0C39409748094804003DF
:10124B0002133EE0FF90084BE06F70030215009015
:10125B003A8474019324FEFFE49334FFFE90084B11
:10126B00E0FD7C0012354D903A8474019324FFFF0E
:10127B00E49334FFFE7D017C0012354D90084BE06A
:10128B0025E02484F582E4343AF58374019324FE3B
:10129B00FFE49334FFFE90084CE0FD7C0012354DCB
:1012AB0090084BE025E02484F582E4343AF583740E
:1012BB00019324FFFFE49334FFFE7D017C00123584
:1012CB004D90084CE025E02484F582E4343AF58314
:1012DB0074019324FEFFE49334FFFE90084BE0FD72
:1012EB007C0012354D90084CE025E02484F582E417
:1012FB00343AF58374019324FFFFE49334FFFE7DAE
:10130B00017C0012354D90084AE555F0A3E0FF1221
:10131B002C5190084CE0FF122C5190084EE05403D6
:10132B00600AE054037C004402FD80047D027C00D3
:10133B000214F7021500AF55EF64036003021509A1
:10134B0090084BE0C394097480948040030215000D
:10135B00A3E0C39409748094804003021500A3E0BA
:10136B00C394097480948040030215007BFF7A3785
:10137B0079D87566008F6790084BE0756800F56942
:10138B00A3E0756A00F56BA3E0756C00F56D120EAA
:10139B00C090084CE0FF90084BE06F70030214FE06
:1013AB0090084DE0FF90084BE06F70030214FE9025
:1013BB00084DE0FF90084CE06F70030214FE903A6A
:1013CB008474019324FEFFE49334FFFE90084BE0FA
:1013DB00FD7C0012354D903A8474019324FFFFE499
:1013EB009334FFFE7D017C0012354D90084BE025B8
:1013FB00E02484F582E4343AF58374019324FEFFF0
:10140B00E49334FFFE90084CE0FD7C0012354D90C8
:10141B00084BE025E02484F582E4343AF58374012B
:10142B009324FFFFE49334FFFE7D017C0012354DC6
:10143B0090084CE025E02484F582E4343AF583747B
:10144B00019324FEFFE49334FFFE90084DE0FD7CF6
:10145B000012354D90084CE025E02484F582E434ED
:10146B003AF58374019324FFFFE49334FFFE7D016F
:10147B007C0012354D90084DE025E02484F582E484
:10148B00343AF58374019324FEFFE49334FFFE900A
:10149B00084BE0FD7C0012354D90084DE025E02413
:1014AB0084F582E4343AF58374019324FFFFE493CB
:1014BB0034FFFE7D017C0012354D90084AE555F056
:1014CB00A3E0FF122C5190084CE0FF122C51900816
:1014DB004DE0FF122C5190084EE05403600AE0548B
:1014EB00037C004402FD80047D027C007F0F7E4064
:1014FB0002354D80007BFF7A3779C8120EC022C3AC
:10150B00E5119401E510948050030217ABE510949C
:10151B00EC40030217ABE50B450A600302161DE511
:10152B00118510F0120E05158A8001159080021599
:10153B0099800315998004159980061599800915D2
:10154B009F800A15B8800B1599800C1599800E1584
:10155B00E5800F15998010159980131614801615B8
:10156B0099801715A4801815F4801915C7801A15C2
:10157B00A9801B1603801C15D6801D000017A275B1
:10158B00C2100217A2900848E0F5C20217A2E4F5B8
:10159B00C20217A290084B800890084C8003900859
:1015AB004DE025E02450F582E43408805890084B38
:1015BB00E025E02462F582E43408804990084CE091
:1015CB0025E02462F582E43408803A90084DE0254A
:1015DB00E02462F582E43408802B90084BE025E090
:1015EB002474F582E43408801C90084CE025E02438
:1015FB0074F582E43408800D90084DE025E02474E6
:10160B00F582E43408F5838003900844E0F5C202C8
:10161B0017A2E50B6401450A600302179BE51185D0
:10162B0010F0120E0516888001168E80021695801A
:10163B0003169B800416A1800616A7800916BD8091
:10164B000A16F9800B16AD800C16B4800E1733807A
:10165B000F17878010176C801317778016178E80E3
:10166B001716D1801817468019170D801A16E580AA
:10167B001B1759801C1720801D0000179475C2166C
:10168B0002179490084EE0C48023E4F5C20217942D
:10169B0090084902179190084B02179190084F023E
:1016AB00179190084EE002177190084EE013130249
:1016BB00177190084BE025E02450F582E43408F5CF
:1016CB0083E0A302179190084CE025E02450F582AB
:1016DB00E43408F583E0A302179190084DE025E070
:1016EB002450F582E43408F583E0A30217919008A7
:1016FB004BE025E02462F582E43408F583E0A30295
:10170B00179190084CE025E02462F582E43408F54B
:10171B0083E0A3807190084DE025E02462F582E41C
:10172B003408F583E0A3805E90084BE025E0247439
:10173B00F582E43408F583E0A3804B90084CE02558
:10174B00E02474F582E43408F583E0A38038900834
:10175B004DE025E02474F582E43408F583E0A380A2
:10176B002590084EE0C45403F5C2801D900844A395
:10177B00E0F5C2E4900846F0A3F0800D1236AD8F71
:10178B00C28006900886E0F5C2E4F510F5118007DB
:10179B00E4F510F511F5C2050BE50B7047050A22B0
:1017AB00C3E51094EC4076E511B4FC3DE510B4F2C2
:1017BB0038E50B2511FFE50A3510FEC3EF940CEE4F
:1017CB0094F35021E511250BFFE510350AFE7457F4
:1017DB002FF58274F93EF583E493F5C2050BE50B07
:1017EB007002050A22E4F5C222E5166402602BE5BD
:1017FB000B450A7006751501751601E50D2402FFE0
:10180B00E4350CFEE50B2FFFE50A3EFE1236138F77
:10181B00C2050BE50B7002050A2275C2AA228F5670
:10182B007BFF7A3979E3120EC07B007A007957750A
:10183B0063007564027F287EF0122DB1EF60030206
:10184B001B3FAF58AE5712363B8E578F587BFF7AE4
:10185B003A7902855766855867120EC0C3E55894CE
:10186B0002E557940050087557007558028011D344
:10187B00E558947EE5579400400675570075587EE1
:10188B00E556120DDF18AC0018EE01193002197273
:10189B000319F6041A7A051ABC061AFD0700001B79
:1018AB003FAD58AC577FD37E5412354DAD58AC5726
:1018BB007FF77E5412354DAD58AC577F097E5512CC
:1018CB00354DAD58AC577F2D7E5512354DAD58ACBF
:1018DB00577F3F7E5512354DAD58AC577F517E55D6
:1018EB00021B3CAD58AC577F497E5612354DAD5857
:1018FB00AC577F6D7E5612354DAD58AC577F7F7E02
:10190B005612354DAD58AC577FA37E5612354DADA3
:10191B0058AC577FB57E5612354DAD58AC577FC777
:10192B007E56021B3CAD58AC577FBD7E5712354DD2
:10193B00AD58AC577FE17E5712354DAD58AC577F44
:10194B00F37E5712354DAD58AC577F177E58123575
:10195B004DAD58AC577F297E5812354DAD58AC570D
:10196B007F3B7E58021B3CAD58AC577F317E5912E2
:10197B00354DAD58AC577F437E5912354DAD58ACF4
:10198B00577F677E5912354DAD58AC577F797E59CD
:10199B0012354DAD58AC577F8B7E5912354DAD5826
:1019AB00AC577F9D7E5912354DAD58AC577FC17EDC
:1019BB005912354DAD58AC577FD37E5912354DADBD
:1019CB0058AC577FE57E5912354DAD58AC577FF764
:1019DB007E5912354DAD58AC577F097E5A12354D95
:1019EB00AD58AC577F1B7E5A021B3CAD58AC577F92
:1019FB00157E5B12354DAD58AC577F277E5B12358C
:101A0B004DAD58AC577F4B7E5B12354DAD58AC5737
:101A1B007F5D7E5B12354DAD58AC577F6F7E5B1291
:101A2B00354DAD58AC577F817E5B12354DAD58AC03
:101A3B00577FA57E5B12354DAD58AC577FB77E5B9C
:101A4B0012354DAD58AC577FC97E5B12354DAD5835
:101A5B00AC577FDB7E5B12354DAD58AC577FED7EBF
:101A6B005B12354DAD58AC577FFF7E5B021B3CAD17
:101A7B0058AC577FF97E5C12354DAD58AC577F1D76
:101A8B007E5D12354DAD58AC577F2F7E5D12354DB7
:101A9B00AD58AC577F537E5D12354DAD58AC577F6B
:101AAB00657E5D12354DAD58AC577F777E5D021B61
:101ABB003CAD58AC577F6D7E5E12354DAD58AC5773
:101ACB007F917E5E12354DAD58AC577FA37E5E1273
:101ADB00354DAD58AC577FC77E5E12354DAD58AC0A
:101AEB00577FD97E5E12354DAD58AC577FEB7E5E7E
:101AFB00803FAD58AC577FE17E5F12354DAD58AC92
:101B0B00577F057E6012354DAD58AC577F177E6001
:101B1B0012354DAD58AC577F3B7E6012354DAD58ED
:101B2B00AC577F4D7E6012354DAD58AC577F5F7E05
:101B3B003012354D229008487401F0A3F0A3F0E465
:101B4B00A3F0A3F0A3F0A3E054FCF0E054F344049F
:101B5B00F0E054CF4410F0E0543FF0900886741E30
:101B6B00F090084BE0900887F090084F7401F090CC
:101B7B00084BE025E02450F582E43408F583E4F0CB
:101B8B00A37432F0E4F554C3E55494097480948043
:101B9B005028E55425E02474F582E43408F583E4F9
:101BAB00F0A3F0E55425E02462F582E43408F583D4
:101BBB007401F0A3E4F0055480CDE4900846F0A343
:101BCB00F0FB7A007952F5637564027F1D7EF0128B
:101BDB002DB1EF7034AF53AE5212363B8E528F5342
:101BEB00E553455290084E6008E054F34404F080EE
:101BFB0004E054F3F07BFF7AEA79F490084EE0FFAF
:101C0B0013135403F566120EC07B007A00795175DD
:101C1B0063007564017F1C7EF0122DB1EF70129082
:101C2B00084FE551F07BFF7AEB7902E0F566120E77
:101C3B00C07B007A0079527563007564027F1B7E4E
:101C4B00F0122DB1EF704EAF53AE5212363B8E5297
:101C5B008F53E4F554C3E554940974809480503544
:101C6B00E55425E02462F582E43408F583E552F06F
:101C7B00A3E553F07BFF7AEB7917E55425E024625B
:101C8B00F582E43408F583E0F566A3E0F567120E00
:101C9B00C0055480C07B007A007951756300756470
:101CAB00017F1A7EF0122DB1EF701FE5515403C462
:101CBB0054F0FF90084EE054CF4FF07BFF7AEB7956
:101CCB0027855266855367120EC07B017A00790017
:101CDB007563007564127F107EF0122DB1EF705C8E
:101CEB00F554C3E554940974809480504FE5542502
:101CFB00E02400F582E43400F583E0FEA3E0FF125C
:101D0B00363BE55425E02450F582E43408F583EEA8
:101D1B00F0A3EFF07BFF7AEB79377566008554679C
:101D2B00E55425E02450F582E43408F583E0FEA366
:101D3B00E08E68F569120EC0055480A678027C0807
:101D4B007D017B017A0879487E007F42120AB87BBD
:101D5B00FF7AEB7954020EC0900848E064036003ED
:101D6B00021F0E7BFF7AEB79FA120EC090084AE045
:101D7B0064017022900804E0FF90084AE0B5071E4A
:101D8B00900805E0FF90084BE06F6012900805E0AB
:101D9B00FF122C518008900804E090084AE090084C
:101DAB0003E0FF900849E06F6008900803E0FF1222
:101DBB002E5D900805E0FF90084BE06F60089008DF
:101DCB0005E0FF122C51900808E013135403FF9009
:101DDB00084EE0FE131354036F600CE0131354030F
:101DEB00FFA3E0FD122F8F900808E05403FF90082B
:101DFB004EE054036F600A900808E05403FF123161
:101E0B0095900809E0FF90084FE06F600FE0FF909E
:101E1B00084EE0FE13135403FD123344900805E003
:101E2B0025E0240AF582E43408F583E0FEA3E0FF05
:101E3B0090084BE025E02450F582E43408F583E06C
:101E4B00FCA3E06F7002EC6E601C900805E025E0CF
:101E5B00240AF582E43408F583E0FEA3E0FF900842
:101E6B0005E0FD12209B7B017A08796274019008D2
:101E7B001C6401700A746265827004740865836067
:101E8B001C900805E025E0241CF582E43408F5835A
:101E9B00E0FEA3E0FF900805E0FD1230807B017AA5
:101EAB00087974740190082E6401700A7474658249
:101EBB00700474086583601C900805E025E0242EEF
:101ECB00F582E43408F583E0FEA3E0FF900805E01B
:101EDB00FD1231E278037C087D017B017A08794998
:101EEB007E007F41120AB8900802E06404700A1267
:101EFB0035C49008487404F0229008487402F0909E
:101F0B000802F0228F577BFF7A3879767566008F3F
:101F1B0067120EC0E557120DDF1F43001F5C011F38
:101F2B0078021F94031FB0041FCA051FE4061FFE8F
:101F3B00072018080000208B7B017A00790075635D
:101F4B000075640A7F297EF0122DB1EF60540220D8
:101F5B002E7B017A00790075630075640A7F2A7EF7
:101F6B00F0122DB1EF600302202E0220367B017A96
:101F7B0000790075630075640A7F2B7EF0122DB11A
:101F8B00EF600302202E0220367B017A0079007568
:101F9B00630075640A7F2C7EF0122DB1EF60030293
:101FAB00202E0220367B017A007900756300756460
:101FBB000A7F2D7EF0122DB1EF60028066806C7B64
:101FCB00017A00790075630075640A7F2E7EF0122A
:101FDB002DB1EF6002804C80527B017A0079007545
:101FEB00630075640A7F2F7EF0122DB1EF600280C3
:101FFB003280387B017A00790075630075640A7F43
:10200B00307EF0122DB1EF60028018801E7B017ABA
:10201B0000790075630075640A7F317EF0122DB173
:10202B00EF60087BFF7A387952806190000012369E
:10203B0036AC06AD077F507EC712354D90000212AD
:10204B003636AC06AD077F517EC712354D90000476
:10205B00123636AC06AD077F527EC712354D900057
:10206B0006123636AC06AD077F537EC712354D9040
:10207B000008123636AC06AD077F547EC702354DCD
:10208B007BFF7A387999756600855767120EC022E7
:10209B008E578F588D59E4F55A7BFF7A3879D18555
:1020AB005766855867F568855969120EC0900849BF
:1020BB00E01424FD5002800C755B02755CBC755DF1
:1020CB0000755E02D3E558955CE557955B40088536
:1020DB005B5F855C608019C3E558955EE557955D40
:1020EB005008855D5F855E60800685575F8558600B
:1020FB00AF60AE5F122B9E8E618F62900849E064D9
:10210B0001600DE064026008E06403600302220DCD
:10211B00E55925E02484F582E4343AF58374019380
:10212B002433FFE49334FFFEAD60AC5F12354DAF4B
:10213B0059EF64036008EF640460030221F2E55970
:10214B0025E02484F582E4343AF583740193243F2B
:10215B00FBE49334FFFAAE5FAF607C007D06120B9D
:10216B0036AC06AD07AF03AE0212354DE55925E08F
:10217B002484F582E4343AF583740193243EFBE422
:10218B009334FFFAAE5FAF607C007D06120B36AC6A
:10219B0006AD07AF03AE0212354DE55925E0248499
:1021AB00F582E4343AF583740193243DFBE49334D4
:1021BB00FFFAAE5FAF607C007D06120B36AC06AD4E
:1021CB0007AF03AE0212354DAE5FAF607C007D12E0
:1021DB00120B367D09120B48E5602FFFE55F3EFEC3
:1021EB00122B9E8E618F62E55925E02484F582E4E3
:1021FB00343AF583E493FE740193FFAD62AC611244
:10220B00354D228F577BFF7A3779F37566008F67D1
:10221B00120EC0E557120DDF224200225E01227A18
:10222B000222960322AF0422C80522E10622F907F7
:10223B00231108000023277B017A007900756300C6
:10224B007564627F067EF0122DB1EF7003022327B7
:10225B000223757B017A0079007563007564627FD8
:10226B00077EF0122DB1EF70030223270223757B3B
:10227B00017A0079007563007564627F087EF01245
:10228B002DB1EF70030223270223757B017A0079AE
:10229B00007563007564627F097EF0122DB1EF60EB
:1022AB007B0223757B017A0079007563007564628C
:1022BB007F0A7EF0122DB1EF60620223757B017AEB
:1022CB000079007563007564627F0B7EF0122DB18F
:1022DB00EF60490223757B017A0079007563007505
:1022EB0064627F0C7EF0122DB1EF6030807C7B013D
:1022FB007A0079007563007564627F0D7EF0122D94
:10230B00B1EF601880647B017A007900756300750A
:10231B0064627F0E7EF0122DB1EF704EE55725E013
:10232B002484F582E4343AF58374019324F8F55A46
:10233B00E49334FFF559E4F558C3E55894317480B0
:10234B009480502FE55825E02400F582E43400F505
:10235B0083123636AC06AD07C3E55A9558FFE559DF
:10236B009400FE12354D055880CF7BFF7A38791AD1
:10237B00120EC0228B578A588959E4F55CE55CC371
:10238B00950F501A75F006E55C90E9D0120DC374E9
:10239B0001936F7003E4936E6004055C80DFE55C72
:1023AB00C3950F40087BFF7AE97962801E75F006B2
:1023BB00E55C90E9D2120DC3740193655B7004E484
:1023CB0093655A60097BFF7AE9797E020EC0E55C62
:1023DB0075F006A424CEF974E935F0FA7BFF78008A
:1023EB007C007D017E007F02120AB875F006E55C69
:1023FB0090E9D2120DC3E493FE740193FF78027C33
:10240B00007D01AB57AA58A959120AB87BFF7AE98C
:10241B00799675F006E55C90E9CE120DC3E493FE58
:10242B007401938E66F56775F006E55C90E9D21240
:10243B000DC3E493FE7401938E68F569120EC07B95
:10244B00FF7AE979A6900002E0756600F56775F0F2
:10245B0006E55C90E9D2120DC3E493FE740193245C
:10246B0001F58274003EF583E0756800F569120E84
:10247B00C07BFF7AE979B9756600855C6775F006F4
:10248B00E55C90E9D0120DC3E493FE7401938E6862
:10249B00F56975F006E55C90E9D2120DC3E493FE85
:1024AB007401938E6AF56B120EC0D2A575F006E51A
:1024BB005C90E9D0120DC3E493FE740193FF7B0192
:1024CB007A00790075F006E55C90E9D2120DC374C1
:1024DB0001932402F563E4933400F56212298DC253
:1024EB00A5228F558D56E4900004F0A3F0D3EF9402
:1024FB001E74809480401275551E7BFF7A39799734
:10250B00756600855567120EC0AF55E4FCFDFE7B6A
:10251B00407A85791FF8120C82E47B64FAF9F81281
:10252B000D0D900000120DB7900000120DAB7F0047
:10253B007ECA7D9A7C3B120D0D900000120DB79058
:10254B000000120D9FEF24A0FFEE34FCFE90000460
:10255B00F0A3EFF0C394F0EE9402500A90000474D1
:10256B0002F0A374F0F07BFF7A3979B975660085B8
:10257B005567756800855669120EC0E556120DDF5A
:10258B0025AA0025B80125C60225D40325E204257A
:10259B00F00525FE06260E07260E080000261F90C6
:1025AB000000120D9FAD07AC067F02806290000009
:1025BB00120D9FAD07AC067F0E8054900000120DDC
:1025CB009FAD07AC067F1A8046900000120D9FADA1
:1025DB0007AC067F268038900000120D9FAD07AC2C
:1025EB00067F32802A900000120D9FAD07AC067F4C
:1025FB003E801C900000120D9FAD07AC06744AFF85
:10260B00FE800E900000120D9FAD07AC067F567E2C
:10261B004A12354D22E50945087025AFC2EF64809B
:10262B00600FAFC2C3EF94EC748094805003022709
:10263B0049AFC2EF751100F510750800750901223D
:10264B00E509640145087032E5106480700EAFC275
:10265B00EF42110509E5097002050822E510C39444
:10266B00ECE494004057AFC2EF42110509E5097045
:10267B0002050885100C85110D22E5096402450839
:10268B00703DE51064807011AFC2EF751400F51347
:10269B000509E5097026050822E510C394ECE494BE
:1026AB0000401AAE08AF0974002FF58274063EF590
:1026BB0083E5C2F00509E50970020508228045E5AE
:1026CB0009640345087047E51064807013AFC2EFCF
:1026DB004214E4AD14AC13AF11AE1012349D802430
:1026EB00E510C394ECE49400401AAE08AF097400F3
:1026FB002FF58274063EF583E5C2F00509E50970F6
:10270B0002050822E4F510F511F513F51422E51076
:10271B00C394ECE494004026E50924FEE50834FF5D
:10272B00C394025019AE08AF0974002FF5827406DA
:10273B003EF583E5C2F00509E5097002050822E4C0
:10274B00F551C3E55194FF748094804003022870C7
:10275B00C3E519949FE518942A5074AE18E51978BF
:10276B0002C333CE33CED8F92496F582743A3EF5B4
:10277B00837401937002E49370051235AD8045AEFE
:10278B0018E5197802C333CE33CED8F92496F582E7
:10279B00743A3EF583E493FE740193FFC006C007C1
:1027AB00AE18E5197802C333CE33CED8F92498F599
:1027BB0082743A3EF583E493FC740193FDD007D009
:1027CB000612354D0519E5197002051802286B7BA9
:1027DB00FF7A3679DC851866851967120EC07B0087
:1027EB007A0079527563007564027F017EF0122DB9
:1027FB00B1EF7021AF53AE5212363B8E528F537BDB
:10280B00FF7A3679FF855266855367120EC0AF5338
:10281B00AE521233F77B007A007952756300756400
:10282B00027F027EF0122DB1EF7021AF53AE521228
:10283B00363B8E528F537BFF7A37791685526685DE
:10284B005367120EC0AF53AE521233BD90084BE01C
:10285B00FF122C517BFF7A37792A120EC07F002290
:10286B00055102274D7F01228F577BFF7A3879352F
:10287B007566008F67120EC0C3E55794037480947E
:10288B008050267B017A0079007563007564247F84
:10289B00037EF0122DB1EF6003022983E55775F02B
:1028AB000CA42400F97400805CAF57C3EF9403743D
:1028BB00809480402FEF94067480948050267B0187
:1028CB007A0079007563007564247F047EF0122D05
:1028DB00B1EF6003022983E55775F00CA424DCF9F2
:1028EB0074FF80217B017A00790075630075642485
:1028FB007F057EF0122DB1EF707EE55775F00CA4BD
:10290B0024B8F974FF35F0FA7B01782A7C007D013D
:10291B007E007F0C120AB8E55725E02484F582E48B
:10292B00343AF583740193244EF55AE49334FFF54E
:10293B0059755B01755C00755D2AE4F558C3E55864
:10294B009406748094805039AB5BAA5CA95D75F0DA
:10295B0002E558A4F58285F083120BFEFFAEF01250
:10296B00363BAC06AD07C3E55A9558FFE5599400C5
:10297B00FE12354D055880C57BFF7A387952120E01
:10298B00C0228B5F8A608961AD07AC06EC131354D0
:10299B003F75650025E025E0F564EC5403F5668D85
:1029AB0067E4F568F569E51670FC751602D3E56307
:1029BB009400E56294005003022AA1E4F56AF56BDA
:1029CB00E565256BFFE564356AFE12361374022547
:1029DB006BF5827402356AF583EFF0056BE56B706E
:1029EB0002056AC3E56A940440D6AF65AE6412353E
:1029FB0024E5672563FFE5663562FED3EF9400EEB1
:102A0B009404400BE49567FF74049566FE8004AE56
:102A1B0062AF638E688F69E4F56AF56BC3E56B95FE
:102A2B0069E56A95685030AB5FAA60A961856B82D6
:102A3B00856A83120AF7FFE567256BFDE566356A44
:102A4B00FC74022DF58274023CF583EFF0056BE507
:102A5B006B70C9056A80C5C3E5639569F563E5626B
:102A6B009568F562E5692561F561E5683560F560A6
:102A7B007B017A027902757104757200AF65AE64E1
:102A8B001232C0E42565F56574043564F564E4F52C
:102A9B0066F5670229B8E4F51622C0E0C0F0C083E2
:102AAB00C082C0D075D000C000C001C002C003C03E
:102ABB0004C005C006C00730C203022B7BE5C0541F
:102ACB00F0604324F0604624D07003022B6724F09F
:102ADB007003022B6F24306003022B73C2C5750A7F
:102AEB0000750B00750800750900E52254FEFFE523
:102AFB00C254FEB5070CD2C1E5C254016401707615
:102B0B00805DC2C18070122620D2C18069C2C4C34D
:102B1B00E5099403E5089400402ED3E5099402E5FA
:102B2B000894025023C3E5119401E51094805007DB
:102B3B00C3E51094EC4011E50924FEFDE50834FFD4
:102B4B00FCAF11AE1012349DE50B450A60287515CC
:102B5B0000E5176401601F751600801A30C117124B
:102B6B00150A8012C2C4800E53C17F43C1808000FE
:102B7B00C2C5C2C4C2C1C2C0D007D006D005D004E2
:102B8B00D003D002D001D000D0D0D082D083D0F0EF
:102B9B00D0E0328E638F64E4FFFBFA7565037566D4
:102BAB00A0F567756824F569F56AF56BF56C900807
:102BBB0049E06401600AE064026005E0640370119F
:102BCB007A007B18756900756A54E4F56BF56C80B7
:102BDB0022900849E06404600AE064056005E06443
:102BEB000670107A007B0E7569FF756AF8756BFFBE
:102BFB00756CFDE5662BCFE5653ACF24A5CF34FF89
:102C0B00FEAD03AC02120B9DC3E5649FFFE5639E13
:102C1B00FEAC02AD03120B36E5662FFFE5653EFEFB
:102C2B00E56C2FFFE56B3EFEAC65AD66120B9DEFC1
:102C3B002403FFE43EFEAC67AD68120B36E56A2F4A
:102C4B00FFE5693EFE228F567BFF7A3779827566E8
:102C5B00008F67120EC090084FE0D39401748094DC
:102C6B0080402190084EE013135403FFA3E0FD12A4
:102C7B002F8F90084FE0FF90084EE0FE1313540384
:102C8B00FD123344E55625E02450F582E43408F573
:102C9B0083E0FEA3E0FFAD5612209BAF56122873C4
:102CAB00AF5612220EAF56121F0FE55625E02462C7
:102CBB00F582E43408F583E0FEA3E0FFAD56123055
:102CCB0080E55625E02474F582E43408F583E0FEB4
:102CDB00A3E0FFAD561231E290084EE0C45403FF5F
:102CEB0012003E90084AE06401700CE556FD7C0032
:102CFB007F037E6812354D228E558F56C3E5569451
:102D0B0003E55594004003022DB07C00E55654803A
:102D1B00FD7F007EC412354DE55664014555702F7D
:102D2B00900888E0F470057D08FC8007900888E027
:102D3B00FD7C007F027EC412354D900889E0F47053
:102D4B00057D08FC803E900889E0FD7C008035E520
:102D5B0056640245557034900888E0F470057D0385
:102D6B00FC8007900888E0FD7C007F027EC4123552
:102D7B004D900889E0F470057D04FC80079008896C
:102D8B00E0FD7C007F037EC412354DAD56AC557F04
:102D9B00007EC412354D7BFF7A3A791185556685D5
:102DAB005667120EC0228E5E8F5F8B608A618962BE
:102DBB00E4F565E565C3950F501C75F006E5659068
:102DCB00E9CE120DC3740193655F7004E493655EE5
:102DDB006004056580DDE516640260FA7516017501
:102DEB00170175F006E56590E9D0120DC3E493FC6D
:102DFB00740193FD7B007A007966756D00756E0228
:102E0B00120003E55F65677004E55E6566703475F7
:102E1B00F006E56590E9D0120DC37401932402FD11
:102E2B00E4933400FCAB60AA61A96285636D856491
:102E3B006E120003E4F517E51564016003E4F51663
:102E4B007F0022E4F517E51564016003E4F5167FB6
:102E5B0001228F557BFF7A3779667566008F671273
:102E6B000EC0E555640770047D198002E4FDFC7FFC
:102E7B00FC7EC012354DAF55EF6401602DEF64043D
:102E8B0070028026AF55EF64026005EF6405700495
:102E9B007D058018AF55EF64036005EF6406700481
:102EAB007D078008E5556407600B7D037C007FDAA6
:102EBB007EC312354D90084AE0D394017480948000
:102ECB00401890084EE05403600AE054037C004421
:102EDB0002FD80197D027C00801390084EE05403A4
:102EEB006008E05403FD7C008003E4FDFC7F0F7E53
:102EFB004012354D22120039787FE4F6D8FD7581EA
:102F0B0076022F4A023278E493A3F8E493A34003AA
:102F1B00F68001F208DFF48029E493A3F854072428
:102F2B000CC8C333C4540F4420C8834004F45680E8
:102F3B000146F6DFE4800B0102040810204080906C
:102F4B003625E47E019360BCA3FF543F30E5095462
:102F5B001FFEE493A360010ECF54C025E060A84090
:102F6B00B8E493A3FAE493A3F8E493A3C8C582C887
:102F7B00CAC583CAF0A3C8C582C8CAC583CADFE95C
:102F8B00DEE780BE8F578D587BFF7A397977756670
:102F9B00008F67756800855869120EC0E55824FECE
:102FAB00600F14601424027018755900755A118043
:102FBB0015755900755A12800D755900755A138085
:102FCB0005E4F559F55AE55790084B601DE025E0EF
:102FDB002484F582E4343AF58374019324BAFFE434
:102FEB009334FFFEAD5AAC59801AE025E02484F5EA
:102FFB0082E4343AF58374019324BAFFE49334FFEB
:10300B00FEE4FDFC12354D228D55E4F5568B578AA7
:10301B00588959F556E556C395555058AB57AA588C
:10302B00A95975F004E556A4F58285F083120BFEC1
:10303B0045F070051235AD8037AB57AA58A95975B5
:10304B00F004E556A4F58285F083120BFEFFAEF07B
:10305B00C006C007E55675F004A429F9EA35F0FA65
:10306B00900002120BFEFDACF0D007D00612354DCE
:10307B00055680A1228E578F588D59E55925E0248E
:10308B0084F582E4343AF583740193243CFFE49392
:10309B0034FFFE1230EA8E5A8F5B755B00535AF089
:1030AB00E558425BE557425AE55925E02484F58201
:1030BB00E4343AF583740193243CFFE49334FFFE2C
:1030CB00AD5BAC5A12354D7BFF7A39793BE55A54DF
:1030DB000FF566855B67756800855969020EC08EB2
:1030EB005C8F5DE4F55EF55F12365EAF1A123382CC
:1030FB00EF60028026E55CFF123382EF6002801BDB
:10310B00AF5D123382EF600280111236BA12365E57
:10311B00E51A4401FF123382EF60061236BA7E00C5
:10312B0022123431EF755F00F55E123467EF425FA8
:10313B001236BAAE5EAF5F228E658F668C678D6876
:10314B0012365EAF1A123382EF60028034E565FFF0
:10315B00123382EF60028029AF66123382EF600276
:10316B00801FE567FF123382EF60028014AF681295
:10317B003382E56664227004E56564C06006EF6027
:10318B00030236BA1236BA7F00228F557BFF7A398B
:10319B007959855566120EC090084BE0FF1218291D
:1031AB0090084AE0D3940174809480E55540044420
:1031BB00028000FD7C007F0F7E4012354DE555707F
:1031CB00157D07FC7F017E4012354D7D047C007F11
:1031DB00227E7C12354D228E578F588D597BFF7A6C
:1031EB003979128557668558677568008559691254
:1031FB000EC0D3E55894FFE557943F400675573FF3
:10320B007558FFE55925E02484F582E4343AF583BB
:10321B0074019324FDFFE49334FFFEAD58AC5702C9
:10322B00354DE52465236042AF23EF25E025E024EF
:10323B0025F8E6FF08E6CF8FF0120C36AF23EF250B
:10324B00E025E02427F8E6FF08E6AB58AA59A95A6F
:10325B00CF8FF0120C360523AF23C3EF9409748084
:10326B0094804003E4F5237F00227F01221234CDAA
:10327B001236D6C2A0C2A17522C8209303432204E2
:10328B002092034322027BFF7AEC792AAF227566E8
:10329B00008F67120EC01235ECE4900848F07BFFEC
:1032AB007AEC793AE0756600F567120EC01200767B
:1032BB0012330280F88E6C8F6D8B6E8A6F897085DE
:1032CB006C73856D74E56D2572FFE56C3571FEC30E
:1032DB00E5749FE5739E501E786EE475F001120D38
:1032EB00CF120ADEFDAF74AE731234FB0574E574B6
:1032FB0070D3057380CF22900848E07012123652BB
:10330B00EF60097BFF7AEC7912020EC0021B409032
:10331B000848E06401700D12274AEF701B900848B3
:10332B007403F022900848E064037003021D63905D
:10333B000848E064026001E022EF4410755700F585
:10334B00587BFF7A3879F97566008F67AF0575681A
:10335B00008F69120EC090084BE025E02484F582A3
:10336B00E4343AF58374019324B9FFE49334FFFEFC
:10337B00AD58AC5702354DE4FA7E017B07C281ADE7
:10338B0003A805EF088002C313D8FC1392801235F3
:10339B0077EB1B70011ABAFFE4BBFFE1C281D2804D
:1033AB0012357C12357CD281A280E433FE12357C3F
:1033BB00FF228E558F56D3E5569403E55594004066
:1033CB0024E556941EE5559400501AAD56AC557F26
:1033DB00037EC412354D7BFF7A3A792C8555668571
:1033EB005667020EC090088974FFF0228E558F56D7
:1033FB00D3E5569402E55594004024E556941EE51A
:10340B00559400501AAD56AC557F027EC412354D03
:10341B007BFF7A3A794D855566855667020EC090CB
:10342B00088874FFF022E4FEFD7F07C28112357C11
:10343B00D281AC07A280E433FBA804088002C3331B
:10344B00D8FC420512357CEF1F70011EBEFFDCBF9E
:10345B00FFD9123573C281D280AF0522E4FEFD7F06
:10346B0007C28112357CD281AC07A280E433FBA862
:10347B0004088002C333D8FC420512357CEF1F7061
:10348B00011EBEFFDCBFFFD9C281123577C281AFEF
:10349B000522AB24EB25E025E02425F8A60608A69B
:1034AB0007AF24EF25E025E02427F8A60408A6059E
:1034BB000524AF24C3EF9409748094804003E4F592
:1034CB00242285A7511236881236911236C0123635
:1034DB009812369F1236CC12366A12364612359136
:1034EB001236741236C41236C81236A68551A7226C
:1034FB00A2AF9201C2AF75FF8075EF028F828E83F0
:10350B0075B7A575B7F1438F0175FF8075EF02EDA8
:10351B00F0538FFEA20192AF22A2AF9201C2AF7500
:10352B00FF8075EF028F828E8375B7A575B7F14358
:10353B008F0375FF8075EF02E4F0538FFCA20192AD
:10354B00AF228E638F648D828C83790AE9D39400CA
:10355B00748094804011AD82AC83AF64AE63123142
:10356B0043EF60031980E522C281C28012357CD201
:10357B0081000000000000000000000000000000BF
:10358B00000000000022AF885388AF758CBC758A91
:10359B0034758D96758BCBEF5440FEEF54104E4225
:1035AB008822E4FFFE055BE55B7002055A0FBF0046
:1035BB00010EBE02F0BF58ED227BFF7AE579127D3A
:1035CB00101230137BFF7A377945020EC07BFF7ADE
:1035DB00E579527D0C1230137BFF7A377956020E48
:1035EB00C0E4F523F524FE7F28FDFB7A0079251234
:1035FB000E320236B4BF0A083099FDC29975990D87
:10360B003099FDC2998F9922A2AF9201C2AF8F82DE
:10361B008E83E493FFA20192AF22021800000116E1
:10362B0000011500011700011AC800E0FEA3E0FF1E
:10363B00AD07EDFAEEFBAE02AF0322E4F5A9E5A967
:10364B005480648070F8223090063087037F00220C
:10365B007F0122D280D28112357CC28002357C431D
:10366B00B280E5B2544060FA22758E087589224308
:10367B0088502253C17F43C18053917F32E4F5A719
:10368B0053D9BFF5D92275A41375D4C32275A603DC
:10369B0075D63C2275E10575E3402275E68175A868
:1036AB0080227F007E680236D3750F31C2A52212AD
:1036BB003573D2802275D5F32243C18022439810F3
:1036CB002275EF022202354D0230EAD299220236E0
:1036DB000064656661756C742073657474696E67DC
:1036EB002077726974652066696E6973683A5B2529
:1036FB00645D0A0072656164206D69706920707287
:10370B0065706172653A2025640A007265616420F8
:10371B006D697069207A65726F3A2025640A0065BD
:10372B006570726F6D2073657474696E6720777244
:10373B0069746520646F6E650A0073746172745FDF
:10374B0073647265616D696E670A0073746F705F85
:10375B0073647265616D696E670A006164646939CF
:10376B003033365F7365745F776F726B5F6D6F6449
:10377B00655B25645D0A0061646469393033365FCB
:10378B007365745F776F726B5F72616E67655B25D4
:10379B00645D0A0073657420776472206D6F6465D5
:1037AB003A2025640A00776472206D6F64655B258F
:1037BB00645D3A5B25645D5B25645D0A007365742B
:1037CB0020776472206572726F72210A00776472BF
:1037DB00206D6F64655B25645D3A5B25645D5B25DD
:1037EB00645D5B25645D0A0061646469393033365E
:1037FB005F7365745F6C696E6561725F636F727224
:10380B006563745F76616C75655B25645D0A007238
:10381B00656164206C696E65617220636F7272659D
:10382B006374206572726F720A0061646469393067
:10383B0033365F7365745F6874705F76616C756542
:10384B003A5B25645D0A00726561642068747020C0
:10385B00656570726F6D206572726F722C20757357
:10386B00652064656661756C740A0061646469390E
:10387B003033365F7365745F74616C5F64656C6164
:10388B00795F76616C75653A5B25645D0A006164EE
:10389B006469393033365F7365745F74616C5F6470
:1038AB00656C61795F76616C75653A72616E67659F
:1038BB00205B25645D206973206E6F7420737570B7
:1038CB00706F72740A0061646469393033365F73E8
:1038DB0065745F70756C7365636E745B25645D20D6
:1038EB006F662072616E67655B25645D0A006164BB
:1038FB006469393033365F7365745F4C445B25788C
:10390B005D5B25785D0A0061646469393033365F2D
:10391B007365745F7468726573686F6C645B256440
:10392B005D206F662072616E67655B25645D0A00C2
:10393B0073657420676D6D206761696E5B25645DCF
:10394B00206F662072616E67652025640A006164D2
:10395B006469393033365F7365745F736C61766598
:10396B005F6D6F64653A5B25645D0A006164646931
:10397B00393033365F7365745F74616C5F6D6F6480
:10398B00653A5B25785D282578290A007261746594
:10399B002076616C7565206E6F7420616C6C6F772F
:1039AB0065642C73657420746F3A25640A00616436
:1039BB006469393033365F7365745F6672616D6548
:1039CB005F726174655B25645D206F662072616E4A
:1039DB0067655B25645D0A00616464693930333661
:1039EB005F7365745F736C6176655F747269675F33
:1039FB0064656C61790A0064656C61792076616C31
:103A0B003A2025640A0061646469393033365F7388
:103A1B0065745F6D6970695F6C616E653A25640AE8
:103A2B000061646469393033365F7365745F6D6947
:103A3B0070695F7A65726F5F76616C75653A256444
:103A4B000A0061646469393033365F7365745F6D86
:103A5B006970695F707265706172655F76616C75B4
:103A6B00653A25640A0073657420676D6D20656E79
:103A7B00207265673D25780A006FFF6F2F6E5F6DB3
:103A8B008F6CBF6BEF6B1F6A4F697F6FFF008E6F81
:103A9B00FE00016FFD00016FFC00046FFB00006F67
:103AAB00FA00006FF900006FF804006FF701226F46
:103ABB00F601096FF500F06FF400D76FF300BD6FDF
:103ACB00F2008B6FF100596FF000276FEFFFF56F6E
:103ADB00EEFFC36FEDFF916FECFF5E6FEBFF2C6F93
:103AEB00EAFEFA6FE9FEBD6FE8FE2A6FE7FD826F13
:103AFB00E6FCC26FE5FBFA6FE4FB276FE3FA536F4B
:103B0B00E2F97D6FE1F8A46FE0F7CF6FDFF6FD6FA1
:103B1B00DEF6326FDDF5706FDCF4B76FDBF40F6F31
:103B2B00DAF3676FD9F2CE6FD8F2456FD7F1E26F48
:103B3B00D6F17F6FD5F1426FD4F1326FD3F1336F82
:103B4B00D2F1406FD1F15A6FD0F1896FCFF1D46FB1
:103B5B00CEF23D6FCDF2CA6FCCF37D6FCBF4976F86
:103B6B00CAF5786FC9F6936FC8F7AF6FC7F7AF6F2A
:103B7B00C600006FC577776FC488886FC388886F5E
:103B8B00C299886FC199996FC099996FBF99996FB5
:103B9B00BE99996FBD88996FBC88886FBB88886FF9
:103BAB00BA77776FB900116FB800116FB700016F5B
:103BBB00B608016FB500016FB400036FB300036F5C
:103BCB00B2FF486FB100036FB0FEEE6FAF41626F93
:103BDB00AE54B26FAD416E6FAC54D66FAB41746FD8
:103BEB00AA54E86FA941806FA8550C6FA741866F47
:103BFB00A6551E6FA5418C6FA455306FA340CE6F99
:103C0B00A240E06FA140E66FA040F26F9F40F86FBB
:103C1B009E41046F9D68106F9C68106F9B68106FBE
:103C2B009A68106F9968106F9868106F9768106F8B
:103C3B009668106F9568106F9468106F9368106F8B
:103C4B009268106F9168106F9068106F8F68106F8B
:103C5B008E68106F8D68106F8C68106F8B54A46F0B
:103C6B008A54A56F8954A86F8854C86F8754C96F3D
:103C7B008654CC6F8554DA6F8454DB6F8354DE6FBC
:103C8B008254FE6F8154FF6F8055026F7F55106F0A
:103C9B007E55116F7D55146F7C55226F7B55236FAD
:103CAB007A55266F7968106F7868106F7768106F88
:103CBB007668106F7568106F7468106F7368106F8B
:103CCB007268106F7168106F7068106F6F68106F8B
:103CDB006E68106F6D68106F6C68106F6B68106F8B
:103CEB006A68106F6968106F6868106F6768106F8B
:103CFB006668106F6568106F6468106F6368106F8B
:103D0B006268106F6168106F6068106F5F68106F8A
:103D1B005E68106F5D68106F5C68106F5B68106F8A
:103D2B005A68106F5968106F5868106F5768106F8A
:103D3B005668106F5568106F5468106F5368106F8A
:103D4B005268106F5168106F5068106F4F00006F02
:103D5B004E064E6F4D00006F4C00006F4B00006F16
:103D6B004A00006F4900006F4800006F4700006F6A
:103D7B004600006F4500006F4400006F4300006F6A
:103D8B004200006F4100006F4000006F3F00006F6A
:103D9B003E000A6F3D00006F3C00006F3B01006F5F
:103DAB003A00016F3954806F3854816F3754846FE8
:103DBB003641566F35548E6F3440BC6F33012C6FC8
:103DCB003200006F3100006F3000006F2F00FA6F70
:103DDB002E00016F2D00006F2C00086F2B00006F61
:103DEB002A00006F2900006F2804006F2700006F66
:103DFB002600006F2500006F2400006F2300006F6A
:103E0B002200006F2100006F2000006F1F00006F69
:103E1B001E00006F1D00006F1C00006F1B00006F69
:103E2B001A00006F1900006F1800006F1700006F69
:103E3B001600006F1500006F1400006F1300006F69
:103E4B001200006F1100006F1000006F0F00006F69
:103E5B000E00006F0D00006F0C00006F0B00006F69
:103E6B000A00006F0900006F0800006F0700006F69
:103E7B000600006F0500006F0400006F0300006F69
:103E8B000200006F0100006F0000006EFF00006E6B
:103E9B00FE00006EFD00006EFC00006EFB00006E6D
:103EAB00FA00006EF900006EF800006EF700006E6D
:103EBB00F600006EF577776EF488886EF388886E5F
:103ECB00F299886EF199996EF099996EEF99996EB6
:103EDB00EE99996EED88996EEC88886EEB88886EFA
:103EEB00EA77776EE900116EE800116EE700016E5C
:103EFB00E608016EE500016EE400036EE300036E5D
:103F0B00E2FF486EE100036EE0FEEE6EDF427A6E7A
:103F1B00DE56286EDD42866EDC564C6EDB428C6EB6
:103F2B00DA565E6ED942986ED856826ED7429E6E26
:103F3B00D656946ED542A46ED456A66ED341E66E79
:103F4B00D241F86ED141FE6ED0420A6ECF42106E56
:103F5B00CE421C6ECD68106ECC68106ECB68106EA6
:103F6B00CA68106EC968106EC868106EC768106E8C
:103F7B00C668106EC568106EC468106EC368106E8C
:103F8B00C268106EC168106EC068106EBF68106E8C
:103F9B00BE68106EBD68106EBC68106EBB561A6E94
:103FAB00BA561B6EB9561E6EB8563E6EB7563F6E5E
:103FBB00B656426EB556506EB456516EB356546EDD
:103FCB00B256746EB156756EB056786EAF56866E2D
:103FDB00AE56876EAD568A6EAC56986EAB56996ED2
:103FEB00AA569C6EA968106EA868106EA768106E12
:103FFB00A668106EA568106EA468106EA368106E8C
:10400B00A268106EA168106EA068106E9F68106E8B
:10401B009E68106E9D68106E9C68106E9B68106E8B
:10402B009A68106E9968106E9868106E9768106E8B
:10403B009668106E9568106E9468106E9368106E8B
:10404B009268106E9168106E9068106E8F68106E8B
:10405B008E68106E8D68106E8C68106E8B68106E8B
:10406B008A68106E8968106E8868106E8768106E8B
:10407B008668106E8568106E8468106E8368106E8B
:10408B008268106E8168106E8068106E7F00006E03
:10409B007E00006E7D00006E7C00006E7B00006E6B
:1040AB007A00006E7900006E7800006E7700006E6B
:1040BB007600006E7500006E7400006E7300006E6B
:1040CB007200006E7100006E7000006E6F00006E6B
:1040DB006E01046E6D00006E6C00006E6B01006E65
:1040EB006A00016E6955F66E6855F76E6755FA6E84
:1040FB0066426E6E6556046E6441D46E63012C6E1F
:10410B006200006E6100006E6000006E5F01426E27
:10411B005E00016E5D00006E5C00006E5B00006E69
:10412B005A00006E5900006E5804006E5700006E66
:10413B005600006E5500006E5400006E5300006E6A
:10414B005200006E5100006E5000006E4F00006E6A
:10415B004E00006E4D00006E4C00006E4B00006E6A
:10416B004A00006E4900006E4800006E4700006E6A
:10417B004600006E4500006E4400006E4300006E6A
:10418B004200006E4100006E4000006E3F00006E6A
:10419B003E00006E3D00006E3C00006E3B00006E6A
:1041AB003A00006E3900006E3800006E3700006E6A
:1041BB003600006E3500006E3400006E3300006E6A
:1041CB003200006E3100006E3000006E2F00006E6A
:1041DB002E00006E2D00006E2C00006E2B00006E6A
:1041EB002A00006E2900006E2800006E2700006E6A
:1041FB002600006E2577776E2488886E2388886E5C
:10420B002299886E2199996E2099996E1F99996EB2
:10421B001E99996E1D88996E1C88886E1B88886EF6
:10422B001A77776E1900116E1800116E1700016E58
:10423B001608016E1500016E1400036E1300036E59
:10424B0012FF486E1100036E10FEEE6E0F43926E5E
:10425B000E579C6E0D439E6E0C57C06E0B43A46E97
:10426B000A57D26E0943B06E0857F66E0743B66E07
:10427B000658086E0543BC6E04581A6E0342FE6E58
:10428B000243106E0143166E0043226DFF43286DEF
:10429B00FE43346DFD68106DFC68106DFB68106D8E
:1042AB00FA68106DF968106DF868106DF768106D8D
:1042BB00F668106DF568106DF468106DF368106D8D
:1042CB00F268106DF168106DF068106DEF68106D8D
:1042DB00EE68106DED68106DEC68106DEB578E6D20
:1042EB00EA578F6DE957926DE857B26DE757B36D8B
:1042FB00E657B66DE557C46DE457C56DE357C86D0A
:10430B00E257E86DE157E96DE057EC6DDF57FA6D59
:10431B00DE57FB6DDD57FE6DDC580C6DDB580D6DFC
:10432B00DA58106DD968106DD868106DD768106D9C
:10433B00D668106DD568106DD468106DD368106D8C
:10434B00D268106DD168106DD068106DCF68106D8C
:10435B00CE68106DCD68106DCC68106DCB68106D8C
:10436B00CA68106DC968106DC868106DC768106D8C
:10437B00C668106DC568106DC468106DC368106D8C
:10438B00C268106DC168106DC068106DBF68106D8C
:10439B00BE68106DBD68106DBC68106DBB68106D8C
:1043AB00BA68106DB968106DB868106DB768106D8C
:1043BB00B668106DB568106DB468106DB368106D8C
:1043CB00B268106DB168106DB068106DAF00006D04
:1043DB00AE00006DAD00006DAC00006DAB00006D6C
:1043EB00AA00006DA900006DA800006DA700006D6C
:1043FB00A600006DA500006DA400006DA300006D6C
:10440B00A200006DA100006DA000006D9F00006D6B
:10441B009E01B86D9D00006D9C00006D9B01006DB1
:10442B009A00016D99576A6D98576B6D97576E6D22
:10443B009643866D9557786D9442EC6D93012C6D78
:10444B009200006D9100006D9000006D8F035C6D0C
:10445B008E00006D8D00006D8C00326D8B00006D39
:10446B008A00B06D89FFF16D8803A86D8700006D20
:10447B008600006D8500006D8400006D8300006D6B
:10448B008200006D8100006D8000006D7F00006D6B
:10449B007E00006D7D00006D7C00006D7B00006D6B
:1044AB007A00006D7900006D7800006D7700006D6B
:1044BB007600006D7500006D7400006D7300006D6B
:1044CB007200006D7100006D7000006D6F00006D6B
:1044DB006E00006D6D00006D6C00006D6B00006D6B
:1044EB006A00006D6900006D6800006D6700006D6B
:1044FB006600006D6500006D6400006D6300006D6B
:10450B006200006D6100006D6000006D5F00006D6A
:10451B005E00006D5D00006D5C00006D5B00006D6A
:10452B005A00006D5900006D5800006D5700006D6A
:10453B005600006D5577776D5488886D5388886D5C
:10454B005299886D5199996D5099996D4F99996DB3
:10455B004E99996D4D88996D4C88886D4B88886DF7
:10456B004A77776D4900116D4800116D4700016D59
:10457B004608016D4500016D4400036D4300036D5A
:10458B0042FF486D4100036D40FEEE6D3F44D06D20
:10459B003E59106D3D44E26D3C59466D3B44EE6D0A
:1045AB003A596A6D3945006D3859A06D37450C6D18
:1045BB003659C46D3545186D3459E86D3344166D55
:1045CB0032442E6D31443A6D30444C6D2F44586D4E
:1045DB002E446A6D2D44D66D2C59226D2B45066DDC
:1045EB002A59B26D29441C6D2844526D2744E86D3D
:1045FB002659586D2545126D2459D66D2344346DBB
:10460B0022445E6D2144F46D20597C6D1F451E6D57
:10461B001E59FA6D1D44406D1C44706D1B59026D83
:10462B001A59036D1959066D1859386D1759396D8B
:10463B0016593C6D15595C6D14595D6D1359606DB0
:10464B001259926D1159936D1059966D0F59B66D94
:10465B000E59B76D0D59BA6D0C59DA6D0B59DB6DDF
:10466B000A59DE6D0959146D0859156D0759186DE6
:10467B0006594A6D05594B6D04594E6D03596E6DB4
:10468B0002596F6D0159726D0059A46CFF59A56CDD
:10469B00FE59A86CFD59C86CFC59C96CFB59CC6C04
:1046AB00FA59EC6CF959ED6CF859F06CF768106C21
:1046BB00F668106CF568106CF468106CF368106C8D
:1046CB00F268106CF168106CF068106CEF68106C8D
:1046DB00EE68106CED68106CEC68106CEB68106C8D
:1046EB00EA68106CE968106CE868106CE768106C8D
:1046FB00E668106CE568106CE468106CE368106C8D
:10470B00E268106CE168106CE068106CDF00006C04
:10471B00DE00006CDD00006CDC00006CDB00006C6C
:10472B00DA00006CD900006CD800006CD700006C6C
:10473B00D602266CD502266CD402266CD3264A6C84
:10474B00D24C706CD14E726CD000006CCF00006CF0
:10475B00CE05286CCD05286CCC05286CCB01006CE4
:10476B00CA00016CC958DE6CC858DF6CC758E26CC4
:10477B00C644C46CC558EC6CC444046CC3012C6CAB
:10478B00C200006CC100006CC000006CBF00006C6C
:10479B00BE00006CBD00006CBC00506CBB00006C1C
:1047AB00BAFBE06CB9FFD36CB804396CB700006C82
:1047BB00B600006CB500006CB400006CB300006C6C
:1047CB00B200006CB100006CB000006CAF00006C6C
:1047DB00AE00006CAD00006CAC00006CAB00006C6C
:1047EB00AA00006CA900006CA800006CA700006C6C
:1047FB00A600006CA500006CA400006CA300006C6C
:10480B00A200006CA100006CA000006C9F00006C6B
:10481B009E00006C9D00006C9C00006C9B00006C6B
:10482B009A00006C9900006C9800006C9700006C6B
:10483B009600006C9500006C9400006C9300006C6B
:10484B009200006C9100006C9000006C8F00006C6B
:10485B008E00006C8D00006C8C00006C8B00006C6B
:10486B008A00006C8900006C8800006C8700006C6B
:10487B008600006C8577776C8488886C8388886C5D
:10488B008299886C8199996C8099996C7F99996CB4
:10489B007E99996C7D88996C7C88886C7B88886CF8
:1048AB007A77776C7900116C7800116C7700016C5A
:1048BB007608016C7500016C7400036C7300036C5B
:1048CB0072FF486C7100036C70FEEE6C6F46366CB9
:1048DB006E5AF46C6D46486C6C5B2A6C6B46546C70
:1048EB006A5B4E6C6946666C685B846C6746726C7F
:1048FB00665BA86C65467E6C645BCC6C63457C6CBC
:10490B006245946C6145A06C6045B26C5F45BE6CB2
:10491B005E45D06C5D463C6C5C5B066C5B466C6CC0
:10492B005A5B966C5945826C5845B86C57464E6C21
:10493B00565B3C6C5546786C545BBA6C53459A6C21
:10494B005245C46C51465A6C505B606C4F46846C3C
:10495B004E5BDE6C4D45A66C4C45D66C4B5AE66CEB
:10496B004A5AE76C495AEA6C485B1C6C475B1D6CF6
:10497B00465B206C455B406C445B416C435B446C19
:10498B00425B766C415B776C405B7A6C3F5B9A6CFD
:10499B003E5B9B6C3D5B9E6C3C5BBE6C3B5BBF6C48
:1049AB003A5BC26C395AF86C385AF96C375AFC6C52
:1049BB00365B2E6C355B2F6C345B326C335B526C1D
:1049CB00325B536C315B566C305B886C2F5B896C44
:1049DB002E5B8C6C2D5BAC6C2C5BAD6C2B5BB06C69
:1049EB002A5BD06C295BD16C285BD46C2768106C6C
:1049FB002668106C2568106C2468106C2368106C8A
:104A0B002268106C2168106C2068106C1F68106C89
:104A1B001E68106C1D68106C1C68106C1B68106C89
:104A2B001A68106C1968106C1868106C1768106C89
:104A3B001668106C1568106C1468106C1368106C89
:104A4B001268106C1168106C1068106C0F00006C01
:104A5B000E00006C0D00006C0C00006C0B00006C69
:104A6B000A00006C0900006C0800006C0700006C69
:104A7B000630306C0530306C0430306C0340026C07
:104A8B000272346C0173356C0000006BFF00006B1D
:104A9B00FE00006BFD00006BFC00006BFB01006B6C
:104AAB00FA00016BF95AC26BF85AC36BF75AC66B13
:104ABB00F6462A6BF55AD06BF4456A6BF3012C6BF7
:104ACB00F200006BF100006BF000006BEF00006B6D
:104ADB00EE00006BED00006BEC00006BEB00006B6D
:104AEB00EA00006BE900006BE804006BE700006B69
:104AFB00E600006BE500006BE400006BE300006B6D
:104B0B00E200006BE100006BE000006BDF00006B6C
:104B1B00DE00006BDD00006BDC00006BDB00006B6C
:104B2B00DA00006BD900006BD800006BD700006B6C
:104B3B00D600006BD500006BD400006BD300006B6C
:104B4B00D200006BD100006BD000006BCF00006B6C
:104B5B00CE00006BCD00006BCC00006BCB00006B6C
:104B6B00CA00006BC900006BC800006BC700006B6C
:104B7B00C600006BC500006BC400006BC300006B6C
:104B8B00C200006BC100006BC000006BBF00006B6C
:104B9B00BE00006BBD00006BBC00006BBB00006B6C
:104BAB00BA00006BB900006BB800006BB700006B6C
:104BBB00B600006BB577776BB488886BB388886B5E
:104BCB00B299886BB199996BB099996BAF99996BB5
:104BDB00AE99996BAD88996BAC88886BAB88886BF9
:104BEB00AA77776BA900116BA800116BA700016B5B
:104BFB00A608016BA500016BA400036BA300036B5C
:104C0B00A2FF486BA100036BA0FEEE6B9F47766B78
:104C1B009E5CD86B9D47826B9C5CFC6B9B47886B47
:104C2B009A5D0E6B9947946B985D326B97479A6BB5
:104C3B00965D446B9547A06B945D566B9346E26B08
:104C4B009246F46B9146FA6B9047066B8F470C6B51
:104C5B008E47186B8D68106B8C68106B8B68106BA4
:104C6B008A68106B8968106B8868106B8768106B8B
:104C7B008668106B8568106B8468106B8368106B8B
:104C8B008268106B8168106B8068106B7F68106B8B
:104C9B007E68106B7D68106B7C68106B7B5CCA6BDD
:104CAB007A5CCB6B795CCE6B785CEE6B775CEF6B85
:104CBB00765CF26B755D006B745D016B735D046B01
:104CCB00725D246B715D256B705D286B6F5D366B50
:104CDB006E5D376B6D5D3A6B6C5D486B6B5D496BF5
:104CEB006A5D4C6B6968106B6868106B6768106B5A
:104CFB006668106B6568106B6468106B6368106B8B
:104D0B006268106B6168106B6068106B5F68106B8A
:104D1B005E68106B5D68106B5C68106B5B68106B8A
:104D2B005A68106B5968106B5868106B5768106B8A
:104D3B005668106B5568106B5468106B5368106B8A
:104D4B005268106B5168106B5068106B4F68106B8A
:104D5B004E68106B4D68106B4C68106B4B68106B8A
:104D6B004A68106B4968106B4868106B4768106B8A
:104D7B004668106B4568106B4468106B4368106B8A
:104D8B004268106B4168106B4068106B3F00006B02
:104D9B003E00006B3D00006B3C00006B3B00006B6A
:104DAB003A00006B3900006B3800006B3700006B6A
:104DBB003600006B3500006B3400006B3300006B6A
:104DCB003200006B3100006B3000006B2F00006B6A
:104DDB002E00006B2D00006B2C00006B2B01006B69
:104DEB002A00016B295CA66B285CA76B275CAA6B5E
:104DFB0026476A6B255CB46B2446D06B23012C6B66
:104E0B002200006B2100006B2000006B1F00006B69
:104E1B001E00006B1D00006B1C00006B1B00006B69
:104E2B001A00006B1900006B1804006B1700006B65
:104E3B001600006B1500006B1400006B1300006B69
:104E4B001200006B1100006B1000006B0F00006B69
:104E5B000E00006B0D00006B0C00006B0B00006B69
:104E6B000A00006B0900006B0800006B0700006B69
:104E7B000600006B0500006B0400006B0300006B69
:104E8B000200006B0100006B0000006AFF00006A6B
:104E9B00FE00006AFD00006AFC00006AFB00006A6D
:104EAB00FA00006AF900006AF800006AF700006A6D
:104EBB00F600006AF500006AF400006AF300006A6D
:104ECB00F200006AF100006AF000006AEF00006A6D
:104EDB00EE00006AED00006AEC00006AEB00006A6D
:104EEB00EA00006AE900006AE800006AE700006A6D
:104EFB00E600006AE577776AE488886AE388886A5F
:104F0B00E299886AE199996AE099996ADF99996AB5
:104F1B00DE99996ADD88996ADC88886ADB88886AF9
:104F2B00DA77776AD900116AD800116AD700016A5B
:104F3B00D608036AD500016AD400036AD300036A5A
:104F4B00D2FF486AD100036AD0FEEE6ACF488E6A60
:104F5B00CE5E4C6ACD489A6ACC5E706ACB48A06A2A
:104F6B00CA5E826AC948AC6AC85EA66AC748B26A9A
:104F7B00C65EB86AC548B86AC45ECA6AC347FA6AED
:104F8B00C2480C6AC148126AC0481E6ABF48246AEC
:104F9B00BE48306ABD68106ABC68106ABB68106A8C
:104FAB00BA68106AB968106AB868106AB768106A8C
:104FBB00B668106AB568106AB468106AB368106A8C
:104FCB00B268106AB168106AB068106AAF68106A8C
:104FDB00AE68106AAD68106AAC68106AAB5E3E6A68
:104FEB00AA5E3F6AA95E426AA85E626AA75E636AAE
:104FFB00A65E666AA55E746AA45E756AA35E786A2D
:10500B00A25E986AA15E996AA05E9C6A9F5EAA6A7C
:10501B009E5EAB6A9D5EAE6A9C5EBC6A9B5EBD6A21
:10502B009A5EC06A9968106A9868106A9768106AE5
:10503B009668106A9568106A9468106A9368106A8B
:10504B009268106A9168106A9068106A8F68106A8B
:10505B008E68106A8D68106A8C68106A8B68106A8B
:10506B008A68106A8968106A8868106A8768106A8B
:10507B008668106A8568106A8468106A8368106A8B
:10508B008268106A8168106A8068106A7F68106A8B
:10509B007E68106A7D68106A7C68106A7B68106A8B
:1050AB007A68106A7968106A7868106A7768106A8B
:1050BB007668106A7568106A7468106A7368106A8B
:1050CB007268106A7168106A7068106A6F00006A03
:1050DB006E00006A6D00006A6C00006A6B00006A6B
:1050EB006A00006A6900006A6800006A6700006A6B
:1050FB006600006A6500006A6400006A6300006A6B
:10510B006200006A6100006A6000006A5F00006A6A
:10511B005E00006A5D00006A5C00006A5B01006A69
:10512B005A00016A595E1A6A585E1B6A575E1E6AFC
:10513B005648826A555E286A5447E86A53012C6ABE
:10514B005200006A5100006A5000006A4F00006A6A
:10515B004E00006A4D00006A4C00006A4B00006A6A
:10516B004A00006A4900006A4804006A4700006A66
:10517B004600006A4500006A4400006A4300006A6A
:10518B004200006A4100006A4000006A3F00006A6A
:10519B003E00006A3D00006A3C00006A3B00006A6A
:1051AB003A00006A3900006A3800006A3700006A6A
:1051BB003600006A3500006A3400006A3300006A6A
:1051CB003200006A3100006A3000006A2F00006A6A
:1051DB002E00006A2D00006A2C00006A2B00006A6A
:1051EB002A00006A2900006A2800006A2700006A6A
:1051FB002600006A2500006A2400006A2300006A6A
:10520B002200006A2100006A2000006A1F00006A69
:10521B001E00006A1D00006A1C00006A1B00006A69
:10522B001A00006A1900006A1800006A1700006A69
:10523B001600006A1577776A1488886A1388886A5B
:10524B001299886A1199996A1099996A0F99996AB2
:10525B000E99996A0D88996A0C88886A0B88886AF6
:10526B000A77776A0900116A0800116A0700016A58
:10527B000608036A0500016A0400036A0300036A57
:10528B0002FF486A0100036A00FEEE69FF49A66946
:10529B00FE5FC069FD49B269FC5FE469FB49B8690F
:1052AB00FA5FF669F949C469F8601A69F749CA697E
:1052BB00F6602C69F549D069F4603E69F3491269CF
:1052CB00F2492469F1492A69F0493669EF493C6989
:1052DB00EE494869ED681069EC681069EB68106974
:1052EB00EA681069E9681069E8681069E76810698D
:1052FB00E6681069E5681069E4681069E36810698D
:10530B00E2681069E1681069E0681069DF6810698C
:10531B00DE681069DD681069DC681069DB5FB269F3
:10532B00DA5FB369D95FB669D85FD669D75FD769DA
:10533B00D65FDA69D55FE869D45FE969D35FEC6959
:10534B00D2600C69D1600D69D0601069CF601E69A5
:10535B00CE601F69CD602269CC603069CB6031694A
:10536B00CA603469C9681069C8681069C768106970
:10537B00C6681069C5681069C4681069C36810698C
:10538B00C2681069C1681069C0681069BF6810698C
:10539B00BE681069BD681069BC681069BB6810698C
:1053AB00BA681069B9681069B8681069B76810698C
:1053BB00B6681069B5681069B4681069B36810698C
:1053CB00B2681069B1681069B0681069AF6810698C
:1053DB00AE681069AD681069AC681069AB6810698C
:1053EB00AA681069A9681069A8681069A76810698C
:1053FB00A6681069A5681069A4681069A36810698C
:10540B00A2681069A1681069A06810699F00006903
:10541B009E0000699D0000699C0000699B0000696B
:10542B009A0000699900006998000069970000696B
:10543B00960000699500006994000069930000696B
:10544B009200006991000069900000698F0000696B
:10545B008E0000698D0000698C0000698B0100696A
:10546B008A000169895F8E69885F8F69875F92699E
:10547B0086499A69855F9C698449006983012C6917
:10548B008200006981000069800000697F0000696B
:10549B007E0000697D0000697C0028697B00006943
:1054AB007AFEB06979000069780440697700006979
:1054BB00760000697500006974000069730000696B
:1054CB007200006971000069700000696F0000696B
:1054DB006E0000696D0000696C0000696B0000696B
:1054EB006A0000696900006968000069670000696B
:1054FB00660000696500006964000069630000696B
:10550B006200006961000069600000695F0000696A
:10551B005E0000695D0000695C0000695B0000696A
:10552B005A0000695900006958000069570000696A
:10553B00560000695500006954000069530000696A
:10554B005200006951000069500000694F0000696A
:10555B004E0000694D0000694C0000694B0000696A
:10556B004A0000694900006948000069470000696A
:10557B00460000694577776944888869438888695C
:10558B004299886941999969409999693F999969B3
:10559B003E9999693D8899693C8888693B888869F7
:1055AB003A77776939001169380011693700016959
:1055BB00360801693500016934000369330003695A
:1055CB0032FF48693100036930FEEE692F49A66945
:1055DB002E5FC0692D49B2692C5FE4692B49B8690C
:1055EB002A5FF6692949C46928601A692749CA697B
:1055FB0026602C692549D06924603E6923491269CC
:10560B002249246921492A69204936691F493C6985
:10561B001E4948691D6810691C6810691B68106970
:10562B001A68106919681069186810691768106989
:10563B001668106915681069146810691368106989
:10564B001268106911681069106810690F68106989
:10565B000E6810690D6810690C6810690B5FB269F0
:10566B000A5FB369095FB669085FD669075FD769D7
:10567B00065FDA69055FE869045FE969035FEC6956
:10568B0002600C6901600D6900601068FF601E68A4
:10569B00FE601F68FD602268FC603068FB6031684B
:1056AB00FA603468F9681068F8681068F768106871
:1056BB00F6681068F5681068F4681068F36810688D
:1056CB00F2681068F1681068F0681068EF6810688D
:1056DB00EE681068ED681068EC681068EB6810688D
:1056EB00EA681068E9681068E8681068E76810688D
:1056FB00E6681068E5681068E4681068E36810688D
:10570B00E2681068E1681068E0681068DF6810688C
:10571B00DE681068DD681068DC681068DB6810688C
:10572B00DA681068D9681068D8681068D76810688C
:10573B00D6681068D5681068D4681068D36810688C
:10574B00D2681068D1681068D0681068CF00006804
:10575B00CE000068CD000068CC000068CB0000686C
:10576B00CA000068C9000068C8000068C70000686C
:10577B00C6000068C5000068C4000068C30000686C
:10578B00C2000068C1000068C0000068BF0000686C
:10579B00BE000068BD000068BC000068BB0100686B
:1057AB00BA000168B95F8E68B85F8F68B75F92689F
:1057BB00B6499A68B55F9C68B4490068B3012C6818
:1057CB00B2000068B1000068B00000680100056815
:1057DB00000000C4230000C0310001C0200007C03E
:1057EB00210000C020015700000001C72019000054
:1057FB00000001C0300001C0270003C0250001C01C
:10580B001C0400C0000001C0010002C002000FC058
:10581B000301ECC0230001C0240FF2C0260001C01D
:10582B004F000CC0500011C0510000C055FFFFC00D
:10583B0056FFFFC057FFFFC058FFFFC05D0044C0BD
:10584B005E0044C0384000C0394000C03A0040C040
:10585B003B0040C0400040C0410040C0426040C0DF
:10586B00436040C0880000C0890000C08A00FFC0B0
:10587B008B0000C08F0000C0A44444C0A54444C0AA
:10588B00A60044C0E00002C0446303C0460043C00E
:10589B002D0000C02C0001C01B114000000001C0F6
:1058AB008C0010C08D0003C0A90002C0900038C04E
:1058BB00910040C0920038C0930040C0940038C0A3
:1058CB00950040C0960038C0970040C0980040C07B
:1058DB0099004FC4C40000C4000082C4AA0001C4D4
:1058EB00010004C4020003C4030004C4040003C485
:1058FB00050002C4060003C4070009C4080003C462
:10590B001E0080C4D400C2C4C40002C4F00000C492
:10591B00DF00B0C4E2000700000001C4DF0000C4D8
:10592B00E20006C4E20002C4D3001FC4310082C4EB
:10593B00D40042C4D400C2C4DA0001C437001EC470
:10594B0036002D00000001C400000200000001C45D
:10595B0031008000000001C49C0040C49E0001C4C3
:10596B00C10000C4C40000C4C700390000000154CA
:10597B002000025421105354221054542302025479
:10598B00240212542510B154260000542700005451
:10599B0028000054290000542A0000542B00005406
:1059AB002C0000542DFFFF542E0000542F000054E8
:1059BB0030000054310000543210B2543302025400
:1059CB0034004D5435000054360200543710B35494
:1059DB0038000054390000543A0000543B00005486
:1059EB003C0000543D0000543E0000543FFFFF5468
:1059FB004000005441000054420000544300005446
:105A0B004410B4544502025446003354470000542A
:105A1B00480A06544910B5544A0000544B00005430
:105A2B004C0000544D0000544E0000544F000054E5
:105A3B005000005451FFFF545200005453000054C7
:105A4B0054000054550000545610B65457020254DB
:105A5B005802F05459004B545A0206545B10B75479
:105A6B005C0000545D0000545E0000545F00005465
:105A7B0060000054610000546200005463FFFF5447
:105A8B006400005465000054660000546700005425
:105A9B006810B854690202546A000A546B0000542F
:105AAB006C0210546D106F546E0000546F00005454
:105ABB007000005471000054727F00547300005446
:105ACB007400005475FFFF547600005477000054A7
:105ADB0078000054790000547A1070547B02025401
:105AEB007C0020547D0000547E0A00547F105B54D0
:105AFB008040405481404054824040548340405445
:105B0B0084400A54850000548600005487FFFF54DC
:105B1B0088000054890000548A0000548B00005404
:105B2B008C105D548D0303548E03E8548F0057542F
:105B3B009002005491108D54920000549300005425
:105B4B0094000054950000549600005497000054A4
:105B5B009800005499FFFF549A0000549B00005486
:105B6B009C0000549D0000549E108E549F020254C2
:105B7B00A0002054A1000054A20A4054A3105B546F
:105B8B00A4404054A5404054A6404054A740405424
:105B9B00A8400A54A9000054AA000054ABFFFF54BC
:105BAB00AC000054AD000054AE000054AF000054E4
:105BBB00B0105D54B1030354B203E854B300535413
:105BCB00B4020054B5105554B6000054B70000543D
:105BDB00B8000054B9000054BA000054BB00005484
:105BEB00BC000054BDFFFF54BE000054BF00005466
:105BFB00C0000054C1000054C2105654C3020254DA
:105C0B00C4005154C5000054C60A0054C7105F5459
:105C1B00C8404054C9404054CA404054CB40405403
:105C2B00CC401E54CD000054CE000054CFFFFF5487
:105C3B00D0000054D1000054D2000054D3000054C3
:105C4B00D4106254D5050554D603E854D7005254EA
:105C5B00D80A0054D9106554DA000054DB00005404
:105C6B00DC000054DD000054DE403E54DF000054E5
:105C7B00E0000054E1FFFF54E2000054E300005445
:105C8B00E4000054E5000054E6106754E7030354A6
:105C9B00E803E854E9005354EA060054EB10575458
:105CAB00EC000054ED000054EE000054EF000054E3
:105CBB00F0000054F1000054F2000054F3FFFF54C5
:105CCB00F4000054F5000054F6000054F7000054A3
:105CDB00F8105854F9020254FA000B54FB005154BB
:105CEB00FC0A0054FD105B54FE404054FF404055ED
:105CFB00004040550140405502400A5503000055F5
:105D0B000400005505FFFF55060000550700005520
:105D1B0008000055090000550A105D550B0303558B
:105D2B000C03E8550D0055550E0A00550F105F5525
:105D3B0010404055114040551240405513404055BE
:105D4B0014401E55150000551600005517FFFF5542
:105D5B0018000055190000551A0000551B0000557E
:105D6B001C1062551D0505551E03E8551F005455A3
:105D7B00200A1055211065552200005523000055AF
:105D8B00240000552500005526403E5527000055A0
:105D9B002800005529FFFF552A0000552B00005500
:105DAB002C0000552D0000552E1067552F03035561
:105DBB003003E85531005555320200553310595513
:105DCB00340000553500005536000055370000559E
:105DDB00387F0055390000553A0000553BFFFF5501
:105DEB003C0000553D0000553E0000553F0000555E
:105DFB0040105A554102025542004455430000558C
:105E0B004402005545106B554600005547000055A0
:105E1B0048000055490000554A0000554B000055FD
:105E2B004C0000554DFFFF554E0000554F000055DF
:105E3B00500000555100005552106C55530202553D
:105E4B0054002055550000555606485557106955B6
:105E5B0058000055590000555A0000555B0000557D
:105E6B005C0000555D0000555E0000555FFFFF555F
:105E7B00600000556100005562000055630000553D
:105E8B0064106A55650202556602F055670020558D
:105E9B006802005569106D556A0000556B0000557E
:105EAB006C0000556D0000556E0000556F000055DD
:105EBB007000005571FFFF557200005573000055BF
:105ECB00740000557500005576106E55770202551B
:105EDB0078002055790000557A0210557B106955D2
:105EEB007C0000557D0000557E0000557F0000555D
:105EFB0080000055810000558200005583FFFF553F
:105F0B00840000558500005586000055870000551C
:105F1B0088106A55890202558A0020558B0000555E
:105F2B008CFFB6558DFFFF558EACB5558F9AA3558B
:105F3B009088915591767F5592646D55935B6D5515
:105F4B009449525595406D5596376D5597252E555D
:105F5B0098131C5599FF0A559A0212559B10B1556F
:105F6B009C0000559D0000559E0000559F0000555C
:105F7B00A0000055A1000055A2000055A3FFFF553E
:105F8B00A4000055A5000055A6000055A70000551C
:105F9B00A810B255A9020255AA004D55AB000055E9
:105FAB00AC020055AD10B355AE000055AF00005517
:105FBB00B0000055B1000055B2000055B3000055BC
:105FCB00B4000055B5FFFF55B6000055B70000559E
:105FDB00B8000055B9000055BA10B455BB020255B4
:105FEB00BC003355BD000055BE0A0655BF10B55554
:105FFB00C0000055C1000055C2000055C30000553C
:10600B00C4000055C5000055C6000055C7FFFF551D
:10601B00C8000055C9000055CA000055CB000055FB
:10602B00CC10B655CD020255CE02F055CF004B55D4
:10603B00D0020655D110B755D2000055D3000055EC
:10604B00D4000055D5000055D6000055D70000559B
:10605B00D8000055D9FFFF55DA000055DB0000557D
:10606B00DC000055DD000055DE10B855DF0202558F
:10607B00E0000A55E1000055E2021055E3106F55A0
:10608B00E4000055E5000055E6000055E70000551B
:10609B00E87F0055E9000055EA000055EBFFFF557E
:1060AB00EC000055ED000055EE000055EF000055DB
:1060BB00F0107055F1020255F2002055F300005517
:1060CB00F40A0055F5105B55F6404055F740405526
:1060DB00F8404055F9404055FA400A55FB00005531
:1060EB00FC000055FDFFFF55FE000055FF0000565C
:1060FB00000000560100005602105D5603030356C4
:10610B000403E856050057560602005607108D5635
:10611B0008000056090000560A0000560B000056F6
:10612B000C0000560D0000560E0000560FFFFF56D8
:10613B0010000056110000561200005613000056B6
:10614B0014108E56150202561600205617000056D4
:10615B00180A405619105B561A4040561B404056C1
:10616B001C4040561D4040561E400A561F0000560C
:10617B002000005621FFFF56220000562300005638
:10618B00240000562500005626105D5627030356A3
:10619B002803E856290053562A0200562B10555651
:1061AB002C0000562D0000562E0000562F000056D6
:1061BB0030000056310000563200005633FFFF56B8
:1061CB003400005635000056360000563700005696
:1061DB0038105656390202563A0051563B000056BB
:1061EB003C0A00563D105F563E4040563F404056DD
:1061FB00404040564140405642401E5643000056D8
:10620B004400005645FFFF56460000564700005617
:10621B0048000056490000564A1062564B05055679
:10622B004C03E8564D0052564E0A00564F10655619
:10623B0050000056510000565200005653000056B5
:10624B0054403E56550000565600005657FFFF5619
:10625B0058000056590000565A0000565B00005675
:10626B005C1067565D0303565E03E8565F0053569A
:10627B0060060056611057566200005663000056C8
:10628B006400005665000056660000566700005615
:10629B006800005669FFFF566A0000566B000056F7
:1062AB006C0000566D0000566E1058566F02025669
:1062BB0070000B5671005156720A005673105B56E4
:1062CB007440405675404056764040567740405695
:1062DB0078400A56790000567A0000567BFFFF562D
:1062EB007C0000567D0000567E0000567F00005655
:1062FB0080105D56810303568203E8568300555682
:10630B00840A005685105F5686404056874040569B
:10631B0088404056894040568A401E568B00005696
:10632B008C0000568DFFFF568E0000568F000056D6
:10633B009000005691000056921062569305055638
:10634B009403E85695005456960A105697106556C6
:10635B0098000056990000569A0000569B00005674
:10636B009C403E569D0000569E0000569FFFFF56D8
:10637B00A0000056A1000056A2000056A300005634
:10638B00A4106756A5030356A603E856A700555657
:10639B00A8020056A9105956AA000056AB00005689
:1063AB00AC000056AD000056AE7F0056AF00005655
:1063BB00B0000056B1FFFF56B2000056B3000056B6
:1063CB00B4000056B5000056B6105A56B702025626
:1063DB00B8004456B9000056BA020056BB106B56B3
:1063EB00BC000056BD000056BE000056BF00005654
:1063FB00C0000056C1000056C2000056C3FFFF5636
:10640B00C4000056C5000056C6000056C700005613
:10641B00C8106C56C9020256CA002056CB00005653
:10642B00CC064856CD106956CE000056CF0000560C
:10643B00D0000056D1000056D2000056D3000056B3
:10644B00D4000056D5FFFF56D6000056D700005695
:10645B00D8000056D9000056DA106A56DB020256F5
:10646B00DC02F056DD002056DE020056DF106D56C2
:10647B00E0000056E1000056E2000056E300005633
:10648B00E4000056E5000056E6000056E7FFFF5615
:10649B00E8000056E9000056EA000056EB000056F3
:1064AB00EC106E56ED020256EE002056EF00005631
:1064BB00F0021056F1106956F2000056F300005628
:1064CB00F4000056F5000056F6000056F700005693
:1064DB00F8000056F9FFFF56FA000056FB00005675
:1064EB00FC000056FD000056FE106A56FF020257D4
:1064FB00000020570100005702ABB4570399A25775
:10650B000487905705757E5706636C57075A6C576F
:10651B0008485157093F6C570A366C570B242D57B7
:10652B000C121B570DFF09570E0212570F10B157C4
:10653B0010000057110000571200005713000057AE
:10654B0014000057150000571600005717FFFF5790
:10655B0018000057190000571A0000571B0000576E
:10656B001C10B2571D0202571E004D571F0000573B
:10657B00200200572110B357220000572300005769
:10658B00240000572500005726000057270000570E
:10659B002800005729FFFF572A0000572B000057F0
:1065AB002C0000572D0000572E10B4572F02025706
:1065BB003000335731000057320A06573310B557A6
:1065CB00340000573500005736000057370000578E
:1065DB0038000057390000573A0000573BFFFF5770
:1065EB003C0000573D0000573E0000573F0000574E
:1065FB004010B657410202574202F05743004B5727
:10660B00440206574510B75746000057470000573E
:10661B0048000057490000574A0000574B000057ED
:10662B004C0000574DFFFF574E0000574F000057CF
:10663B0050000057510000575210B85753020257E1
:10664B0054000A57550000575602105757106F57F2
:10665B0058000057590000575A0000575B0000576D
:10666B005C7F00575D0000575E0000575FFFFF57D0
:10667B00600000576100005762000057630000572D
:10668B006410705765020257660020576700005769
:10669B00680A005769105B576A4040576B40405778
:1066AB006C4040576D4040576E400A576F00005783
:1066BB007000005771FFFF577200005773000057AF
:1066CB00740000577500005776105D57770303571A
:1066DB007803E857790057577A0200577B108D578C
:1066EB007C0000577D0000577E0000577F0000574D
:1066FB0080000057810000578200005783FFFF572F
:10670B00840000578500005786000057870000570C
:10671B0088108E57890202578A0020578B0000572A
:10672B008C0A40578D105B578E4040578F40405717
:10673B00904040579140405792400A579300005762
:10674B009400005795FFFF5796000057970000578E
:10675B0098000057990000579A105D579B030357F9
:10676B009C03E8579D0053579E0200579F105557A7
:10677B00A0000057A1000057A2000057A30000572C
:10678B00A4000057A5000057A6000057A7FFFF570E
:10679B00A8000057A9000057AA000057AB000057EC
:1067AB00AC105657AD020257AE005157AF00005711
:1067BB00B00A0057B1105F57B2404057B340405733
:1067CB00B4404057B5404057B6401E57B70000572E
:1067DB00B8000057B9FFFF57BA000057BB0000576E
:1067EB00BC000057BD000057BE106257BF050557D0
:1067FB00C003E857C1005257C20A0057C310655770
:10680B00C4000057C5000057C6000057C70000570B
:10681B00C8403E57C9000057CA000057CBFFFF576F
:10682B00CC000057CD000057CE000057CF000057CB
:10683B00D0106757D1030357D203E857D3005357F0
:10684B00D4060057D5105757D6000057D70000571E
:10685B00D8000057D9000057DA000057DB0000576B
:10686B00DC000057DDFFFF57DE000057DF0000574D
:10687B00E0000057E1000057E2105857E3020257BF
:10688B00E4000B57E5005157E60A0057E7105B573A
:10689B00E8404057E9404057EA404057EB404057EB
:1068AB00EC400A57ED000057EE000057EFFFFF5783
:1068BB00F0000057F1000057F2000057F3000057AB
:1068CB00F4105D57F5030357F603E857F7005557D8
:1068DB00F80A0057F9105F57FA404057FB404057F2
:1068EB00FC404057FD404057FE401E57FF000058EC
:1068FB000000005801FFFF58020000580300005829
:10690B00040000580500005806106258070505588A
:10691B000803E858090054580A0A10580B10655818
:10692B000C0000580D0000580E0000580F000058C6
:10693B0010403E58110000581200005813FFFF582A
:10694B001400005815000058160000581700005886
:10695B0018106758190303581A03E8581B005558A9
:10696B001C0200581D1059581E0000581F000058DB
:10697B002000005821000058227F005823000058A7
:10698B002400005825FFFF58260000582700005808
:10699B0028000058290000582A105A582B02025878
:1069AB002C0044582D0000582E0200582F106B5805
:1069BB0030000058310000583200005833000058A6
:1069CB0034000058350000583600005837FFFF5888
:1069DB0038000058390000583A0000583B00005866
:1069EB003C106C583D0202583E0020583F000058A6
:1069FB00400648584110695842000058430000585F
:106A0B004400005845000058460000584700005805
:106A1B004800005849FFFF584A0000584B000058E7
:106A2B004C0000584D0000584E106A584F02025847
:106A3B005002F058510020585202005853106D5814
:106A4B005400005855000058560000585700005885
:106A5B0058000058590000585A0000585BFFFF5867
:106A6B005C0000585D0000585E0000585F00005845
:106A7B0060106E5861020258620020586300005883
:106A8B00640210586510695866000058670000587A
:106A9B0068000058690000586A0000586B000058E5
:106AAB006C0000586DFFFF586E0000586F000058C7
:106ABB00700000587100005872106A587302025827
:106ACB00740020587500005876ABB4587799A258CB
:106ADB007887905879757E587A636C587B5A6C58C6
:106AEB007C4851587D3F6C587E366C587F242D580E
:106AFB0080121B5881FF0958820212588310B1581B
:106B0B008400005885000058860000588700005804
:106B1B0088000058890000588A0000588BFFFF58E6
:106B2B008C0000588D0000588E0000588F000058C4
:106B3B009010B2589102025892004D589300005891
:106B4B00940200589510B3589600005897000058BF
:106B5B0098000058990000589A0000589B00005864
:106B6B009C0000589DFFFF589E0000589F00005846
:106B7B00A0000058A1000058A210B458A30202585C
:106B8B00A4003358A5000058A60A0658A710B558FC
:106B9B00A8000058A9000058AA000058AB000058E4
:106BAB00AC000058AD000058AE000058AFFFFF58C6
:106BBB00B0000058B1000058B2000058B3000058A4
:106BCB00B410B658B5020258B602F058B7004B587D
:106BDB00B8020658B910B758BA000058BB00005895
:106BEB00BC000058BD000058BE000058BF00005844
:106BFB00C0000058C1FFFF58C2000058C300005826
:106C0B00C4000058C5000058C610B858C702025837
:106C1B00C8000A58C9000058CA021058CB106F5848
:106C2B00CC000058CD000058CE000058CF000058C3
:106C3B00D07F0058D1000058D2000058D3FFFF5826
:106C4B00D4000058D5000058D6000058D700005883
:106C5B00D8107058D9020258DA002058DB000058BF
:106C6B00DC0A0058DD109958DE204458DF204458C8
:106C7B00E0204458E1204458E2254958E3000058ED
:106C8B00E4000058E5FFFF58E6000058E700005805
:106C9B00E8000058E9000058EA109B58EB03035832
:106CAB00EC03E858ED005058EE020058EF108D58E9
:106CBB00F0000058F1000058F2000058F3000058A3
:106CCB00F4000058F5000058F6000058F7FFFF5885
:106CDB00F8000058F9000058FA000058FB00005863
:106CEB00FC108E58FD020258FE002058FF00005980
:106CFB00000A405901109959022044590320445964
:106D0B0004204459052044590625495907000059C8
:106D1B000800005909FFFF590A0000590B000059E0
:106D2B000C0000590D0000590E109B590F0303590D
:106D3B001003E85911005159120A065913108F59B3
:106D4B00140000591500005916000059170000597E
:106D5B0018264A59190000591A0000591BFFFF59F0
:106D6B001C0000591D0000591E0000591F0000593E
:106D7B0020109159210303592203E859230052593A
:106D8B002402005925105559260000592700005997
:106D9B0028000059290000592A0000592B000059DE
:106DAB002C0000592DFFFF592E0000592F000059C0
:106DBB003000005931000059321056593302025934
:106DCB003400515935000059360A005937109D5976
:106DDB0038204459392044593A2044593B204459CE
:106DEB003C0125593D0000593E0000593FFFFF591A
:106DFB00400000594100005942000059430000591E
:106E0B004410A059450505594603E8594700535905
:106E1B00480A0659491093594A0226594B022659DA
:106E2B004C0226594D0226594E264A594F000059FD
:106E3B005000005951FFFF5952000059530000599F
:106E4B0054000059550000595610965957050559CD
:106E5B005803E859590054595A0A00595B10A35961
:106E6B005C0000595D0000595E0000595F0000593D
:106E7B0060204459610000596200005963FFFF59BB
:106E8B0064000059650000596600005967000059FD
:106E9B006810A559690303596A03E8596B005559E2
:106EAB006C0A06596D1093596E0226596F022659BA
:106EBB00700226597102265972264A5973000059DD
:106ECB007400005975FFFF5976000059770000597F
:106EDB0078000059790000597A1096597B050559AD
:106EEB007C03E8597D0056597E0600597F1057598F
:106EFB00800000598100005982000059830000591D
:106F0B0084000059850000598600005987FFFF59FE
:106F1B0088000059890000598A0000598B000059DC
:106F2B008C1058598D0202598E000B598F005159F4
:106F3B00900A005991109959922044599320445921
:106F4B009420445995204459962549599700005946
:106F5B009800005999FFFF599A0000599B0000595E
:106F6B009C0000599D0000599E109B599F0303598B
:106F7B00A003E859A1005759A20A0659A3108F592B
:106F8B00A4000059A5000059A6000059A7000059FC
:106F9B00A8264A59A9000059AA000059ABFFFF596E
:106FAB00AC000059AD000059AE000059AF000059BC
:106FBB00B0109159B1030359B203E859B3005859B2
:106FCB00B40A0059B5109D59B6204459B7204459FD
:106FDB00B8204459B9204459BA012559BB0000596E
:106FEB00BC000059BDFFFF59BE000059BF0000593E
:106FFB00C0000059C1000059C210A059C305055962
:10700B00C403E859C5005959C60A0659C710935904
:10701B00C8022659C9022659CA022659CB0226593B
:10702B00CC264A59CD000059CE000059CFFFFF594D
:10703B00D0000059D1000059D2000059D30000599B
:10704B00D4109659D5050559D603E859D7005A5986
:10705B00D80A1059D910A359DA000059DB0000598E
:10706B00DC000059DD000059DE204459DF000059D7
:10707B00E0000059E1FFFF59E2000059E30000591D
:10708B00E4000059E5000059E610A559E703035940
:10709B00E803E859E9005B59EA0A0659EB109359E2
:1070AB00EC022659ED022659EE022659EF0226591B
:1070BB00F0264A59F1000059F2000059F3FFFF592D
:1070CB00F4000059F5000059F6000059F70000597B
:1070DB00F8109659F9050559FA03E859FB005C5964
:1070EB00FC020059FD105959FE000059FF00005ACF
:1070FB000000005A0100005A027F005A0300005A98
:10710B000400005A05FFFF5A0600005A0700005AF8
:10711B000800005A0900005A0A105A5A0B02025A68
:10712B000C00445A0D00005A0E02005A0F106B5AF5
:10713B001000005A1100005A1200005A1300005A96
:10714B001400005A1500005A1600005A17FFFF5A78
:10715B001800005A1900005A1A00005A1B00005A56
:10716B001C106C5A1D02025A1E00205A1F00005A96
:10717B002006485A2110695A2200005A2300005A4F
:10718B002400005A2500005A2600005A2700005AF6
:10719B002800005A29FFFF5A2A00005A2B00005AD8
:1071AB002C00005A2D00005A2E106A5A2F02025A38
:1071BB003002F05A3100205A3202005A33106D5A05
:1071CB003400005A3500005A3600005A3700005A76
:1071DB003800005A3900005A3A00005A3BFFFF5A58
:1071EB003C00005A3D00005A3E00005A3F00005A36
:1071FB0040106E5A4102025A4200205A4300005A74
:10720B004402105A4510695A4600005A4700005A6A
:10721B004800005A4900005A4A00005A4B00005AD5
:10722B004C00005A4DFFFF5A4E00005A4F00005AB7
:10723B005000005A5100005A52106A5A5302025A17
:10724B005400205A5500005A56E1EA5A57CFD85AE3
:10725B0058BDC65A59ABB45A5A99A25A5B87905A21
:10726B005C7E995A5D6C755A5E5A635A5F51995A96
:10727B006099485A61363F5A62242D5A63121B5A41
:10728B0064FF095A65FFFF5A6602125A6710B15A1A
:10729B006800005A6900005A6A00005A6B00005AD5
:1072AB006C00005A6D00005A6E00005A6FFFFF5AB7
:1072BB007000005A7100005A7200005A7300005A95
:1072CB007410B25A7502025A76004D5A7700005A62
:1072DB007802005A7910B35A7A00005A7B00005A90
:1072EB007C00005A7D00005A7E00005A7F00005A35
:1072FB008000005A81FFFF5A8200005A8300005A17
:10730B008400005A8500005A8610B45A8702025A2C
:10731B008800335A8900005A8A0A065A8B10B55ACC
:10732B008C00005A8D00005A8E00005A8F00005AB4
:10733B009000005A9100005A9200005A93FFFF5A96
:10734B009400005A9500005A9600005A9700005A74
:10735B009810B65A9902025A9A02F05A9B004B5A4D
:10736B009C02065A9D10B75A9E00005A9F00005A65
:10737B00A000005AA100005AA200005AA300005A14
:10738B00A400005AA5FFFF5AA600005AA700005AF6
:10739B00A800005AA900005AAA10B85AAB02025A08
:1073AB00AC000A5AAD00005AAE02105AAF106F5A19
:1073BB00B000005AB100005AB200005AB300005A94
:1073CB00B47F005AB500005AB600005AB7FFFF5AF7
:1073DB00B800005AB900005ABA00005ABB00005A54
:1073EB00BC10705ABD02025ABE00205ABF00005A90
:1073FB00C00A005AC110995AC220445AC320445A99
:10740B00C420445AC520445AC625495AC700005ABD
:10741B00C800005AC9FFFF5ACA00005ACB00005AD5
:10742B00CC00005ACD00005ACE109B5ACF03035A02
:10743B00D003E85AD100505AD202005AD3108D5AB9
:10744B00D400005AD500005AD600005AD700005A73
:10745B00D800005AD900005ADA00005ADBFFFF5A55
:10746B00DC00005ADD00005ADE00005ADF00005A33
:10747B00E0108E5AE102025AE200205AE300005A51
:10748B00E40A405AE510995AE620445AE720445A38
:10749B00E820445AE920445AEA25495AEB00005A9D
:1074AB00EC00005AEDFFFF5AEE00005AEF00005AB5
:1074BB00F000005AF100005AF2109B5AF303035AE2
:1074CB00F403E85AF500515AF60A065AF7108F5A88
:1074DB00F800005AF900005AFA00005AFB00005A53
:1074EB00FC264A5AFD00005AFE00005AFFFFFF5BC4
:1074FB000000005B0100005B0200005B0300005B0F
:10750B000410915B0503035B0603E85B0700525B0A
:10751B000802005B0910555B0A00005B0B00005B67
:10752B000C00005B0D00005B0E00005B0F00005BAE
:10753B001000005B11FFFF5B1200005B1300005B90
:10754B001400005B1500005B1610565B1702025B04
:10755B001800515B1900005B1A0A005B1B109D5B46
:10756B001C20445B1D20445B1E20445B1F20445B9E
:10757B002001255B2100005B2200005B23FFFF5BEA
:10758B002400005B2500005B2600005B2700005BEE
:10759B002810A05B2905055B2A03E85B2B00535BD6
:1075AB002C0A065B2D10935B2E02265B2F02265BAB
:1075BB003002265B3102265B32264A5B3300005BCE
:1075CB003400005B35FFFF5B3600005B3700005B70
:1075DB003800005B3900005B3A10965B3B05055B9E
:1075EB003C03E85B3D00545B3E0A005B3F10A35B32
:1075FB004000005B4100005B4200005B4300005B0E
:10760B004420445B4500005B4600005B47FFFF5B8B
:10761B004800005B4900005B4A00005B4B00005BCD
:10762B004C10A55B4D03035B4E03E85B4F00555BB2
:10763B00500A065B5110935B5202265B5302265B8A
:10764B005402265B5502265B56264A5B5700005BAD
:10765B005800005B59FFFF5B5A00005B5B00005B4F
:10766B005C00005B5D00005B5E10965B5F05055B7D
:10767B006003E85B6100565B6206005B6310575B5F
:10768B006400005B6500005B6600005B6700005BED
:10769B006800005B6900005B6A00005B6BFFFF5BCF
:1076AB006C00005B6D00005B6E00005B6F00005BAD
:1076BB007010585B7102025B72000B5B7300515BC5
:1076CB00740A005B7510995B7620445B7720445BF2
:1076DB007820445B7920445B7A25495B7B00005B17
:1076EB007C00005B7DFFFF5B7E00005B7F00005B2F
:1076FB008000005B8100005B82109B5B8303035B5C
:10770B008403E85B8500575B860A065B87108F5BFB
:10771B008800005B8900005B8A00005B8B00005BCC
:10772B008C264A5B8D00005B8E00005B8FFFFF5B3E
:10773B009000005B9100005B9200005B9300005B8C
:10774B009410915B9503035B9603E85B9700585B82
:10775B00980A005B99109D5B9A20445B9B20445BCD
:10776B009C20445B9D20445B9E01255B9F00005B3E
:10777B00A000005BA1FFFF5BA200005BA300005B0E
:10778B00A400005BA500005BA610A05BA705055B32
:10779B00A803E85BA900595BAA0A065BAB10935BD5
:1077AB00AC02265BAD02265BAE02265BAF02265B0C
:1077BB00B0264A5BB100005BB200005BB3FFFF5B1E
:1077CB00B400005BB500005BB600005BB700005B6C
:1077DB00B810965BB905055BBA03E85BBB005A5B57
:1077EB00BC0A105BBD10A35BBE00005BBF00005B5F
:1077FB00C000005BC100005BC220445BC300005BA8
:10780B00C400005BC5FFFF5BC600005BC700005BED
:10781B00C800005BC900005BCA10A55BCB03035B10
:10782B00CC03E85BCD005B5BCE0A065BCF10935BB2
:10783B00D002265BD102265BD202265BD302265BEB
:10784B00D4264A5BD500005BD600005BD7FFFF5BFD
:10785B00D800005BD900005BDA00005BDB00005B4B
:10786B00DC10965BDD05055BDE03E85BDF005C5B34
:10787B00E002005BE110595BE200005BE300005BA0
:10788B00E400005BE500005BE67F005BE700005B6C
:10789B00E800005BE9FFFF5BEA00005BEB00005BCD
:1078AB00EC00005BED00005BEE105A5BEF02025B3D
:1078BB00F000445BF100005BF202005BF3106B5BCA
:1078CB00F400005BF500005BF600005BF700005B6B
:1078DB00F800005BF900005BFA00005BFBFFFF5B4D
:1078EB00FC00005BFD00005BFE00005BFF00005C2A
:1078FB0000106C5C0102025C0200205C0300005C67
:10790B000406485C0510695C0600005C0700005C1F
:10791B000800005C0900005C0A00005C0B00005CC6
:10792B000C00005C0DFFFF5C0E00005C0F00005CA8
:10793B001000005C1100005C12106A5C1302025C08
:10794B001402F05C1500205C1602005C17106D5CD5
:10795B001800005C1900005C1A00005C1B00005C46
:10796B001C00005C1D00005C1E00005C1FFFFF5C28
:10797B002000005C2100005C2200005C2300005C06
:10798B0024106E5C2502025C2600205C2700005C44
:10799B002802105C2910695C2A00005C2B00005C3B
:1079AB002C00005C2D00005C2E00005C2F00005CA6
:1079BB003000005C31FFFF5C3200005C3300005C88
:1079CB003400005C3500005C36106A5C3702025CE8
:1079DB003800205C3900005C3AE1EA5C3BCFD85CB4
:1079EB003CBDC65C3DABB45C3E99A25C3F87905CF2
:1079FB00407E995C416C755C425A635C4351995C67
:107A0B004499485C45363F5C46242D5C47121B5C11
:107A1B0048FF095C49FFFF5C4A02125C4B10B15CEA
:107A2B004C00005C4D00005C4E00005C4F00005CA5
:107A3B005000005C5100005C5200005C53FFFF5C87
:107A4B005400005C5500005C5600005C5700005C65
:107A5B005810B25C5902025C5A004D5C5B00005C32
:107A6B005C02005C5D10B35C5E00005C5F00005C60
:107A7B006000005C6100005C6200005C6300005C05
:107A8B006400005C65FFFF5C6600005C6700005CE7
:107A9B006800005C6900005C6A10B45C6B02025CFD
:107AAB006C00335C6D00005C6E0A065C6F10B55C9D
:107ABB007000005C7100005C7200005C7300005C85
:107ACB007400005C7500005C7600005C77FFFF5C67
:107ADB007800005C7900005C7A00005C7B00005C45
:107AEB007C10B65C7D02025C7E02F05C7F004B5C1E
:107AFB008002065C8110B75C8200005C8300005C36
:107B0B008400005C8500005C8600005C8700005CE4
:107B1B008800005C89FFFF5C8A00005C8B00005CC6
:107B2B008C00005C8D00005C8E10B85C8F02025CD8
:107B3B0090000A5C9100005C9202105C93106F5CE9
:107B4B009400005C9500005C9600005C9700005C64
:107B5B00987F005C9900005C9A00005C9BFFFF5CC7
:107B6B009C00005C9D00005C9E00005C9F00005C24
:107B7B00A010705CA102025CA200205CA300005C60
:107B8B00A40A005CA510715CA640405CA740405C59
:107B9B00A840405CA940405CAA40145CAB00005C70
:107BAB00AC00005CADFFFF5CAE00005CAF00005CA6
:107BBB00B000005CB100005CB210735CB303035CFB
:107BCB00B403E85CB500545CB602005CB7108D5C86
:107BDB00B800005CB900005CBA00005CBB00005C44
:107BEB00BC00005CBD00005CBE00005CBFFFFF5C26
:107BFB00C000005CC100005CC200005CC300005C04
:107C0B00C4108E5CC502025CC600205CC700005C21
:107C1B00C80A405CC910715CCA40405CCB40405CF8
:107C2B00CC40405CCD40405CCE40145CCF00005C4F
:107C3B00D000005CD1FFFF5CD200005CD300005C85
:107C4B00D400005CD500005CD610735CD703035CDA
:107C5B00D803E85CD900535CDA02005CDB10555C9E
:107C6B00DC00005CDD00005CDE00005CDF00005C23
:107C7B00E000005CE100005CE200005CE3FFFF5C05
:107C8B00E400005CE500005CE600005CE700005CE3
:107C9B00E810565CE902025CEA00515CEB00005C08
:107CAB00EC0A005CED10755CEE40405CEF40405C14
:107CBB00F040405CF140405CF240285CF300005C1B
:107CCB00F400005CF5FFFF5CF600005CF700005C65
:107CDB00F800005CF900005CFA10785CFB05055CB1
:107CEB00FC03E85CFD00525CFE0A005CFF107B5D50
:107CFB000000005D0100005D0200005D0300005DFF
:107D0B000440405D0500005D0600005D07FFFF5D60
:107D1B000800005D0900005D0A00005D0B00005DBE
:107D2B000C107D5D0D03035D0E03E85D0F00535DCD
:107D3B001006005D1110575D1200005D1300005D11
:107D4B001400005D1500005D1600005D1700005D5E
:107D5B001800005D19FFFF5D1A00005D1B00005D40
:107D6B001C00005D1D00005D1E10585D1F02025DB2
:107D7B0020000B5D2100515D220A005D2310715D17
:107D8B002440405D2540405D2640405D2740405DDE
:107D9B002840145D2900005D2A00005D2BFFFF5D6C
:107DAB002C00005D2D00005D2E00005D2F00005D9E
:107DBB003010735D3103035D3203E85D3300555DB5
:107DCB00340A005D3510755D3640405D3740405DCF
:107DDB003840405D3940405D3A40285D3B00005DD6
:107DEB003C00005D3DFFFF5D3E00005D3F00005D20
:107DFB004000005D4100005D4210785D4305055D6C
:107E0B004403E85D4500545D460A105D47107B5DF9
:107E1B004800005D4900005D4A00005D4B00005DBD
:107E2B004C40405D4D00005D4E00005D4FFFFF5D1F
:107E3B005000005D5100005D5200005D5300005D7D
:107E4B0054107D5D5503035D5603E85D5700555D8A
:107E5B005802005D5910595D5A00005D5B00005DD2
:107E6B005C00005D5D00005D5E7F005D5F00005D9E
:107E7B006000005D61FFFF5D6200005D6300005DFF
:107E8B006400005D6500005D66105A5D6702025D6F
:107E9B006800445D6900005D6A02005D6B106B5DFC
:107EAB006C00005D6D00005D6E00005D6F00005D9D
:107EBB007000005D7100005D7200005D73FFFF5D7F
:107ECB007400005D7500005D7600005D7700005D5D
:107EDB0078106C5D7902025D7A00205D7B00005D9D
:107EEB007C06485D7D10695D7E00005D7F00005D56
:107EFB008000005D8100005D8200005D8300005DFD
:107F0B008400005D85FFFF5D8600005D8700005DDE
:107F1B008800005D8900005D8A106A5D8B02025D3E
:107F2B008C02F05D8D00205D8E02005D8F106D5D0B
:107F3B009000005D9100005D9200005D9300005D7C
:107F4B009400005D9500005D9600005D97FFFF5D5E
:107F5B009800005D9900005D9A00005D9B00005D3C
:107F6B009C106E5D9D02025D9E00205D9F00005D7A
:107F7B00A002105DA110695DA200005DA300005D71
:107F8B00A400005DA500005DA600005DA700005DDC
:107F9B00A800005DA9FFFF5DAA00005DAB00005DBE
:107FAB00AC00005DAD00005DAE106A5DAF02025D1E
:107FBB00B000205DB100005DB2ABB45DB399A25DC2
:107FCB00B487905DB5757E5DB6636C5DB75A6C5DBD
:107FDB00B848515DB93F6C5DBA366C5DBB242D5D05
:107FEB00BC121B5DBDFF095DBE02125DBF10B15D12
:107FFB00C000005DC100005DC200005DC300005DFC
:10800B00C400005DC500005DC600005DC7FFFF5DDD
:10801B00C800005DC900005DCA00005DCB00005DBB
:10802B00CC10B25DCD02025DCE004D5DCF00005D88
:10803B00D002005DD110B35DD200005DD300005DB6
:10804B00D400005DD500005DD600005DD700005D5B
:10805B00D800005DD9FFFF5DDA00005DDB00005D3D
:10806B00DC00005DDD00005DDE10B45DDF02025D53
:10807B00E000335DE100005DE20A065DE310B55DF3
:10808B00E400005DE500005DE600005DE700005DDB
:10809B00E800005DE900005DEA00005DEBFFFF5DBD
:1080AB00EC00005DED00005DEE00005DEF00005D9B
:1080BB00F010B65DF102025DF202F05DF3004B5D74
:1080CB00F402065DF510B75DF600005DF700005D8C
:1080DB00F800005DF900005DFA00005DFB00005D3B
:1080EB00FC00005DFDFFFF5DFE00005DFF00005E1C
:1080FB000000005E0100005E0210B85E0302025E2B
:10810B0004000A5E0500005E0602105E07106F5E3B
:10811B000800005E0900005E0A00005E0B00005EB6
:10812B000C7F005E0D00005E0E00005E0FFFFF5E19
:10813B001000005E1100005E1200005E1300005E76
:10814B001410705E1502025E1600205E1700005EB2
:10815B00180A005E19107F5E1A40405E1B40405E9D
:10816B001C40405E1D40405E1E40145E1F00005EC2
:10817B002000005E21FFFF5E2200005E2300005EF8
:10818B002400005E2500005E2610815E2703035E3F
:10819B002803E85E2900545E2A02005E2B108D5ED8
:1081AB002C00005E2D00005E2E00005E2F00005E96
:1081BB003000005E3100005E3200005E33FFFF5E78
:1081CB003400005E3500005E3600005E3700005E56
:1081DB0038108E5E3902025E3A00205E3B00005E74
:1081EB003C0A405E3D107F5E3E40405E3F40405E3D
:1081FB004040405E4140405E4240145E4300005EA2
:10820B004400005E45FFFF5E4600005E4700005ED7
:10821B004800005E4900005E4A10815E4B03035E1E
:10822B004C03E85E4D00535E4E02005E4F10555EF0
:10823B005000005E5100005E5200005E5300005E75
:10824B005400005E5500005E5600005E57FFFF5E57
:10825B005800005E5900005E5A00005E5B00005E35
:10826B005C10565E5D02025E5E00515E5F00005E5A
:10827B00600A005E6110835E6240405E6340405E58
:10828B006440405E6540405E6640285E6700005E6D
:10829B006800005E69FFFF5E6A00005E6B00005EB7
:1082AB006C00005E6D00005E6E10865E6F05055EF5
:1082BB007003E85E7100525E720A005E7310895E95
:1082CB007400005E7500005E7600005E7700005E55
:1082DB007840405E7900005E7A00005E7BFFFF5EB7
:1082EB007C00005E7D00005E7E00005E7F00005E15
:1082FB0080108B5E8103035E8203E85E8300535E16
:10830B008406005E8510575E8600005E8700005E67
:10831B008800005E8900005E8A00005E8B00005EB4
:10832B008C00005E8DFFFF5E8E00005E8F00005E96
:10833B009000005E9100005E9210585E9302025E08
:10834B0094000B5E9500515E960A005E97107F5E5F
:10835B009840405E9940405E9A40405E9B40405E34
:10836B009C40145E9D00005E9E00005E9FFFFF5EC2
:10837B00A000005EA100005EA200005EA300005EF4
:10838B00A410815EA503035EA603E85EA700555EFD
:10839B00A80A005EA910835EAA40405EAB40405E17
:1083AB00AC40405EAD40405EAE40285EAF00005E2C
:1083BB00B000005EB1FFFF5EB200005EB300005E76
:1083CB00B400005EB500005EB610865EB705055EB4
:1083DB00B803E85EB900545EBA0A105EBB10895E42
:1083EB00BC00005EBD00005EBE00005EBF00005E14
:1083FB00C040405EC100005EC200005EC3FFFF5E76
:10840B00C400005EC500005EC600005EC700005ED3
:10841B00C8108B5EC903035ECA03E85ECB00555ED2
:10842B00CC02005ECD10595ECE00005ECF00005E28
:10843B00D000005ED100005ED27F005ED300005EF4
:10844B00D400005ED5FFFF5ED600005ED700005E55
:10845B00D800005ED900005EDA105A5EDB02025EC5
:10846B00DC00445EDD00005EDE02005EDF106B5E52
:10847B00E000005EE100005EE200005EE300005EF3
:10848B00E400005EE500005EE600005EE7FFFF5ED5
:10849B00E800005EE900005EEA00005EEB00005EB3
:1084AB00EC106C5EED02025EEE00205EEF00005EF3
:1084BB00F006485EF110695EF200005EF300005EAC
:1084CB00F400005EF500005EF600005EF700005E53
:1084DB00F800005EF9FFFF5EFA00005EFB00005E35
:1084EB00FC00005EFD00005EFE106A5EFF02025F94
:1084FB000002F05F0100205F0202005F03106D5F5E
:10850B000400005F0500005F0600005F0700005FCE
:10851B000800005F0900005F0A00005F0BFFFF5FB0
:10852B000C00005F0D00005F0E00005F0F00005F8E
:10853B0010106E5F1102025F1200205F1300005FCC
:10854B001402105F1510695F1600005F1700005FC3
:10855B001800005F1900005F1A00005F1B00005F2E
:10856B001C00005F1DFFFF5F1E00005F1F00005F10
:10857B002000005F2100005F22106A5F2302025F70
:10858B002400345F2500005F26ABB45F2799A25F00
:10859B002887905F29757E5F2A636C5F2B5A6C5F0F
:1085AB002C48515F2D3F6C5F2E366C5F2F242D5F57
:1085BB0030121B5F31FF095F3202125F3310B15F64
:1085CB003400005F3500005F3600005F3700005F4E
:1085DB003800005F3900005F3A00005F3BFFFF5F30
:1085EB003C00005F3D00005F3E00005F3F00005F0E
:1085FB004010B25F4102025F42004D5F4300005FDB
:10860B004402005F4510B35F4600005F4700005F08
:10861B004800005F4900005F4A00005F4B00005FAD
:10862B004C00005F4DFFFF5F4E00005F4F00005F8F
:10863B005000005F5100005F5210B45F5302025FA5
:10864B005400335F5500005F560A065F5710B55F45
:10865B005800005F5900005F5A00005F5B00005F2D
:10866B005C00005F5D00005F5E00005F5FFFFF5F0F
:10867B006000005F6100005F6200005F6300005FED
:10868B006410B65F6502025F6602F05F67004B5FC6
:10869B006802065F6910B75F6A00005F6B00005FDE
:1086AB006C00005F6D00005F6E00005F6F00005F8D
:1086BB007000005F71FFFF5F7200005F7300005F6F
:1086CB007400005F7500005F7610B85F7702025F81
:1086DB0078000A5F7900005F7A02105F7B106F5F92
:1086EB007C00005F7D00005F7E00005F7F00005F0D
:1086FB00807F005F8100005F8200005F83FFFF5F70
:10870B008400005F8500005F8600005F8700005FCC
:10871B008810705F8902025F8A00205F8B00005F08
:10872B008C0A005F8D10A75F8E40405F8F40405FCB
:10873B009040405F9140405F92400A5F9300005F22
:10874B009400005F95FFFF5F9600005F9700005F4E
:10875B009800005F9900005F9A10AA5F9B05055F68
:10876B009C03E85F9D00545F9E02005F9F108D5F2E
:10877B00A000005FA100005FA200005FA300005FEC
:10878B00A400005FA500005FA600005FA7FFFF5FCE
:10879B00A800005FA900005FAA00005FAB00005FAC
:1087AB00AC108E5FAD02025FAE00205FAF00005FCA
:1087BB00B00A405FB110A75FB240405FB340405F6B
:1087CB00B440405FB540405FB6400A5FB700005F02
:1087DB00B800005FB9FFFF5FBA00005FBB00005F2E
:1087EB00BC00005FBD00005FBE10AA5FBF05055F48
:1087FB00C003E85FC100555FC202005FC310555F45
:10880B00C400005FC500005FC600005FC700005FCB
:10881B00C800005FC900005FCA00005FCBFFFF5FAD
:10882B00CC00005FCD00005FCE00005FCF00005F8B
:10883B00D010565FD102025FD200515FD300005FB0
:10884B00D40A005FD510AD5FD640405FD740405F84
:10885B00D840405FD940405FDA401E5FDB00005FCD
:10886B00DC00005FDDFFFF5FDE00005FDF00005F0D
:10887B00E000005FE100005FE210AF5FE304045F24
:10888B00E403E85FE500565FE60A005FE710655F0B
:10889B00E800005FE900005FEA00005FEB00005FAB
:1088AB00EC403E5FED00005FEE00005FEFFFFF5F0F
:1088BB00F000005FF100005FF200005FF300005F6B
:1088CB00F410675FF503035FF603E85FF700575F8C
:1088DB00F806005FF910575FFA00005FFB00005FBE
:1088EB00FC00005FFD00005FFE00005FFF0000600A
:1088FB000000006001FFFF600200006003000060E9
:10890B00040000600500006006105860070202605A
:10891B0008000B60090051600A0A00600B10A76089
:10892B000C4040600D4040600E4040600F40406086
:10893B0010400A60110000601200006013FFFF601E
:10894B001400006015000060160000601700006046
:10895B001810AA60190505601A03E8601B0058601F
:10896B001C0A00601D10AD601E4040601F4040603F
:10897B00204040602140406022401E602300006088
:10898B002400006025FFFF602600006027000060C8
:10899B0028000060290000602A10AF602B040460DF
:1089AB002C03E8602D0059602E0A10602F106560B3
:1089BB003000006031000060320000603300006066
:1089CB0034403E60350000603600006037FFFF60CA
:1089DB0038000060390000603A0000603B00006026
:1089EB003C1067603D0303603E03E8603F005A6044
:1089FB00400200604110596042000060430000607B
:108A0B004400006045000060467F00604700006046
:108A1B004800006049FFFF604A0000604B000060A7
:108A2B004C0000604D0000604E105A604F02026017
:108A3B0050004460510000605202006053106B60A4
:108A4B005400006055000060560000605700006045
:108A5B0058000060590000605A0000605BFFFF6027
:108A6B005C0000605D0000605E0000605F00006005
:108A7B0060106C6061020260620020606300006045
:108A8B0064064860651069606600006067000060FE
:108A9B0068000060690000606A0000606B000060A5
:108AAB006C0000606DFFFF606E0000606F00006087
:108ABB00700000607100006072106A6073020260E7
:108ACB007402F060750020607602006077106D60B4
:108ADB0078000060790000607A0000607B00006025
:108AEB007C0000607D0000607E0000607FFFFF6007
:108AFB0080000060810000608200006083000060E5
:108B0B0084106E6085020260860020608700006022
:108B1B0088021060891069608A0000608B00006019
:108B2B008C0000608D0000608E0000608F00006084
:108B3B009000006091FFFF60920000609300006066
:108B4B00940000609500006096106A6097020260C6
:108B5B0098002060990000609AABB4609B99A2606A
:108B6B009C8790609D757E609E636C609F5A6C6065
:108B7B00A0485160A13F6C60A2366C60A3242D60AD
:108B8B00A4121B60A5FF0960A6000A60A70028605D
:108B9B00A8000060A9000060AA000A60AB0070602A
:108BAB00AC000060AD000060AE000A60AF00EE608C
:108BBB00B0000060B1000060B2001F60B3011B6029
:108BCB00B4001060B5000060B6000260B700026030
:108BDB00B8001460B9000060BA005F60BB001F6092
:108BEB00BC004060BD000060BE000260BF000160C1
:108BFB00C0000160C1000160C2001360C3000060CF
:108C0B00C4004F60C5001060C6000F60C700106045
:108C1B00C8004060C9000060CA000260CB0002605F
:108C2B00CC001460CD000060CE005060CF0010600F
:108C3B00D0004060D1000060D2000A60D300886091
:108C4B00D4000060D5000060D6000A60D7009B609E
:108C5B00D8000060D9000060DA000A60DB00886091
:108C6B00DC000060DD000060DE030860DF000160F7
:108C7B00E0001060E1000060E2000260E3000360CE
:108C8B00E4001360E5000060E6005F60E7001F6032
:108C9B00E8004060E9000060EA000260EB0002605F
:108CAB00EC000160ED000260EE001160EF0000606F
:108CBB00F0004F60F1001060F2000F60F3001060E5
:108CCB00F4004060F5000060F6000260F7000360FE
:108CDB00F8001360F9000060FA005060FB001060B0
:108CEB00FC004060FD000060FE000260FF000461BC
:108CFB00000012610100006102005F6103001F614F
:108D0B000400406105000061060002610700036179
:108D1B0008000161090003610A000F610B0000618B
:108D2B000C004F610D0010610E000F610F00106100
:108D3B001000406111000061120002611300046118
:108D4B0014001261150000611600506117001061CC
:108D5B0018004061190000611A000A611B0296613C
:108D6B001C0000611D0000611E0002611F000261FA
:108D7B00200004612100006122005061230010617A
:108D8B00240040612500006126000261270001617B
:108D9B0028000161290001612A0003612B00006199
:108DAB002C0050612D000F612E0010612F000F6100
:108DBB00300040613100006132000261330002611A
:108DCB00340014613500006136005F6137001F61AC
:108DDB0038004061390000613A0002613B000161DB
:108DEB003C0001613D0001613E0013613F000061E9
:108DFB0040004F614100106142000F614300106160
:108E0B004400406145000061460002614700026179
:108E1B0048001461490000614A0050614B00106129
:108E2B004C0040614D0000614E0002614F0001613A
:108E3B005000016151000161520013615300006148
:108E4B0054004F615500106156000F6157001061BF
:108E5B0058004061590000615A0002615B000261D9
:108E6B005C0002615D0012615E004F615F001F617B
:108E7B00600010616100406162000A6163000C6177
:108E8B00640000616500006166000A6167000461AF
:108E9B0068000061690000616A000A616B0064612F
:108EAB006C0000616D0000616E000A616F0034613F
:108EBB0070000061710000400000004001000040A4
:108ECB0002000B40030F5840040F8040050FAC40CD
:108EDB00060FE24007100E40081029400900004021
:108EEB000A0000400B0000400C0000400D00004049
:108EFB000E0000400F000040100000401100004029
:108F0B001200004013000040140000401500004008
:108F1B0016000040170000401800004019000040E8
:108F2B001A0000401B0000401C0000409E0BF64046
:108F3B00A0020240A105B140A205B340A304044026
:108F4B00A4002B40A5000040A6064840A705B14051
:108F5B00A805B340A9040440AA005A40AB002B401B
:108F6B00AC020040AD059540AE059640AF02024005
:108F7B00B0001E40B1000040B2020040B305954066
:108F8B00B4059440B5020240B6003A40B700004029
:108F9B00B80A0640B9059A40BA059440BB02024094
:108FAB00BC03E840BD001940BE020040BF05954020
:108FBB00C0059440C1020240C2003940C3000040CA
:108FCB00C4024040C5059540C6059940C702024002
:108FDB00C8003A40C9000040CA0A0640CB059A4077
:108FEB00CC059440CD020240CE03E840CF001A409E
:108FFB00D0020040D1059540D2059940D3020240E2
:10900B00D4003940D5000040D6020040D70595402A
:10901B00D8059940D9020240DA003A40DB00004003
:10902B00DC0A0640DD059A40DE059440DF02024073
:10903B00E003E840E1001B40E20A0640E3059A40EA
:10904B00E4059440E5020240E603E840E7001C40DB
:10905B00E8060040E9059540EA059940EB0202401D
:10906B00EC000B40ED003940EE0A0640EF059A404C
:10907B00F0059440F1020240F203E840F3001D407A
:10908B00F40A0640F5059A40F6059440F7020240B3
:10909B00F803E840F9001E40FA020040FB0595403A
:1090AB00FC059940FD020240FE001E40FF000041FE
:1090BB00000A064101059A4102059441030202414F
:1090CB000403E84105001F410602004107059741D3
:1090DB0008059841090202410A001E410B0000419C
:1090EB000C0200410D05B1410E05B3410F040441C3
:1090FB001000074111000041120648411305B14110
:10910B001405B341150404411602F0411700074141
:10911B00180200411905B1411A05B3411B04044162
:10912B001C0007411D0000411E0200411F05B141FB
:10913B002005B341210404412200074123000041D3
:10914B00243F424125393C4126333641272D3041BE
:10915B0028272A41292A24412A2127412B271E412E
:10916B002C2A1B412D1827412E152A412F0F124156
:10917B0030090C413103064132FFFF4133FFFF4100
:10918B00340212413505EC41360594413702024158
:10919B0038004D41390000413A0200413B05ED4199
:1091AB003C05EE413D0202413E0033413F00004190
:1091BB00400A06414105EF414205F041430A024195
:1091CB004402F04145004B41460206414705F5413B
:1091DB004805F641490602414A000A414B0000414D
:1091EB004C0210414D05CC414E05D9414F19194147
:1091FB005000204151000041520A00415305934158
:10920B0054059441550202415603E841570057411A
:10921B00580200415905E6415A05E8415B030341F9
:10922B005C0020415D0000415E0A40415F059341B7
:10923B0060059441610202416203E84163005341BE
:10924B00640200416505364166053B4167140941DF
:10925B0068005141690000416A0A00416B05934166
:10926B006C0594416D0202416E03E8416F0052415F
:10927B00700A0041710593417205944173020241DA
:10928B007403E8417500534176060041770545416B
:10929B007805544179281D417A000B417B005141DF
:1092AB007C0A00417D0593417E0594417F0202417A
:1092BB008003E84181005541820A004183059341B7
:1092CB0084059441850202418603E841870054419D
:1092DB00880A1041890593418A0594418B0202410A
:1092EB008C03E8418D0055418E0200418F0568418A
:1092FB0090057D41912B2A419200444193000041FE
:10930B00940200419505B5419605C041971716414A
:10931B0098002041990000419A0648419B059B41CA
:10932B009C05A6419D1615419E02F0419F002041D0
:10933B00A0020041A1059B41A205A641A316154120
:10934B00A4002041A5000041A6021041A7059B41A6
:10935B00A805A641A9161541AA002041AB00004162
:10936B00AC393C41AD333641AE2D3041AF272A41AC
:10937B00B0212441B11E2441B2181B41B315244125
:10938B00B4122441B50C0F41B6060941B7FF034196
:10939B00B8020241B905B141BA05B341BB0404415E
:1093AB00BC002B41BD000041BE064841BF05B14189
:1093BB00C005B341C1040441C2005A41C3002B4153
:1093CB00C4020041C5059541C6059641C70202413D
:1093DB00C8001E41C9000041CA020041CB0595419E
:1093EB00CC059441CD020241CE003A41CF00004161
:1093FB00D00A0641D1059A41D2059441D3020241CC
:10940B00D403E841D5001941D6020041D705954157
:10941B00D8059441D9020241DA003941DB00004101
:10942B00DC024041DD059541DE059941DF02024139
:10943B00E0003A41E1000041E20A0641E3059A41AE
:10944B00E4059441E5020241E603E841E7001A41D5
:10945B00E8020041E9059541EA059941EB02024119
:10946B00EC003941ED000041EE020041EF05954162
:10947B00F0059941F1020241F2003A41F30000413B
:10948B00F40A0641F5059A41F6059441F7020241AB
:10949B00F803E841F9001B41FA0A0641FB059A4122
:1094AB00FC059441FD020241FE03E841FF001C4212
:1094BB000006004201059542020599420302024251
:1094CB0004000B4205003942060A064207059A4280
:1094DB0008059442090202420A03E8420B001D42AE
:1094EB000C0A06420D059A420E0594420F020242E7
:1094FB001003E84211001E4212020042130595426E
:10950B00140599421502024216001E421700004232
:10951B00180A064219059A421A0594421B02024286
:10952B001C03E8421D001F421E0200421F0597420A
:10953B00200598422102024222001E4223000042D3
:10954B00240200422505B1422605B34227040442FA
:10955B0028000742290000422A0648422B05B14247
:10956B002C05B3422D0404422E02F0422F00074279
:10957B00300200423105B1423205B342330404429A
:10958B003400074235000042360200423705B14233
:10959B003805B342390404423A0007423B0000420B
:1095AB003C3F42423D393C423E3336423F2D3042F6
:1095BB0040272A42412A24424221274243271E4266
:1095CB00442A1B424518274246152A42470F12428E
:1095DB0048090C42490306424AFFFF424BFFFF4238
:1095EB004C0212424D05EC424E0594424F02024290
:1095FB0050004D4251000042520200425305ED42D1
:10960B005405EE42550202425600334257000042C7
:10961B00580A06425905EF425A05F0425B0A0242CC
:10962B005C02F0425D004B425E0206425F05F54272
:10963B006005F6426106024262000A426300004284
:10964B00640210426505CC426605D942671919427E
:10965B0068002042690000426A0A00426B0593428F
:10966B006C0594426D0202426E03E8426F00574252
:10967B00700200427105E6427205E8427303034231
:10968B007400204275000042760A404277059342EF
:10969B0078059442790202427A03E8427B005342F6
:1096AB007C0200427D0536427E053B427F14094217
:1096BB008000514281000042820A0042830593429E
:1096CB0084059442850202428603E8428700524297
:1096DB00880A0042890593428A0594428B02024212
:1096EB008C03E8428D0053428E0600428F054542A3
:1096FB009005544291281D4292000B429300514217
:10970B00940A0042950593429605944297020242B1
:10971B009803E842990055429A0A00429B059342EE
:10972B009C0594429D0202429E03E8429F005442D4
:10973B00A00A1042A1059342A2059442A302024241
:10974B00A403E842A5005542A6020042A7056842C1
:10975B00A8057D42A92B2A42AA004442AB00004235
:10976B00AC020042AD05B542AE05C042AF17164282
:10977B00B0002042B1000042B2064842B3059B4202
:10978B00B405A642B5161542B602F042B700204208
:10979B00B8020042B9059B42BA05A642BB16154258
:1097AB00BC002042BD000042BE021042BF059B42DE
:1097BB00C005A642C1161542C2002042C30000429A
:1097CB00C4393C42C5333642C62D3042C7272A42E4
:1097DB00C8212442C91E2442CA181B42CB1524425D
:1097EB00CC122442CD0C0F42CE060942CFFF0342CE
:1097FB00D0020242D105B142D205B342D304044296
:10980B00D4002B42D5000042D6064842D705B142C0
:10981B00D805B342D9040442DA005A42DB002B428A
:10982B00DC020042DD059542DE059642DF02024274
:10983B00E0001E42E1000042E2020042E3059542D5
:10984B00E4059442E5020242E6003A42E700004298
:10985B00E80A0642E9059A42EA059442EB02024203
:10986B00EC03E842ED001942EE020042EF0595428F
:10987B00F0059442F1020242F2003942F300004239
:10988B00F4024042F5059542F6059942F702024271
:10989B00F8003A42F9000042FA0A0642FB059A42E6
:1098AB00FC059442FD020242FE03E842FF001A430C
:1098BB00000200430105954302059943030202434D
:1098CB000400394305000043060200430705954396
:1098DB0008059943090202430A003A430B0000436F
:1098EB000C0A06430D059A430E0594430F020243DF
:1098FB001003E84311001B43120A064313059A4356
:10990B0014059443150202431603E84317001C4346
:10991B0018060043190595431A0599431B02024388
:10992B001C000B431D0039431E0A06431F059A43B7
:10993B0020059443210202432203E84323001D43E5
:10994B00240A064325059A4326059443270202431E
:10995B002803E84329001E432A0200432B059543A5
:10996B002C0599432D0202432E001E432F0000436A
:10997B00300A064331059A433205944333020243BE
:10998B003403E84335001F43360200433705974342
:10999B0038059843390202433A001E433B0000430B
:1099AB003C0200433D05B1433E05B3433F04044332
:1099BB004000074341000043420648434305B1437F
:1099CB004405B343450404434602F04347000743B1
:1099DB00480200434905B1434A05B3434B040443D2
:1099EB004C0007434D0000434E0200434F05B1436B
:1099FB005005B34351040443520007435300004343
:109A0B00543F424355393C4356333643572D30432D
:109A1B0058272A43592A24435A2127435B271E439D
:109A2B005C2A1B435D1827435E152A435F0F1243C5
:109A3B0060090C436103064362FFFF4363FFFF436F
:109A4B00640212436505EC436605944367020243C7
:109A5B0068004D43690000436A0200436B05ED4308
:109A6B006C05EE436D0202436E0033436F000043FF
:109A7B00700A06437105EF437205F043730A024304
:109A8B007402F04375004B43760206437705F543AA
:109A9B007805F643790602437A000A437B000043BC
:109AAB007C0210437D05CC437E05D9437F191943B6
:109ABB008000204381000043820A004383059343C7
:109ACB0084059443850202438603E843870057438A
:109ADB00880200438905E6438A05E8438B03034369
:109AEB008C0020438D0000438E0A40438F05934327
:109AFB0090059443910202439203E843930053432E
:109B0B00940200439505364396053B43971409434E
:109B1B0098005143990000439A0A00439B059343D5
:109B2B009C0594439D0202439E03E8439F005243CE
:109B3B00A00A0043A1059343A2059443A302024349
:109B4B00A403E843A5005343A6060043A7054543DA
:109B5B00A8055443A9281D43AA000B43AB0051434E
:109B6B00AC0A0043AD059343AE059443AF020243E9
:109B7B00B003E843B1005543B20A0043B305934326
:109B8B00B4059443B5020243B603E843B70054430C
:109B9B00B80A1043B9059343BA059443BB02024379
:109BAB00BC03E843BD005543BE020043BF056843F9
:109BBB00C0057D43C12B2A43C2004443C30000436D
:109BCB00C4020043C505B543C605C043C7171643BA
:109BDB00C8002043C9000043CA064843CB059B433A
:109BEB00CC05A643CD161543CE02F043CF00204340
:109BFB00D0020043D1059B43D205A643D316154390
:109C0B00D4002043D5000043D6021043D7059B4315
:109C1B00D805A643D9161543DA002043DB000043D1
:109C2B00DC393C43DD333643DE2D3043DF272A431B
:109C3B00E0212443E11E2443E2181B43E315244394
:109C4B00E4122443E50C0F43E6060943E7FF034305
:109C5B00E8020243E905B143EA05B343EB040443CD
:109C6B00EC002B43ED000043EE064843EF05B143F8
:109C7B00F005B343F1040443F2005A43F3002B43C2
:109C8B00F4020043F5059543F6059643F7020243AC
:109C9B00F8001E43F9000043FA020043FB0595430D
:109CAB00FC059443FD020243FE003A43FF000044CF
:109CBB00000A064401059A44020594440302024437
:109CCB000403E844050014440602004407059544C8
:109CDB0008059444090202440A0039440B0000446D
:109CEB000C0240440D0595440E0599440F020244A5
:109CFB0010003A4411000044120A064413059A441A
:109D0B0014059444150202441603E8441700154445
:109D1B00180A06441905EB441A0594441B02024425
:109D2B001C03E8441D0016441E0200441F05954405
:109D3B0020059944210202442200394423000044A7
:109D4B002402004425059544260599442702024424
:109D5B0028003A44290000442A0A06442B059A4459
:109D6B002C0594442D0202442E03E8442F00174483
:109D7B00300A06443105EB44320594443302024465
:109D8B003403E84435001844360A064437059A4430
:109D9B0038059444390202443A03E8443B00194421
:109DAB003C0A06443D05EB443E0594443F02024405
:109DBB004003E84441001A444206004443059544DD
:109DCB00440599444502024446000B44470039447C
:109DDB00480A064449059A444A0594444B020244F6
:109DEB004C03E8444D001B444E0A06444F05EB441C
:109DFB0050059444510202445203E84453001C445E
:109E0B00540A064455059A44560594445702024495
:109E1B005803E84459001D445A0A06445B05EB44B9
:109E2B005C0594445D0202445E03E8445F001E44FB
:109E3B006002004461059544620599446302024443
:109E4B0064001E4465000044660A064467059A4494
:109E5B0068059444690202446A03E8446B001F449A
:109E6B006C0A06446D05EB446E0594446F02024484
:109E7B007003E84471002044720200447305974458
:109E8B00740598447502024476001E447700004422
:109E9B00780200447905B1447A05B3447B04044449
:109EAB007C0007447D0000447E0648447F05B14496
:109EBB008005B344810404448202F04483000744C8
:109ECB00840200448505B1448605B34487040444E9
:109EDB0088000744890000448A0200448B05B14482
:109EEB008C05B3448D0404448E0007448F0000445A
:109EFB0090515444914B4E4492454844933F4244B5
:109F0B0094393C449533364496393044972D364436
:109F1B0098272A44992436449A3921449B1E364467
:109F2B009C391B449D1518449E0F12449F090C44E9
:109F3B00A0030644A1FFFF44A2021244A305EC4474
:109F4B00A4059444A5020244A6004D44A700004476
:109F5B00A8020044A905ED44AA05EE44AB02024455
:109F6B00AC003344AD000044AE0A0644AF05EF44E9
:109F7B00B005F044B10A0244B202F044B3004B44C2
:109F8B00B4020644B505F544B605F644B7060244DB
:109F9B00B8000A44B9000044BA021044BB05CC44D3
:109FAB00BC05D944BD191944BE002044BF00004470
:109FBB00C00A0044C1059344C2059444C302024441
:109FCB00C403E844C5005044C6020044C705E64438
:109FDB00C805E844C9030344CA002044CB0000442D
:109FEB00CC0A4044CD059344CE059444CF020244A1
:109FFB00D003E844D1005144D20A0644D305EA44C5
:10A00B00D4059444D5020244D603E844D700524405
:10A01B00D8020044D9053644DA053B44DB14094425
:10A02B00DC005144DD000044DE0A0044DF059344AC
:10A03B00E0059444E1020244E203E844E3005344A4
:10A04B00E40A0644E505EA44E6059444E7020244C3
:10A05B00E803E844E9005444EA0A0044EB0593445E
:10A06B00EC059444ED020244EE03E844EF00554442
:10A07B00F00A0644F105EA44F2059444F302024463
:10A08B00F403E844F5005644F6060044F70545444E
:10A09B00F8055444F9281D44FA000B44FB005144C5
:10A0AB00FC0A0044FD059344FE059444FF0202455F
:10A0BB000003E84501005745020A06450305EA453A
:10A0CB0004059445050202450603E845070058457B
:10A0DB00080A0045090593450A0594450B020245FC
:10A0EB000C03E8450D0059450E0A06450F05EA45D8
:10A0FB0010059445110202451203E84513005A4519
:10A10B00140A10451505934516059445170202458B
:10A11B001803E84519005B451A0A06451B05EA4575
:10A12B001C0594451D0202451E03E8451F005C45B6
:10A13B00200200452105684522057D45232B2A4534
:10A14B002400444525000045260200452705B5455A
:10A15B002805C045291716452A0020452B00004528
:10A16B002C0648452D059B452E05A6452F16154556
:10A17B003002F045310020453202004533059B4546
:10A18B003405A645351615453600204537000045E4
:10A19B003802104539059B453A05A6453B16154532
:10A1AB003C0020453D0000453E4B4E453F45484554
:10A1BB00403F424541393C4542333645432D3045BE
:10A1CB00442A334545242745461E2145471B334525
:10A1DB0048331845491215454A0C0F454B0609459E
:10A1EB004CFF03454DFFFF454E0202454F05B14560
:10A1FB005005B3455104044552002B45530000450F
:10A20B00540648455505B1455605B3455704044515
:10A21B0058005A4559002B455A0200455B05954598
:10A22B005C0596455D0202455E001E455F000045DC
:10A23B006002004561059545620594456302024540
:10A24B0064003A4565000045660A064567059A4570
:10A25B0068059445690202456A03E8456B0014459D
:10A26B006C0200456D0595456E0594456F020245E0
:10A27B0070003945710000457202404573059545E4
:10A28B00740599457502024576003A4577000045FD
:10A29B00780A064579059A457A0594457B0202456D
:10A2AB007C03E8457D0015457E0A06457F05EB4599
:10A2BB0080059445810202458203E84583001645DB
:10A2CB00840200458505954586059945870202451B
:10A2DB0088003945890000458A0200458B05954564
:10A2EB008C0599458D0202458E003A458F0000453D
:10A2FB00900A064591059A459205944593020245AD
:10A30B009403E84595001745960A06459705EB45D6
:10A31B0098059445990202459A03E8459B00184518
:10A32B009C0A06459D059A459E0594459F0202454C
:10A33B00A003E845A1001945A20A0645A305EB4574
:10A34B00A4059445A5020245A603E845A7001A45B6
:10A35B00A8060045A9059545AA059945AB020245F6
:10A36B00AC000B45AD003945AE0A0645AF059A4525
:10A37B00B0059445B1020245B203E845B3001B4555
:10A38B00B40A0645B505EB45B6059445B70202453B
:10A39B00B803E845B9001C45BA0A0645BB059A4502
:10A3AB00BC059445BD020245BE03E845BF001D45F3
:10A3BB00C00A0645C105EB45C2059445C3020245DB
:10A3CB00C403E845C5001E45C6020045C7059545B3
:10A3DB00C8059945C9020245CA001E45CB00004578
:10A3EB00CC0A0645CD059A45CE059445CF020245CC
:10A3FB00D003E845D1001F45D20A0645D305EB45EE
:10A40B00D4059445D5020245D603E845D70020452F
:10A41B00D8020045D9059745DA059845DB02024578
:10A42B00DC001E45DD000045DE020045DF05B145C1
:10A43B00E005B345E1040445E2000745E3000045B0
:10A44B00E4064845E505B145E605B345E704044593
:10A45B00E802F045E9000745EA020045EB05B14586
:10A46B00EC05B345ED040445EE000745EF00004550
:10A47B00F0020045F105B145F205B345F30404457F
:10A48B00F4000745F5000045F6515445F74B4E4592
:10A49B00F8454845F93F4245FA393C45FB333645CB
:10A4AB00FC393045FD2D3645FE272A45FF2436461F
:10A4BB0000392146011E364602391B460315184644
:10A4CB00040F124605090C460603064607FFFF4616
:10A4DB00080212460905EC460A0594460B02024691
:10A4EB000C004D460D0000460E0200460F05ED46D2
:10A4FB001005EE46110202461200334613000046C9
:10A50B00140A06461505EF461605F046170A0246CD
:10A51B001802F04619004B461A0206461B05F54673
:10A52B001C05F6461D0602461E000A461F00004685
:10A53B00200210462105CC462205D946231919467F
:10A54B002400204625000046260A00462705934690
:10A55B0028059446290202462A03E8462B0050465A
:10A56B002C0200462D05E6462E05E8462F03034632
:10A57B003000204631000046320A404633059346F0
:10A58B0034059446350202463603E84637005146F9
:10A59B00380A06463905EA463A0594463B02024616
:10A5AB003C03E8463D0052463E0200463F05364618
:10A5BB0040053B46411409464200514643000046C4
:10A5CB00440A004645059346460594464702024613
:10A5DB004803E846490053464A0A06464B05EA46F5
:10A5EB004C0594464D0202464E03E8464F00544636
:10A5FB00500A0046510593465205944653020246B3
:10A60B005403E84655005546560A06465705EA4692
:10A61B0058059446590202465A03E8465B005646D3
:10A62B005C0600465D0545465E0554465F281D46A3
:10A63B0060000B4661005146620A00466305934673
:10A64B0064059446650202466603E8466700574672
:10A65B00680A06466905EA466A0594466B02024695
:10A66B006C03E8466D0058466E0A00466F0593462C
:10A67B0070059446710202467203E8467300594610
:10A68B00740A06467505EA46760594467702024635
:10A69B007803E84679005A467A0A10467B059346BA
:10A6AB007C0594467D0202467E03E8467F005B46AE
:10A6BB00800A06468105EA468205944683020246D5
:10A6CB008403E84685005C4686020046870568469B
:10A6DB0088057D46892B2A468A0044468B00004616
:10A6EB008C0200468D05B5468E05C0468F17164663
:10A6FB0090002046910000469206484693059B46E3
:10A70B009405A646951615469602F04697002046E8
:10A71B009802004699059B469A05A6469B16154638
:10A72B009C0020469D0000469E0210469F059B46BE
:10A73B00A005A646A1161546A2002046A30000467A
:10A74B00A44B4E46A5454846A63F4246A7393C4634
:10A75B00A8333646A92D3046AA2A3346AB242746C2
:10A76B00AC1E2146AD1B3346AE331846AF12154611
:10A77B00B00C0F46B1060946B2FF0346B3FFFF46C6
:10A78B00B4020246B505B146B605B346B704044656
:10A79B00B8002B46B9000046BA064846BB05B14681
:10A7AB00BC05B346BD040446BE005A46BF002B464B
:10A7BB00C0020046C1059546C2059646C302024635
:10A7CB00C4001E46C5000046C6020046C705954696
:10A7DB00C8059446C9020246CA003A46CB00004659
:10A7EB00CC0A0646CD059A46CE059446CF020246C4
:10A7FB00D003E846D1001946D2020046D305954650
:10A80B00D4059446D5020246D6003946D7000046F9
:10A81B00D8024046D9059546DA059946DB02024631
:10A82B00DC003A46DD000046DE0A0646DF059A46A6
:10A83B00E0059446E1020246E203E846E3001A46CD
:10A84B00E4020046E5059546E6059946E702024611
:10A85B00E8003946E9000046EA020046EB0595465A
:10A86B00EC059946ED020246EE003A46EF00004633
:10A87B00F00A0646F1059A46F2059446F3020246A3
:10A88B00F403E846F5001B46F60A0646F7059A461A
:10A89B00F8059446F9020246FA03E846FB001C460B
:10A8AB00FC060046FD059546FE059946FF0202474C
:10A8BB0000000B4701003947020A064703059A4778
:10A8CB0004059447050202470603E84707001D47A6
:10A8DB00080A064709059A470A0594470B020247DF
:10A8EB000C03E8470D001E470E0200470F05954766
:10A8FB00100599471102024712001E47130000472B
:10A90B00140A064715059A4716059447170202477E
:10A91B001803E84719001F471A0200471B05974702
:10A92B001C0598471D0202471E001E471F000047CB
:10A93B00200200472105B1472205B34723040447F2
:10A94B002400074725000047260648472705B1473F
:10A95B002805B347290404472A02F0472B00074771
:10A96B002C0200472D05B1472E05B3472F04044792
:10A97B003000074731000047320200473305B1472B
:10A98B003405B34735040447360007473700004703
:10A99B00383F424739393C473A3336473B2D3047EE
:10A9AB003C272A473D2A24473E2127473F271E475E
:10A9BB00402A1B474118274742152A47430F124786
:10A9CB0044090C474503064746FFFF4747FFFF4730
:10A9DB00480212474905EC474A0594474B02024788
:10A9EB004C004D474D0000474E0200474F05ED47C9
:10A9FB005005EE47510202475200334753000047C0
:10AA0B00540A06475505EF475605F047570A0247C4
:10AA1B005802F04759004B475A0206475B05F5476A
:10AA2B005C05F6475D0602475E000A475F0000477C
:10AA3B00600210476105CC476205D9476319194776
:10AA4B006400204765000047660A00476705934787
:10AA5B0068059447690202476A03E8476B0054474D
:10AA6B006C0200476D05E6476E05E8476F03034729
:10AA7B007000204771000047720A404773059347E7
:10AA8B0074059447750202477603E84777005347EE
:10AA9B0078020047790536477A053B477B1409470F
:10AAAB007C0051477D0000477E0A00477F05934796
:10AABB0080059447810202478203E847830052478F
:10AACB00840A00478505934786059447870202470A
:10AADB008803E847890053478A0600478B0545479B
:10AAEB008C0554478D281D478E000B478F0051470F
:10AAFB00900A0047910593479205944793020247AA
:10AB0B009403E84795005547960A004797059347E6
:10AB1B0098059447990202479A03E8479B005447CC
:10AB2B009C0A10479D0593479E0594479F02024739
:10AB3B00A003E847A1005547A2020047A3056847B9
:10AB4B00A4057D47A52B2A47A6004447A70000472D
:10AB5B00A8020047A905B547AA05C047AB1716477A
:10AB6B00AC002047AD000047AE064847AF059B47FA
:10AB7B00B005A647B1161547B202F047B300204700
:10AB8B00B4020047B5059B47B605A647B716154750
:10AB9B00B8002047B9000047BA021047BB059B47D6
:10ABAB00BC05A647BD161547BE002047BF00004792
:10ABBB00C0393C47C1333647C22D3047C3272A47DC
:10ABCB00C4212447C51E2447C6181B47C715244755
:10ABDB00C8122447C90C0F47CA060947CBFF0347C6
:10ABEB00CC020247CD05B147CE05B347CF0404478E
:10ABFB00D0002B47D1000047D2064847D305B147B9
:10AC0B00D405B347D5040447D6005A47D7002B4782
:10AC1B00D8020047D9059547DA059647DB0202476C
:10AC2B00DC001E47DD000047DE020047DF059547CD
:10AC3B00E0059447E1020247E2003A47E300004790
:10AC4B00E40A0647E5059A47E6059447E7020247FB
:10AC5B00E803E847E9001947EA020047EB05954787
:10AC6B00EC059447ED020247EE003947EF00004731
:10AC7B00F0024047F1059547F2059947F302024769
:10AC8B00F4003A47F5000047F60A0647F7059A47DE
:10AC9B00F8059447F9020247FA03E847FB001A4705
:10ACAB00FC020047FD059547FE059947FF02024848
:10ACBB00000039480100004802020048030595488E
:10ACCB00040599480502024806003A480700004867
:10ACDB00080A064809059A480A0594480B020248D7
:10ACEB000C03E8480D001B480E0A06480F059A484E
:10ACFB0010059448110202481203E84813001C483F
:10AD0B001406004815059548160599481702024880
:10AD1B0018000B48190039481A0A06481B059A48AF
:10AD2B001C0594481D0202481E03E8481F001D48DD
:10AD3B00200A064821059A48220594482302024816
:10AD4B002403E84825001E4826020048270595489D
:10AD5B0028059948290202482A001E482B00004862
:10AD6B002C0A06482D059A482E0594482F020248B6
:10AD7B003003E84831001F4832020048330597483A
:10AD8B00340598483502024836001E483700004803
:10AD9B00380200483905B1483A05B3483B0404482A
:10ADAB003C0007483D0000483E0648483F05B14877
:10ADBB004005B348410404484202F04843000748A9
:10ADCB00440200484505B1484605B34847040448CA
:10ADDB0048000748490000484A0200484B05B14863
:10ADEB004C05B3484D0404484E0007484F0000483B
:10ADFB00503F424851393C4852333648532D304826
:10AE0B0054272A48552A24485621274857271E4895
:10AE1B00582A1B48591827485A152A485B0F1248BD
:10AE2B005C090C485D0306485EFFFF485FFFFF4867
:10AE3B00600212486105EC486205944863020248BF
:10AE4B0064004D4865000048660200486705ED4800
:10AE5B006805EE48690202486A0033486B000048F7
:10AE6B006C0A06486D05EF486E05F0486F0A0248FC
:10AE7B007002F04871004B48720206487305F548A2
:10AE8B007405F6487506024876000A4877000048B4
:10AE9B00780210487905CC487A05D9487B191948AE
:10AEAB007C0020487D0000487E0A00487F059348BF
:10AEBB0080059448810202488203E8488300544885
:10AECB00840200488505E6488605E8488703034861
:10AEDB0088002048890000488A0A40488B0593481F
:10AEEB008C0594488D0202488E03E8488F00534826
:10AEFB00900200489105364892053B489314094847
:10AF0B009400514895000048960A004897059348CD
:10AF1B0098059448990202489A03E8489B005248C6
:10AF2B009C0A00489D0593489E0594489F02024841
:10AF3B00A003E848A1005348A2060048A3054548D2
:10AF4B00A4055448A5281D48A6000B48A700514846
:10AF5B00A80A0048A9059348AA059448AB020248E1
:10AF6B00AC03E848AD005548AE0A0048AF0593481E
:10AF7B00B0059448B1020248B203E848B300544804
:10AF8B00B40A1048B5059348B6059448B702024871
:10AF9B00B803E848B9005548BA020048BB056848F1
:10AFAB00BC057D48BD2B2A48BE004448BF00004865
:10AFBB00C0020048C105B548C205C048C3171648B2
:10AFCB00C4002048C5000048C6064848C7059B4832
:10AFDB00C805A648C9161548CA02F048CB00204838
:10AFEB00CC020048CD059B48CE05A648CF16154888
:10AFFB00D0002048D1000048D2021048D3059B480E
:10B00B00D405A648D5161548D6003448D7000048B5
:10B01B00D8393C48D9333648DA2D3048DB272A4813
:10B02B00DC212448DD1E2448DE181B48DF1524488C
:10B03B00E0122448E10C0F48E2060948E3FF0348FD
:10B04B00E4020248E505B148E605B348E7040448C5
:10B05B00E8002B48E9000048EA064848EB05B148F0
:10B06B00EC05B348ED040448EE005A48EF002B48BA
:10B07B00F0020048F1059548F2059648F3020248A4
:10B08B00F4001E48F5000048F6020048F705954805
:10B09B00F8059448F9020248FA003A48FB000048C8
:10B0AB00FC0A0648FD059A48FE059448FF02024932
:10B0BB000003E84901005449020200490305954980
:10B0CB00040594490502024906001B490700004983
:10B0DB0008024049090595490A0599490B0202499D
:10B0EB000C003A490D0000490E0A06490F059A4912
:10B0FB0010059449110202491203E84913005549FE
:10B10B00140200491505954916059949170202497C
:10B11B0018003949190000491A0200491B059549C5
:10B12B001C0599491D0202491E003A491F0000499E
:10B13B00200A064921059A4922059449230202490E
:10B14B002403E84925005649260A064927059A494A
:10B15B0028059449290202492A03E8492B0057493B
:10B16B002C0600492D0595492E0599492F020249B8
:10B17B0030000B4931003949320A064933059A49E7
:10B18B0034059449350202493603E84937005849DA
:10B19B00380A064939059A493A0594493B0202494E
:10B1AB003C03E8493D0059493E0200493F0595499A
:10B1BB00400599494102024942001E49430000499A
:10B1CB00440A064945059A494605944947020249EE
:10B1DB004803E84949005A494A0200494B05974937
:10B1EB004C0598494D0202494E001E494F0000493B
:10B1FB00500200495105B1495205B3495304044962
:10B20B005400074955000049560648495705B149AE
:10B21B005805B349590404495A02F0495B000749E0
:10B22B005C0200495D05B1495E05B3495F04044901
:10B23B006000074961000049620200496305B1499A
:10B24B006405B34965040449660007496700004972
:10B25B00683F424969393C496A3336496B2D30495D
:10B26B006C272A496D2A24496E2127496F271E49CD
:10B27B00702A1B497118274972152A49730F1249F5
:10B28B0074090C497503064976FFFF4977FFFF499F
:10B29B00780212497905EC497A0594497B020249F7
:10B2AB007C004D497D0000497E0200497F05ED4938
:10B2BB008005EE498102024982003349830000492F
:10B2CB00840A06498505EF498605F049870A024934
:10B2DB008802F04989004B498A0206498B05F549DA
:10B2EB008C05F6498D0602498E000A498F000049EC
:10B2FB00900210499105CC499205D94993191949E6
:10B30B009400204995000049960A004997059349F6
:10B31B0098059449990202499A03E8499B005449BC
:10B32B009C0200499D05E6499E05E8499F03034998
:10B33B00A0002049A1000049A20A4049A305934956
:10B34B00A4059449A5020249A603E849A70055495B
:10B35B00A8020049A9053649AA053B49AB1409497E
:10B36B00AC005149AD000049AE0A0049AF05934905
:10B37B00B0059449B1020249B203E849B3005649FA
:10B38B00B40A0049B5059349B6059449B702024979
:10B39B00B803E849B9005749BA060049BB05454906
:10B3AB00BC055449BD281D49BE000B49BF0051497E
:10B3BB00C00A0049C1059349C2059449C302024919
:10B3CB00C403E849C5005849C60A0049C705934953
:10B3DB00C8059449C9020249CA03E849CB00594937
:10B3EB00CC0A1049CD059349CE059449CF020249A9
:10B3FB00D003E849D1005A49D2020049D305684924
:10B40B00D4057D49D52B2A49D6004449D70000499C
:10B41B00D8020049D905B549DA05C049DB171649E9
:10B42B00DC002049DD000049DE064849DF059B4969
:10B43B00E005A649E1161549E202F049E30020496F
:10B44B00E4020049E5059B49E605A649E7161549BF
:10B45B00E8002049E9000049EA021049EB059B4945
:10B46B00EC05A649ED161549EE002049EF00004901
:10B47B00F0393C49F1333649F22D3049F3272A494B
:10B48B00F4212449F51E2449F6181B49F7152449C4
:10B49B00F8122449F90C0F49FA060949FBFF034935
:10B4AB00FC020749FD25F949FE03A049FF00004AAC
:10B4BB000088074A0125FA4A02064E4A0300004A51
:10B4CB000442074A0525FA4A0603A04A0700004A28
:10B4DB000802074A0925F94A0A03A04A0B00004A49
:10B4EB000C88074A0D25FA4A0E064E4A0F00004AF1
:10B4FB001042074A1125FA4A1203A04A1300004AC8
:10B50B001402074A1525F94A1603A04A1700004AE8
:10B51B001888074A1925FA4A1A064E4A1B00004A90
:10B52B001C42074A1D25FA4A1E03A04A1F00004A67
:10B53B002002074A2125F94A2203A04A2300004A88
:10B54B002488074A2525FA4A26064E4A2700004A30
:10B55B002842074A2925FA4A2A03A04A2B00004A07
:10B56B002C02074A2D25F94A2E03A04A2F00004A28
:10B57B003088074A3125FA4A32064E4A3300004AD0
:10B58B003442074A3525FA4A3603A04A3700004AA7
:10B59B003802074A3925F94A3A03A04A3B00004AC8
:10B5AB003C88074A3D25FA4A3E064E4A3F00004A70
:10B5BB004042074A4125FA4A4203A04A4300004A47
:10B5CB004402074A4525F94A4603A04A4700004A68
:10B5DB004888074A4925FA4A4A064E4A4B00004A10
:10B5EB004C42074A4D25FA4A4E03A04A4F00004AE7
:10B5FB005002074A5125F94A5203A04A5300004A08
:10B60B005488074A5525FA4A56064E4A5700004AAF
:10B61B005842074A5925FA4A5A03A04A5B00004A86
:10B62B005C2E304A5DFF2C4A5E292B4A5FFF274A6E
:10B63B006024264A61FF224A621F214A63FF1D4A8A
:10B64B00641A1C4A65FF184A6615174A67FF134AA6
:10B65B006810124A69FF0E4A6A0B0D4A6BFF094AC2
:10B66B006C00024A6D00064A6E00064A6F00064ADD
:10B67B007000064A7100064A7200064A73000C4AB3
:10B68B007400064A7500004A7600024A7700014AA8
:10B69B007801004A7900804A7A00204A7B00104AE0
:10B6AB007C00044A7D00024A7E02004A7F01004A68
:10B6BB008000404A8100204A8200084A8300044AE5
:10B6CB008400014A8502004A8600804A8700404A6E
:10B6DB008800104A8900084A8A00024A8B00064AF1
:10B6EB008C00064A8D00064A8E00064A8F00064AD9
:10B6FB009000064A91000C4A9200064A9300064AB3
:10B70B009400064A9500064A9600064A9700064A98
:10B71B009800064A9900064A9A00064A9B00064A78
:10B72B009C00064A9D00064A9E00064A9F00064A58
:10B73B00A000064AA100064AA200064AA300064A38
:10B74B00A400064AA5000C4AA600064AA700004A18
:10B75B00A800084AA900104AAA00404AAB00804A38
:10B76B00AC02004AAD00014AAE00044AAF00084AE1
:10B77B00B000204AB100404AB201004AB302004A6D
:10B78B00B400024AB500044AB600104AB700204A7A
:10B79B00B800804AB901004ABA00014ABB00024A0C
:10B7AB00BC00084ABD00104ABE00404ABF00804A98
:10B7BB00C002004AC100014AC200044AC300084A41
:10B7CB00C400204AC500404AC601004AC702004ACD
:10B7DB00C800024AC900044ACA00104ACB00204ADA
:10B7EB00CC00804ACD01004ACE00014ACF00024A6C
:10B7FB00D000024AD1002A4AD200064AD300064A98
:10B80B00D400064AD500064AD600064AD700064A97
:10B81B00D8000C4AD900064ADA00064ADB00064A71
:10B82B00DC00064ADD00064ADE00064ADF00064A57
:10B83B00E000064AE100064AE200064AE300064A37
:10B84B00E400064AE500064AE600064AE700064A17
:10B85B00E800064AE900064AEA00064AEB00064AF7
:10B86B00EC000C4AED00064AEE00064AEF00064AD1
:10B87B00F000064AF100064AF200064AF300064AB7
:10B88B00F400064AF500064AF600064AF700064A97
:10B89B00F800064AF9000C4AFA80204AFB00024ADB
:10B8AB00FC00014AFD01004AFE00804AFF00204BCC
:10B8BB000000104B0100044B0200024B0302004B33
:10B8CB000401004B0500404B0600204B0700084BC2
:10B8DB000800044B0900014B0A02004B0B00804B84
:10B8EB000C00404B0D00104B0E00084B0F00024B91
:10B8FB001000014B1101004B1200804B1300204B29
:10B90B001400104B1500044B1600024B1702004B92
:10B91B001801004B1900404B1A00204B1B00084B21
:10B92B001C00044B1D00014B1E02004B1F00804BE3
:10B93B002000404B2100104B2200084B2300024BF0
:10B94B002400024B2500004B26000A4B27000E4B10
:10B95B002800004B2900004B2A00014B2B00014B08
:10B96B002C00004B2D80CF4B2E00024B2F00AB4BEE
:10B97B0030000F4B3180CF4B3200004B33000F4B5D
:10B98B003400024B3500164B3600024B3700064B8A
:10B99B003800064B3900064B3A00064B3B00064B72
:10B9AB003C00064B3D000C4B3E00064B3F00064B4C
:10B9BB004000064B4100064B4200064B4300064B32
:10B9CB004400064B4500064B4600064B4700064B12
:10B9DB004800064B4900064B4A000C4B4B00004BF2
:10B9EB004C00024B4D00014B4E01004B4F00804B66
:10B9FB005000204B5100104B5200044B5300024B94
:10BA0B005402004B5501004B5600404B5700204B46
:10BA1B005800084B5900044B5A00014B5B02004B7A
:10BA2B005C00804B5D00404B5E00104B5F00084B91
:10BA3B006000024B6100024B6200024B6300144B2F
:10BA4B006400174B6500C64B6681004B6781004B4A
:10BA5B006880034B6980034B6A00024B6B00134BEE
:10BA6B006C00064B6D00064B6E00064B6F00064BD1
:10BA7B007000064B7100064B72000C4B7300064BAB
:10BA8B007400064B7500064B7600064B7700064B91
:10BA9B007800064B7900064B7A00064B7B00064B71
:10BAAB007C00064B7D00064B7E00064B7F000C4B4B
:10BABB008082004B8100024B8200014B8301004BC3
:10BACB008400804B8500204B8600104B8700044B75
:10BADB008800024B8902004B8A01004B8B00404BC4
:10BAEB008C00204B8D00084B8E00044B8F00014BBC
:10BAFB009002004B9100804B9200404B9300104BF7
:10BB0B009400084B9500024B9600024B9700004B9C
:10BB1B009800024B9900064B9A00064B9B00064B74
:10BB2B009C00064B9D00064B9E00064B9F000C4B4A
:10BB3B00A000064BA100064BA200064BA300064B30
:10BB4B00A400014BA500054BA600064BA700064B16
:10BB5B00A800064BA900064BAA00064BAB00064BF0
:10BB6B00AC00064BAD000C4BAE000C4BAF026D4B5B
:10BB7B00B0000A4BB100004BB200024BB300014BBB
:10BB8B00B401004BB500804BB600204BB700104BF7
:10BB9B00B800044BB900024BBA02004BBB01004B7F
:10BBAB00BC00404BBD00204BBE82004BBF00084B7E
:10BBBB00C000044BC100014BC202004BC300804BC1
:10BBCB00C400404BC500104BC600084BC700024BCE
:10BBDB00C800024BC900004BCA00004BCB00004B06
:10BBEB00CC00024BCD02944BCE000A4BCF00004B46
:10BBFB00D080204BD100004BD200004BD300004B28
:10BC0B00D400044BD500044BD600024BD700064B97
:10BC1B00D800024BD900144BDA00024BDB000C4B63
:10BC2B00DC00124BDD00844BDE00024BDF000C4BC3
:10BC3B00E000094BE100124BE200244BE300484BC0
:10BC4B00E400904BE501204BE602404BE700814BB3
:10BC5B00E801024BE902044BEA00024BEB000C4BF0
:10BC6B00EC00084BED00124BEE00244BEF00404B69
:10BC7B00F000A04BF100484BF2C0004BF3C0284B37
:10BC8B00F480004BF580284BF600004BF700914BEE
:10BC9B00F800004BF900104BFA00604BFB00FF4B18
:10BCAB00FC08474BFD00914BFE00004BFF00104C76
:10BCBB000000604C0100FF4C0208474C0300914C04
:10BCCB000400004C0500104C0600604C0700FF4CB4
:10BCDB000808474C0900914C0A00004C0B00104C13
:10BCEB000C00604C0D00FF4C0E08474C0F00914CA4
:10BCFB001000004C1100104C1200604C1300FF4C54
:10BD0B001408474C1500914C1600004C1700104CB2
:10BD1B001800604C1900FF4C1A08474C1B00914C43
:10BD2B001C00004C1D00104C1E00604C1F00FF4CF3
:10BD3B002008474C2100914C2200004C2300104C52
:10BD4B002400604C2500FF4C2608474C270C4F4C19
:10BD5B00280C584C290C614C2A0C6A4C2B0C734C3C
:10BD6B002C0C7C4C2D0C854C2E0C8E4C2F0CC84C5B
:10BD7B00300CF64C310D024C320D084C330D1A4C75
:10BD8B00340D484C350D544C360D5A4C370D6C4C0C
:10BD9B00380D9A4C390DA64C3A0DAC4C3B0DBE4CA4
:10BDAB003C0DEC4C3D0DF84C3E0DFE4C3F0E104C3B
:10BDBB00400E3E4C410E4A4C420E504C430E624CD0
:10BDCB00440E904C450E9C4C460EA24C470EB44C68
:10BDDB00480EE24C490EEE4C4A0EF44C4B0F064CFF
:10BDEB004C0F344C4D0F404C4E0F464C4F0BF74CF9
:10BDFB0050052E4C5100D64C520AC74C5300924C56
:10BE0B0054FFFF4C55FFFF4C560C2F4C57FF674C04
:10BE1B00580BFD4C59052F4C5A01624C5B0B814C56
:10BE2B005C011E4C5DFFFF4C5EFFFF4C5F0C334C07
:10BE3B0060FF674C610C034C6205304C6301EE4CA8
:10BE4B00640C3B4C6501AA4C66FFFF4C67FFFF4C33
:10BE5B00680C374C69FF674C6A0C094C6B05314C0D
:10BE6B006C029F4C6D0D2B4C6E02484C6FFFFF4CC0
:10BE7B0070FFFF4C710C3B4C72FF674C730C0F4CFB
:10BE8B007405324C7503524C760E1D4C7702FB4CED
:10BE9B0078FFFF4C79FFFF4C7A0C3F4C7BFF674CD4
:10BEAB007C0C154C7D05334C7E03E04C7F0ED94C3E
:10BEBB0080039C4C81FFFF4C82FFFF4C830C434C57
:10BECB0084FF674C850C1B4C8605344C87046C4CEB
:10BEDB00880F934C8904284C8AFFFF4C8BFFFF4C37
:10BEEB008C0C474C8DFF674C8E0C214C8F05354CC1
:10BEFB009004F84C91104D4C9204B44C93FFFF4CB2
:10BF0B0094FFFF4C950C4B4C96FF674C9700004CE5
:10BF1B009800004C9900004C9A00004C9B00004C80
:10BF2B009C00004C9D00004C9E00004C9F00004C60
:10BF3B00A000004CA100004CA200004CA300004C40
:10BF4B00A400004CA500004CA600004CA700004C20
:10BF5B00A800004CA900004CAA00004CAB00004C00
:10BF6B00AC00004CAD00004CAE00004CAF00004CE0
:10BF7B00B000004CB100004CB200004CB300004CC0
:10BF8B00B400004CB500004CB600004CB700004CA0
:10BF9B00B800004CB900004CBA00004CBB00004C80
:10BFAB00BC00004CBD00004CBE00004CBF00004C60
:10BFBB00C000004CC100004CC200004CC300004C40
:10BFCB00C400004CC500004CC600004CC800064C19
:10BFDB00C9C0204CCA00864CCB11674CCC200C4CF2
:10BFEB00CD00004CCE00864CCF07D04CD001064C78
:10BFFB00D100004CD241014CD300014CD408884CE9
:10C00B00D5000D4CD600024CD70CDA4CD8000B4C9B
:10C01B00D90CD24CDA00064CDBC0C24CDC00864C8F
:10C02B00DD00004CDE200C4CDF00004CE000064C29
:10C03B00E17C0B4CE200864CE300FF4CE4200C4C03
:10C04B00E500004CE600064CE7C0EF4CE800864CE0
:10C05B00E900004CEA200C4CEB00004CEC00064CC9
:10C06B00EDC08E4CEE00864CEF006C4CF0200C4C6F
:10C07B00F100004CF219864CF30CF64CF400354CE5
:10C08B00F5000D4CF600064CF72FFF4CF800864CD4
:10C09B00F928114CFA008C4CFB00004CFC001B4C9B
:10C0AB00FD13A24CFE19864CFF0D024D0000354DC1
:10C0BB0001000D4D02001B4D0313804D0419864DDD
:10C0CB00050D084D0600354D07000D4D0800064DBA
:10C0DB00092FFF4D0A00864D0B28114D0C008C4D7E
:10C0EB000D00004D0E00064D0F00004D1000864D4B
:10C0FB001128124D12008C4D1300004D14001B4DD6
:10C10B0015107E4D1619864D170CC84D1800354D60
:10C11B0019000D4D1A00064D1BC0204D1C00864DFD
:10C12B001D11674D1E200C4D1F00004D2000864D2C
:10C13B002107D04D2201064D2300004D2441014D16
:10C14B002500014D2608884D27000D4D2800024D76
:10C15B00290D2C4D2A000B4D2B0D244D2C00064D7B
:10C16B002DC0C24D2E00864D2F00004D30200C4DA2
:10C17B003100004D3200064D337C0B4D3400864DA3
:10C18B003500FF4D36200C4D3700004D3800064D65
:10C19B0039C0EF4D3A00864D3B00004D3C200C4D15
:10C1AB003D00004D3E00064D3FC08E4D4000864D7C
:10C1BB0041006C4D42200C4D4300004D4419864DFF
:10C1CB00450D484D4600354D47000D4D4800064D79
:10C1DB00492F2F4D4A00864D4B28114D4C008C4D4D
:10C1EB004D00004D4E001B4D4F13A24D5019864D67
:10C1FB00510D544D5200354D53000D4D54001B4DF8
:10C20B005513804D5619864D570D5A4D5800354DC7
:10C21B0059000D4D5A00064D5B2F2F4D5C00864D7E
:10C22B005D28114D5E008C4D5F00004D6000064D8A
:10C23B006100014D6200864D6328124D64008C4DE8
:10C24B006500004D66001B4D67107E4D6819864DCD
:10C25B00690D1A4D6A00354D6B000D4D6C00064D86
:10C26B006DC0204D6E00864D6F11674D70200C4DCB
:10C27B007100004D7200864D7307D04D7401064D51
:10C28B007500004D7641014D7700014D7808884DC2
:10C29B0079000D4D7A00024D7B0D7E4D7C000B4DD0
:10C2AB007D0D764D7E00064D7FC0C24D8000864DC4
:10C2BB008100004D82200C4D8300004D8400064D03
:10C2CB00857C0B4D8600864D8700FF4D88200C4DDD
:10C2DB008900004D8A00064D8BC0EF4D8C00864DBA
:10C2EB008D00004D8E200C4D8F00004D9000064DA3
:10C2FB0091C08E4D9200864D93006C4D94200C4D49
:10C30B009500004D9619864D970D9A4D9800354D19
:10C31B0099000D4D9A00064D9B2E5F4D9C00864D4E
:10C32B009D28114D9E008C4D9F00004DA0001B4D74
:10C33B00A113A24DA219864DA30DA64DA400354DF8
:10C34B00A5000D4DA6001B4DA713804DA819864DBA
:10C35B00A90DAC4DAA00354DAB000D4DAC00064DF3
:10C36B00AD2E5F4DAE00864DAF28114DB0008C4DFC
:10C37B00B100004DB200064DB300024DB400864D26
:10C38B00B528124DB6008C4DB700004DB8001B4DB3
:10C39B00B9107E4DBA19864DBB0D6C4DBC00354D99
:10C3AB00BD000D4DBE00064DBFC0204DC000864DDB
:10C3BB00C111674DC2200C4DC300004DC400864D0A
:10C3CB00C507D04DC601064DC700004DC841014DF4
:10C3DB00C900014DCA08884DCB000D4DCC00024D54
:10C3EB00CD0DD04DCE000B4DCF0DC84DD000064D11
:10C3FB00D1C0C24DD200864DD300004DD4200C4D80
:10C40B00D500004DD600064DD77C0B4DD800864D80
:10C41B00D900FF4DDA200C4DDB00004DDC00064D42
:10C42B00DDC0EF4DDE00864DDF00004DE0200C4DF2
:10C43B00E100004DE200064DE3C08E4DE400864D59
:10C44B00E5006C4DE6200C4DE700004DE819864DDC
:10C45B00E90DEC4DEA00354DEB000D4DEC00064DB2
:10C46B00ED2D8F4DEE00864DEF28114DF0008C4DCC
:10C47B00F100004DF2001B4DF313A24DF419864D44
:10C48B00F50DF84DF600354DF7000D4DF8001B4D31
:10C49B00F913804DFA19864DFB0DFE4DFC00354D01
:10C4AB00FD000D4DFE00064DFF2D8F4E0000864EFC
:10C4BB000128114E02008C4E0300004E0400064E64
:10C4CB000500034E0600864E0728124E08008C4EC0
:10C4DB000900004E0A001B4E0B107E4E0C19864EA7
:10C4EB000D0DBE4E0E00354E0F000D4E1000064EBC
:10C4FB0011C0204E1200864E1311674E14200C4EA5
:10C50B001500004E1600864E1707D04E1801064E2A
:10C51B001900004E1A41014E1B00014E1C08884E9B
:10C52B001D000D4E1E00024E1F0E224E20000B4E04
:10C53B00210E1A4E2200064E23C0C24E2400864EF8
:10C54B002500004E26200C4E2700004E2800064EDC
:10C55B00297C0B4E2A00864E2B00FF4E2C200C4EB6
:10C56B002D00004E2E00064E2FC0EF4E3000864E93
:10C57B003100004E32200C4E3300004E3400064E7C
:10C58B0035C08E4E3600864E37006C4E38200C4E22
:10C59B003900004E3A19864E3B0E3E4E3C00354E4E
:10C5AB003D000D4E3E00064E3F2CBF4E4000864ECA
:10C5BB004128114E42008C4E4300004E44001B4E4E
:10C5CB004513A24E4619864E470E4A4E4800354E2D
:10C5DB0049000D4E4A001B4E4B13804E4C19864E94
:10C5EB004D0E504E4E00354E4F000D4E5000064E28
:10C5FB00512CBF4E5200864E5328114E54008C4E78
:10C60B005500004E5600064E5700044E5800864EFD
:10C61B005928124E5A008C4E5B00004E5C001B4E8C
:10C62B005D107E4E5E19864E5F0E104E6000354ECD
:10C63B0061000D4E6200064E63C0204E6400864EB4
:10C64B006511674E66200C4E6700004E6800864EE3
:10C65B006907D04E6A01064E6B00004E6C41014ECD
:10C66B006D00014E6E08884E6F000D4E7000024E2D
:10C67B00710E744E72000B4E730E6C4E7400064EA0
:10C68B0075C0C24E7600864E7700004E78200C4E59
:10C69B007900004E7A00064E7B7C0B4E7C00864E5A
:10C6AB007D00FF4E7E200C4E7F00004E8000064E1C
:10C6BB0081C0EF4E8200864E8300004E84200C4ECC
:10C6CB008500004E8600064E87C08E4E8800864E33
:10C6DB0089006C4E8A200C4E8B00004E8C19864EB6
:10C6EB008D0E904E8E00354E8F000D4E9000064EE7
:10C6FB00912BEF4E9200864E9328114E94008C4E48
:10C70B009500004E96001B4E9713A24E9819864E1D
:10C71B00990E9C4E9A00354E9B000D4E9C001B4E65
:10C72B009D13804E9E19864E9F0EA24EA000354E35
:10C73B00A1000D4EA200064EA32BEF4EA400864E79
:10C74B00A528114EA6008C4EA700004EA800064E41
:10C75B00A900054EAA00864EAB28124EAC008C4E9B
:10C76B00AD00004EAE001B4EAF107E4EB019864E84
:10C77B00B10E624EB200354EB3000D4EB400064EF4
:10C78B00B5C0204EB600864EB711674EB8200C4E82
:10C79B00B900004EBA00864EBB07D04EBC01064E08
:10C7AB00BD00004EBE41014EBF00014EC008884E79
:10C7BB00C1000D4EC200024EC30EC64EC4000B4E3E
:10C7CB00C50EBE4EC600064EC7C0C24EC800864E32
:10C7DB00C900004ECA200C4ECB00004ECC00064EBA
:10C7EB00CD7C0B4ECE00864ECF00FF4ED0200C4E94
:10C7FB00D100004ED200064ED3C0EF4ED400864E71
:10C80B00D500004ED6200C4ED700004ED800064E59
:10C81B00D9C08E4EDA00864EDB006C4EDC200C4EFF
:10C82B00DD00004EDE19864EDF0EE24EE000354E87
:10C83B00E1000D4EE200064EE32B1F4EE400864E48
:10C84B00E528114EE6008C4EE700004EE8001B4E2B
:10C85B00E913A24EEA19864EEB0EEE4EEC00354E66
:10C86B00ED000D4EEE001B4EEF13804EF019864E71
:10C87B00F10EF44EF200354EF3000D4EF400064E61
:10C88B00F52B1F4EF600864EF728114EF8008C4EF6
:10C89B00F900004EFA00064EFB00064EFC00864ED9
:10C8AB00FD28124EFE008C4EFF00004F00001B4F68
:10C8BB0001107E4F0219864F030EB44F0400354F03
:10C8CB0005000D4F0600064F07C0204F0800864F8E
:10C8DB000911674F0A200C4F0B00004F0C00864FBD
:10C8EB000D07D04F0E01064F0F00004F1041014FA7
:10C8FB001100014F1208884F13000D4F1400024F07
:10C90B00150F184F16000B4F170F104F1800064F2F
:10C91B0019C0C24F1A00864F1B00004F1C200C4F32
:10C92B001D00004F1E00064F1F7C0B4F2000864F33
:10C93B002100FF4F22200C4F2300004F2400064FF5
:10C94B0025C0EF4F2600864F2700004F28200C4FA5
:10C95B002900004F2A00064F2BC08E4F2C00864F0C
:10C96B002D006C4F2E200C4F2F00004F3019864F8F
:10C97B00310F344F3200354F33000D4F3400064F1B
:10C98B0035297F4F3600864F3728114F38008C4F93
:10C99B003900004F3A001B4F3B13A24F3C19864FF7
:10C9AB003D0F404F3E00354F3F000D4F40001B4F9A
:10C9BB004113804F4219864F430F464F4400354F6A
:10C9CB0045000D4F4600064F47297F4F4800864FC5
:10C9DB004928114F4A008C4F4B00004F4C00064F1B
:10C9EB004D00084F4E00864F4F28124F50008C4F72
:10C9FB005100004F52001B4F53107E4F5419864F5E
:10CA0B00550F064F5600354F57000D4F5818064F10
:10CA1B00590F6E4F5A19064F5B0F704F5C1A064F2A
:10CA2B005D0F764F5E1B864F5F0F784F6003864F0F
:10CA3B006100004F6205864F63003F4F64039C4FBC
:10CA4B0065C75E4F66038C4F67000D4F68039C4FA5
:10CA5B0069C7304F6A038C4F6B000E4F6C00154F3C
:10CA6B006D00254F6E000B4F6F0FE24F70039C4F05
:10CA7B007100014F72001C4F7300004F7400034F85
:10CA8B0075000D4F76000B4F77100E4F7800064F49
:10CA9B007900014F7A038C4F7BC07F4F7C81864F8F
:10CAAB007D000F4F7E00354F7F000D4F8000064FEE
:10CABB00811F1F4F82038C4F83C7314F8400064F5A
:10CACB008500004F86038C4F87C75E4F88039C4FB2
:10CADB0089C08C4F8A239C4F8BC08D4F8C01064F86
:10CAEB008D00004F8E438C4F8FC08C4F90438C4FDB
:10CAFB0091C08D4F9201064F9300004F94438C4F82
:10CB0B0095C07F4F96038C4F97C08C4F98238C4FBB
:10CB1B0099C08D4F9A00064F9B00014F9C038C4F81
:10CB2B009DC3DD4F9E039C4F9FC3004FA000864FBC
:10CB3B00A1FFFE4FA204204FA3000D4FA4038C4F67
:10CB4B00A5C3004FA605864FA700014FA881864FAE
:10CB5B00A900004FAA00354FAB000D4FAC001B4F87
:10CB6B00AD102A4FAE80864FAF00024FB0001B4F67
:10CB7B00B113D44FB200354FB3000D4FB400064F75
:10CB8B00B51F1F4FB6038C4FB7C7314FB800064FB9
:10CB9B00B900004FBA038C4FBBC75E4FBC039C4F11
:10CBAB00BDC08C4FBE239C4FBFC08D4FC001064FE5
:10CBBB00C100004FC2438C4FC3C08C4FC4438C4F3A
:10CBCB00C5C08D4FC601064FC700004FC8438C4FE1
:10CBDB00C9C07F4FCA038C4FCBC08C4FCC238C4F1B
:10CBEB00CDC08D4FCE00064FCF00014FD0038C4FE1
:10CBFB00D1C3DD4FD2039C4FD3C3004FD400864F1C
:10CC0B00D5FFFE4FD604204FD7000D4FD8038C4FC6
:10CC1B00D9C3004FDA05864FDB00014FDC81864F0D
:10CC2B00DD00004FDE001B4FDF102A4FE000354FB9
:10CC3B00E1000D4FE200064FE31F1F4FE4038C4F43
:10CC4B00E5C7314FE600064FE700004FE8038C4F76
:10CC5B00E9C75E4FEA039C4FEBC08C4FEC239C4F14
:10CC6B00EDC08D4FEE01064FEF00004FF0438C4FA0
:10CC7B00F1C08C4FF2438C4FF3C08D4FF401064F34
:10CC8B00F500004FF6438C4FF7C07F4FF8038C4FE6
:10CC9B00F9C08C4FFA238C4FFBC08D4FFC00064F15
:10CCAB00FD00014FFE038C4FFFC3DD5000039C5072
:10CCBB0001C300500200865003FFFE5004042050B5
:10CCCB0005000D5006038C5007C300500805865015
:10CCDB00090001500A8186500B0000500C003550A2
:10CCEB000D000D500E039C500FC3005010008650CA
:10CCFB00110001501204285013000D5014038C50D6
:10CD0B0015C30050160006501710105018038C5006
:10CD1B0019C731501A039C501B000D501C038C502B
:10CD2B001DC75E501E039C501F000E5020038C50DD
:10CD3B0021C730502205865023003F5024001B5042
:10CD4B0025102A5026808650270001502800355088
:10CD5B00290035502A039C502B0000502C00865084
:10CD6B002D0C27502E4400502F000D5030411C50DD
:10CD7B003100005032611C503300015034638C5031
:10CD8B00353D255036611C503700025038638C50AE
:10CD9B00393D40503A611C503B0003503C638C5072
:10CDAB003D3D60503E611C503F00045040638C5031
:10CDBB00413D805042611C504300055044638C50F0
:10CDCB00453C355046611C504700065048638C501B
:10CDDB00493C36504A0186504BFF62504C638C5095
:10CDEB004D3C20504E611C504F00005050A19C50A8
:10CDFB005100005052A38C50533D425054A19C50B3
:10CE0B005500015056A38C50573D435058A19C5090
:10CE1B00590002505AA38C505B3D62505CA19C5050
:10CE2B005D0003505E0006505FC7905060201C50A1
:10CE3B00610000506200A150630004506400025076
:10CE4B0065106C5066A2A950673C005068A38C50CB
:10CE5B00693D63506A000B506B106E506CA38C5085
:10CE6B006D3D63506EA19C506F00045070A38C50AD
:10CE7B00713D825072A19C507300055074A38C506D
:10CE8B00753D835076611C507700075078A19C50FC
:10CE9B00790000507AA38C507B3C33507C0055506A
:10CEAB007D000D507E0086507FC08E508000065056
:10CEBB0081006C5082008C5083000050840086509F
:10CECB008528115086009C508700005088205C50AC
:10CEDB008900B0508A405C508B0046508C68A05043
:10CEEB008D000D508E0002508F111A5090018650FC
:10CEFB0091C74050920086509328025094419C5009
:10CF0B009500005096408C509700005098219C50F3
:10CF1B00990000509A8089509B0800509C004A5001
:10CF2B009D10A0509E000B509F10A250A020A95006
:10CF3B00A1F00050A2605C50A3004F50A4405C5085
:10CF4B00A5004D50A68D0850A7000D50A8000A5003
:10CF5B00A910BA50AA8C8850AB000D50AC000A50E7
:10CF6B00AD10B250AE888850AF000D50B0000B50D2
:10CF7B00B110CA50B2898850B3A58850B4A2C15021
:10CF8B00B5000150B6960050B7000D50B8000B50CD
:10CF9B00B910CA50BA8C8850BB000D50BC000A5057
:10CFAB00BD10C650BE8C8850BFAD0850C0A2C1503A
:10CFBB00C1000150C2960050C3000D50C4000B506D
:10CFCB00C510CA50C6850850C7000D50C8824150C5
:10CFDB00C9000150CA220150CB000050CC805C50DC
:10CFEB00CD004B50CEA05C50CF004A50D0C08150EA
:10CFFB00D1000050D2000A50D310DE50D40106509D
:10D00B00D5000050D6550050D7308850D8004A5024
:10D01B00D910D650DA550850DB000D50DC000B5000
:10D02B00DD10EA50DE010650DF000050E0550850DD
:10D03B00E1308050E2018650E3000050E4658850F7
:10D04B00E5000D50E6004A50E710E050E85500505F
:10D05B00E9000D50EA600950EB00CF50EC418C50C9
:10D06B00ED000050EE018650EF280550F0418C503A
:10D07B00F1000050F2805C50F3004C50F4A05C5077
:10D08B00F5004E50F6230150F7000050F8000A50FF
:10D09B00F9110450FA010650FB000050FC550850E2
:10D0AB00FD308850FE004A50FF10FC5100550051D6
:10D0BB0001000D5102000B510311105104010651D7
:10D0CB00050000510655005107308051080186516B
:10D0DB00090000510A6588510B000D510C004A5193
:10D0EB000D1106510E5508510F000D5110600951CD
:10D0FB001100CE5112212151137FFF5114218C515C
:10D10B0015000051160186511728045118218C5116
:10D11B00190000511A0006511B2811511C401C51BB
:10D12B001D0000511E0006511F28125120A01C513A
:10D13B002100005122000651232800512422815145
:10D14B002500005126200C512700005128000651C4
:10D15B00290000512A0086512B000F512C209C5185
:10D16B002D0000512E20A1512F00025130004251B1
:10D17B0031114051320086513300005134238C5110
:10D18B0035001551360006513728035138201C51F4
:10D19B00390000513A1488513B000D513C000251AB
:10D1AB003D1150513E000B513F11525140215C51EA
:10D1BB004100015142639C5143001551440C88516D
:10D1CB0045000D51460052514711505148008651B0
:10D1DB00490000514A238C514B0015514C215C5195
:10D1EB004D0002514E000B514F11525150228151A3
:10D1FB0051000051520381515300005154200C51E6
:10D20B0055000051560089515700005158004251AA
:10D21B0059115E515A0106515B2FFF515C000B51A6
:10D22B005D119C515E0089515F00015160004251BC
:10D23B006111665162010651632F2F5164000B512E
:10D24B0065119C516600895167000251680042517B
:10D25B0069116E516A0106516B2E5F516C000B51B7
:10D26B006D119C516E0089516F000351700042513A
:10D27B007111765172010651732D8F5174000B5140
:10D28B0075119C51760089517700045178004251F9
:10D29B0079117E517A0106517B2CBF517C000B51C9
:10D2AB007D119C517E0089517F00055180004251B8
:10D2BB008111865182010651832BEF5184000B5152
:10D2CB0085119C5186008951870006518800425177
:10D2DB0089118E518A0106518B2B1F518C000B51DA
:10D2EB008D119C518E0089518F0007519000425136
:10D2FB009111965192010651932A4F5194000B5163
:10D30B0095119C51960089519700085198004251F4
:10D31B0099137C519A0106519B297F519C00065110
:10D32B009D00CF519E215C519F00CF51A0004251D7
:10D33B00A1136051A2000651A3C3CC51A4215C518F
:10D34B00A5000051A6200C51A7000051A8000651C2
:10D35B00A9C34A51AA215C51AB000351AC20A9517E
:10D36B00AD800051AE200C51AF000051B000065102
:10D37B00B1C08451B2215C51B3004751B4200C5160
:10D38B00B5000051B6200C51B7000151B800065141
:10D39B00B9C37E51BA215C51BB000551BCA15C5194
:10D3AB00BD00CE51BE268051BF000D51C0200C5187
:10D3BB00C1000051C2000651C3C38051C4215C514E
:10D3CB00C5000651C6200C51C7000051C8000651BC
:10D3DB00C9C38151CA215C51CB000751CCA15C510F
:10D3EB00CD00CF51CE268051CF000D51D0200C5106
:10D3FB00D1000051D2028651D3000851D4020651FC
:10D40B00D5000051D6008651D7C38251D80209519D
:10D41B00D9003E51DA000251DB11E651DC75545153
:10D42B00DD000D51DEA28151DF000151E060AC51F6
:10D43B00E1000151E2820151E3000151E4000B5183
:10D44B00E511D851E6018651E7000251E8638C5192
:10D45B00E9C03351EA018651EB001051EC638C515A
:10D46B00EDC03251EE018651EF000051F0638C514B
:10D47B00F1C73051F2615C51F3004651F4638C51AA
:10D48B00F5000D51F6638C51F7C75E51F8019151C0
:10D49B00F9000851FA61A851FB000D51FC638C5146
:10D4AB00FD000E51FE638C51FFC7305200615C5280
:10D4BB000100C4520261A152030FFF5204815C525E
:10D4CB000500C5520682115207000C5208AE2852B5
:10D4DB0009000D520AA38C520BC371520C615C52A2
:10D4EB000D00CD520E0286520F0050521002065202
:10D4FB00110000521235545213000D5214020952EE
:10D50B001500125216000252171220521860CC52FC
:10D51B00194000521AA281521B0001521C82015267
:10D52B001D0001521E000B521F12125220615C5241
:10D53B002100C1522202865223006252240206525B
:10D54B00250000522635545227000D52280209524D
:10D55B00290006522A0002522B1234522C60CC5254
:10D56B002D4000522EA281522F00015230820152C7
:10D57B003100015232000B523312265234615C528D
:10D58B003500C252360286523700685238020652B4
:10D59B00390000523A3554523B000D523C020952AD
:10D5AB003D0006523E0002523F1248524060CC52A0
:10D5BB004140005242A28152430001524482015227
:10D5CB004500015246000B5247123A5248615C52D9
:10D5DB004900C3524A0286524B006E524C0206520D
:10D5EB004D0000524E3554524F000D52500209520D
:10D5FB00510006525200025253125C525460CC52EC
:10D60B005540005256A28152570001525882015286
:10D61B00590001525A000B525B124E525C615C5224
:10D62B005D00C3525E0286525F0098526002065242
:10D63B00610000526235545263000D52640209526C
:10D64B006500185266000252671270526860CC5225
:10D65B00694000526AA281526B0001526C820152E6
:10D66B006D0001526E000B526F12625270615C5270
:10D67B007100B252720286527300745274020652D7
:10D68B00750000527635545277000D5278020952CC
:10D69B00790012527A0002527B1284527C60CC5277
:10D6AB007D4000527EA281527F0003528082015244
:10D6BB008100035282000B528312765284615C52BA
:10D6CB008500B35286028652870075528802065235
:10D6DB00890000528A3554528B000D528C0209522C
:10D6EB008D0012528E0002528F1298529060CC52C3
:10D6FB009140005292A281529300035294820152A4
:10D70B009500035296000B5297128A5298615C5205
:10D71B009900B5529A0286529B0076529C02065291
:10D72B009D0000529E3554529F000D52A00209528B
:10D73B00A1001252A2000252A312AC52A460CC520E
:10D74B00A5400052A6A28152A7000952A8820152FD
:10D75B00A9000952AA000B52AB129E52AC615C524B
:10D76B00AD00B652AE028652AF007952B0020652ED
:10D77B00B1000052B2355452B3000D52B4020952EB
:10D78B00B5001252B6000252B712C052B860CC525A
:10D79B00B9400052BAA28152BB000952BC8201525D
:10D7AB00BD000952BE000B52BF12B252C0615C5297
:10D7BB00C100B752C2028652C3007C52C402065249
:10D7CB00C5000052C6355452C7000D52C80209524B
:10D7DB00C9001252CA000252CB12D452CC60CC52A6
:10D7EB00CD400052CEA28152CF000952D0820152BD
:10D7FB00D1000952D2000B52D312C652D4615C52E3
:10D80B00D500B952D6028652D7008652D80206529C
:10D81B00D9000052DA355452DB000D52DC020952AA
:10D82B00DD001252DE000252DF12E852E060CC52F1
:10D83B00E1400052E2A28152E3000352E482015222
:10D84B00E5000352E6000B52E712DA52E8615C5234
:10D85B00E900BA52EA028652EB008752EC020652FA
:10D86B00ED000052EE355452EF000D52F00209520A
:10D87B00F1001252F2000252F312FC52F460CC523D
:10D88B00F5400052F6A28152F7000352F882015282
:10D89B00F9000352FA000B52FB12EE52FC615C5280
:10D8AB00FD00BC52FE028652FF0088530002065355
:10D8BB00010000530235545303000D530402095366
:10D8CB000500125306000253071310530860CC5384
:10D8DB00094000530AA281530B0009530C820153D8
:10D8EB000D0009530E000B530F13025310615C53C1
:10D8FB001100BD531202865313008B5314020653AF
:10D90B00150000531635545317000D5318020953C5
:10D91B00190012531A0002531B1324531C60CC53CF
:10D92B001D4000531EA281531F0009532082015337
:10D93B002100095322000B532313165324615C530C
:10D94B002500BE532602865327008E53280206530A
:10D95B00290000532A3554532B000D532C02095325
:10D96B002D0012532E0002532F1338533060CC531B
:10D97B003140005332A28153330009533482015397
:10D98B003500095336000B5337132A5338615C5358
:10D99B003900B2533A0286533B00C6533C0206533E
:10D9AB003D0000533E3554533F000D534002095385
:10D9BB00410003534200025343134C534460CC5376
:10D9CB004540005346A281534700015348820153FF
:10D9DB00490001534A000B534B133E534C615C53AC
:10D9EB004D00CC534E0286534F00C9535002065381
:10D9FB00510000535235545353000D5354020953E5
:10DA0B005500035356000253571360535860CC53C1
:10DA1B00594000535AA281535B0001535C8201535E
:10DA2B005D0001535E000B535F13525360000653AE
:10DA3B0061280153620086536300005364200C532A
:10DA4B006500005366000653670005536800865354
:10DA5B00690001536A0408536B000D536C00425369
:10DA6B006D136A536E0006536F000153700086539B
:10DA7B0071000F5372209C53730000537404205396
:10DA8B0075000D537600025377137C5378001B53AC
:10DA9B00790FB4537A0035537B000D537C001B5325
:10DAAB007D0FAC537E0035537F000D5380008653A2
:10DABB0081C08E538200065383006C5384008C53B9
:10DACB00850000538600065387C73B538800865357
:10DADB00890000538A200C538B0000538C00065393
:10DAEB008DC731538E0086538F10105390200C53DB
:10DAFB0091000053920006539300055394008653F4
:10DB0B00950001539604085397000D539800425308
:10DB1B00991396539A0006539B2801539C008653E6
:10DB2B009D0005539E200C539F000053A00055539E
:10DB3B00A1000D53A2000653A3C73B53A400865369
:10DB4B00A5000153A6200C53A7000053A8000653B1
:10DB5B00A9C73153AA008653AB000053AC200C531A
:10DB6B00AD000053AE008653AF281153B0009C5349
:10DB7B00B1000053B2205C53B3004953B4010653B8
:10DB8B00B5C30053B6210C53B7000053B8205C53F8
:10DB9B00B9004853BA008953BB000053BC00425331
:10DBAB00BD13C653BE000653BFC08653C000865379
:10DBBB00C1000153C2200C53C3000053C4000B53CC
:10DBCB00C513CC53C6000653C7C08653C800865333
:10DBDB00C9001153CA200C53CB000053CCA39C5348
:10DBEB00CD001553CEC28153CF000153D0C38C53FC
:10DBFB00D1001553D2005553D3000D53D400065307
:10DC0B00D5C0EF53D6008653D7000053D8200C5302
:10DC1B00D9000053DA000653DB7C0B53DC00865330
:10DC2B00DD00FF53DE200C53DF000053E0000653F2
:10DC3B00E1C0C253E2008653E3000053E4200C53CF
:10DC4B00E5000053E6000653E7C02053E800865377
:10DC5B00E9015753EA200C53EB000053EC005541FC
:10DC6B001602F0419E02F055680200422E02F0426D
:10DC7B00B602F056DE0200434602F043CE02F058E5
:10DC8B00520200448202F0453002F05A3202004543
:10DC9B00E802F0469602F05C160200472A02F047B3
:10DCAB00B202F05D8E0200484202F048CA02F05FF9
:10DCBB00020200495A02F049E202F060760200418A
:10DCCB006203E854B203E8416E03E854D603E8411B
:10DCDB007403E854E803E8418003E8550C03E8417A
:10DCEB008603E8551E03E8418C03E8553003E840F2
:10DCFB00CE03E840E003E840E603E840F203E840E7
:10DD0B00F803E8410403E8415603E8548E03E84066
:10DD1B00BC03E8414402F0545802F0427A03E8563F
:10DD2B002803E8428603E8564C03E8428C03E85686
:10DD3B005E03E8429803E8568203E8429E03E856E6
:10DD4B009403E842A403E856A603E841E603E8413E
:10DD5B00F803E841FE03E8420A03E8421003E842F5
:10DD6B001C03E8426E03E8560403E841D403E8427F
:10DD7B005C02F055CE02F0439203E8579C03E84354
:10DD8B009E03E857C003E843A403E857D203E843D4
:10DD9B00B003E857F603E843B603E8580803E84333
:10DDAB00BC03E8581A03E842FE03E8431003E843B8
:10DDBB001603E8432203E8432803E8433403E8430C
:10DDCB008603E8577803E842EC03E8437402F05704
:10DDDB004202F044D003E8591003E844E203E85947
:10DDEB004603E844EE03E8596A03E8450003E859A3
:10DDFB00A003E8450C03E859C403E8451803E859A8
:10DE0B00E803E8441603E8442E03E8443A03E844E5
:10DE1B004C03E8445803E8446A03E844C403E85855
:10DE2B00EC03E8440403E844D603E8592203E8442E
:10DE3B00E803E8595803E844F403E8597C03E84540
:10DE4B000603E859B203E8451203E859D603E8453F
:10DE5B001E03E859FA03E8441C03E8443403E8447E
:10DE6B004003E8445203E8445E03E8447003E8448B
:10DE7B00B202F058B602F0463603E85AF403E8460D
:10DE8B004803E85B2A03E8465403E85B4E03E84685
:10DE9B006603E85B8403E8467203E85BA803E84685
:10DEAB007E03E85BCC03E8457C03E8459403E84537
:10DEBB00A003E845B203E845BE03E845D003E846B6
:10DECB002A03E85AD003E8456A03E8463C03E85BBB
:10DEDB000603E8464E03E85B3C03E8465A03E85B5F
:10DEEB006003E8466C03E85B9603E8467803E85B5F
:10DEFB00BA03E8468403E85BDE03E8458203E845A2
:10DF0B009A03E845A603E845B803E845C403E8458A
:10DF1B00D603E8461802F05A9A02F0477603E85CFB
:10DF2B00D803E8478203E85CFC03E8478803E85D15
:10DF3B000E03E8479403E85D3203E8479A03E85D74
:10DF4B004403E847A003E85D5603E846E203E846CE
:10DF5B00F403E846FA03E8470603E8470C03E847EF
:10DF6B001803E8476A03E85CB403E846D003E847C4
:10DF7B005802F05C7E02F0488E03E85E4C03E848E2
:10DF8B009A03E85E7003E848A003E85E8203E84862
:10DF9B00AC03E85EA603E848B203E85EB803E848C2
:10DFAB00B803E85ECA03E847FA03E8480C03E848FD
:10DFBB001203E8481E03E8482403E8483003E84806
:10DFCB008203E85E2803E847E803E8487002F05D47
:10DFDB00F202F049A603E85FC003E849B203E85F29
:10DFEB00E403E849B803E85FF603E849C403E860D3
:10DFFB001A03E849CA03E8602C03E849D003E86038
:10E00B003E03E8491203E8492403E8492A03E84997
:10E01B003603E8493C03E8494803E8499A03E85FBB
:10E02B009C03E8490003E8498802F05F6602F0C7E9
:10E03B005D0000C75F0022C73D0003C7390044C71E
:10E04B00500700C7510700C7520000C7530000C755
:10E05B00540698C73B0000C7311010C75E0000C7BD
:10E06B00300000C7900000C79B0000C79C0000C792
:10E07B009E000C7C0B00FF7D0500017C0700007CE3
:10E08B00E200FFC07F0000C080FFFFC081FFFFC028
:10E09B0082FFFFC083FFFFC0840011C0850011C049
:10E0AB0086FF00C087FFFFC08E0008C08E003CC0FB
:10E0BB008F0000C08700CFC0860011C08E002C7C63
:10E0CB003200027C20FFFF7D000002400000007C3C
:10E0DB002200007C2100007C20FFFB7C220004003E
:10E0EB00000001C0201157C02800F100000001C141
:10E0FB00000077C1010077C1020077C1030077C12F
:10E10B00040000C1050000C1060000C1070000C1EA
:10E11B000800FFC10900FFC10A00FFC10B00FFC1CE
:10E12B000C00FFC10D00FFC10E00FFC10F00FF006F
:10E13B00000001C0700101C0710303C0720504C06F
:10E14B00730706C0740200C0750504C0760706C0CD
:10E15B00770908C078110AC0791312C3000000C3F5
:10E16B00010121C3020120C303010CC3040104C339
:10E17B00050064C3060024C3070104C3080000C3E1
:10E18B00090400C30A0000C30B0000C30C0FFFC33C
:10E19B000D0000C30E0000C30F0000C310FC20C312
:10E1AB00110000C3120000C3130000C3140000C30E
:10E1BB00150000C3160F80C3170000C3180FFFC351
:10E1CB00190FFFC31A0FFFC31B0FFFC31C0FFFC396
:10E1DB001D0FFFC31E0FFFC31F0FFFC3200FFFC376
:10E1EB00210FFFC3220FFFC3230FFFC32403A0C3C1
:10E1FB002501E9C326029AC3270000C3280FFFC3DA
:10E20B00290400C32A0000C32B0003C32C0004C342
:10E21B002D0005C32E0005C32F0006C3300008C315
:10E22B00310009C332000AC333000BC334000DC3E2
:10E23B00350010C3360012C3370014C3380003C3B4
:10E24B00390004C33A0005C33B0005C33C0006C3B9
:10E25B003D0008C33E0009C33F000AC340000BC387
:10E26B0041000DC3420010C3430012C3440014C34A
:10E27B00450401C3463E00C3477777C3488888C32C
:10E28B0049BAA9C34A8000C34B0000C34C0000C36A
:10E29B004D0100C34E0000C34F000FC3500100C31C
:10E2AB00510000C352000FC3530010C3540010C3DE
:10E2BB00550010C3560000C3600000C3610000C3CB
:10E2CB00620000C3630000C3640000C3650000C3A9
:10E2DB00660000C3670000C3680000C3690000C389
:10E2EB006A0000C36B0000C36E8766C36F9988C357
:10E2FB0070BA99C3E00000C3E10000C3E20280C31F
:10E30B00E301E0C3E61000C3E70000C3E80021C34C
:10E31B00E9170CC3EA2D20C3EB4E40C3EC6F5BC374
:10E32B00ED8F80C3EEB59DC3EF00DEC3711200C34A
:10E33B00729999C3739999C3740009C3750080C30B
:10E34B00760080C3770080C3780080C3790080C3D8
:10E35B007A0080C37B0080C37C0040C37D0040C338
:10E36B007E0000C37F2000C3800000C3810400C374
:10E37B0082FD67C383FD78C384FD88C385FD98C385
:10E38B0086FDA8C387FDC9C388FDE9C389FDF3C317
:10E39B008AFDDEC38BFDB2C38CFD73C38DFD2CC315
:10E3AB008EFCD4C38FFC7BC390FC24C391FB75C341
:10E3BB0092FAB0C393F9DFC394F912C395F86CC307
:10E3CB0096F7AFC397F70CC398F66DC399F5BCC31B
:10E3DB009AF53AC39BF4A8C39CF42FC39DF3BBC31C
:10E3EB009EF344C39FF2D9C3A0F285C3A1F23EC3EF
:10E3FB00A2F206C3A3F1DFC3A4F1EAC3A5F204C3DF
:10E40B00A6F220C3A7F24EC3A8F28CC3A9F2DFC3B6
:10E41B00AAF34FC3ABF3D5C3ACF476C3ADF55CC372
:10E42B00AEF6AEC3AFF78DC3B0F8DCC3B1FBCFC351
:10E43B00B20000C3B30000C3B47777C3B58888C3F9
:10E44B00B68888C3B79988C3B89999C3B99999C342
:10E45B00BA9999C3BB9999C3BC8899C3BD8888C322
:10E46B00BE8888C3BF7777C3C00000C3C10000C399
:10E47B00C27777C3C37777C3C47777C3C57777C3BF
:10E48B00C60000C3C77777C3C87777C3C90777C3FD
:10E49B00CA02F1C3CB0000C3CC006CC3CD0000C3D8
:10E4AB00CE039EC3CF010BC3D0029AC3D10001C3CD
:10E4BB00D201E0C3D30000C3D40000C3D50280C394
:10E4CB00D60000C3D70000C3D80000C3D90000C3D7
:10E4DB00DA0003C3DB0000C3DC00E0C3DE0000C3D3
:10E4EB00DF0000C08F0040C0870027C0FC0000C0C9
:10E4FB00C30010C3000801C0320010C0330002403B
:10E50B000100067C220004C4C0001CC4C3001CC450
:10E51B00D70000C4D50002C4DA0001C4F00000C467
:10E52B00270003C4270001C4270000C4260030C401
:10E53B00260010C4260000C4230080C43100804094
:10E54B000100077C220004400100067C220004C469
:10E55B00310082C4230000C4260020C4270002C45B
:10E56B00C0003CC4C3003CC4D50003C4DA0000C4E3
:10E57B00D70001C4F00001413603E8564A03E841D5
:10E58B004203E8566E03E8414803E8568003E8412E
:10E59B005403E856A403E8415A03E856B603E8418E
:10E5AB006003E856C803E840C203E840D403E840E0
:10E5BB00DA03E840E603E840EC03E840F803E842FE
:10E5CB001A03E8576403E8422603E8578803E84236
:10E5DB002C03E8579A03E8423803E857BE03E84296
:10E5EB003E03E857D003E8424403E857E203E8410F
:10E5FB00A603E841B803E841BE03E841CA03E8417A
:10E60B00D003E841DC03E8411600C8411600C841BD
:10E61B001600C8411600C8411600C8411600C84173
:10E62B001600C8563C4040563D40405640400A56A6
:10E63B00604040566140405664401E567200005682
:10E64B007300005676403E569640405697404056D3
:10E65B009A400A56A8404056A9404056AC401E5618
:10E66B00BA000056BB000056BE403E5618404056FE
:10E67B00194040561C400A467840204679402046B7
:10E68B007C5030469C4020469D402046A070504612
:10E69B00AE000046AF000046B2785846D240204646
:10E6AB00D3402046D6503046E4402046E540204635
:10E6BB00E8705046F6000046F7000046FA785846D8
:10E6CB0078402046794020467C503059864040594E
:10E6DB00874040598A401459AA404059AB40405991
:10E6EB00AE402859BC000059BD000059C0404059EC
:10E6FB00E0404059E1404059E4401459F240405940
:10E70B00F3404059F640285A0400005A0500005ABD
:10E71B000840405962404059634040596640145C80
:10E72B00CE40405CCF40405CD240145CF240405C39
:10E73B00F340405CF640285D0400005D0500005D81
:10E74B000840405D2840405D2940405D2C40145DF1
:10E75B003A40405D3B40405D3E40285D4C00005DD3
:10E76B004D00005D5040405CAA40405CAB40405CBB
:10E77B00AE40145DE640405DE740405DEA40145E0C
:10E78B000A40405E0B40405E0E40285E1C40405EDF
:10E79B001D40405E20403C5E4040405E4140405E3C
:10E7AB004440145E5240405E5340405E5640285EEB
:10E7BB006440405E6540405E68403C5DC240405DE9
:10E7CB00C340405DC640145EFE40405EFF40405F6C
:10E7DB000240145F2240405F2340405F2640285F89
:10E7EB003440405F3540405F38403C5F5840405FAD
:10E7FB005940405F5C40145F6A40405F6B40405F34
:10E80B006E40285F7C40405F7D40405F80403C5EB7
:10E81B00DA40405EDB40405EDE4014411600C845E6
:10E82B00E600C8412200C8460A00C8412800C84675
:10E83B001C00C8413400C8464000C8413A00C846D5
:10E84B005200C8414000C8466400C840B000C840F0
:10E85B00C200C840C800C840D400C840DA00C84055
:10E86B00E600C8C382FD67C383FD78C384FD88C3FC
:10E87B0085FD98C386FDA8C387FDC9C388FDE9C381
:10E88B0089FDF3C38AFDDEC38BFDB2C38CFD73C35D
:10E89B008DFD2CC38EFCD4C38FFC7BC390FC24C397
:10E8AB0091FB75C392FAB0C393F9DFC394F912C30A
:10E8BB0095F86CC396F7AFC397F70CC398F66DC377
:10E8CB0099F5BCC39AF53AC39BF4A8C39CF42FC328
:10E8DB009DF3BBC39EF344C39FF2D9C3A0F285C380
:10E8EB00A1F23EC3A2F206C3A3F1DFC3A4F1EAC3B4
:10E8FB00A5F204C3A6F220C3A7F24EC3A8F28CC3A1
:10E90B00A9F2DFC3AAF34FC3ABF3D5C3ACF476C301
:10E91B00ADF55CC3AEF6AEC3AFF78DC3B0F8DCC3D9
:10E92B00B1FBCFC3B20000C3B47777C3B58888C33C
:10E93B00B68888C3B79988C3B89999C3B99999C34D
:10E94B00BA9999C3BB9999C3BC8899C3BD8888C32D
:10E95B00BE8888C3BF7777646F206E6F742066693B
:10E96B006E64207375697461626C6520706172618D
:10E97B00210A006C656E677468206973206E6F7472
:10E98B0020636F7272656374210A00636D643A5B76
:10E99B00307825785D5B25645D0A00636F6E746566
:10E9AB006E743A5B25645D2C5B25645D0A006164C3
:10E9BB0064725B25645D3A5B307825785D5B25641A
:10E9CB005D0A00F001EC000002F002EC040002F022
:10E9DB0003EC080024F004EC2E0024F005EC5400AA
:10E9EB0024F006EC7A0062F007ECDE0062F008ED32
:10E9FB00420062F009EDA60062F00AEE0A0062F036
:10EA0B000BEE6E0062F00CEED20062F00DEF3600F2
:10EA1B0062F00EEF9A0062F00FEFFE0036F010F08E
:10EA2B00360012F011F04A0048F012F0940040F05A
:10EA3B0013F0D60048F014F1200040F015F16200FD
:10EA4B0048F016F1AC0018F017F1C60048F018F2B8
:10EA5B00100048F019F25A0014F01AF2700001F08D
:10EA6B001BF2730002F01CF2770001F01DF27A002A
:10EA7B0002F01EF27E000CF01FF28C000CF020F264
:10EA8B009A000CF021F2A8000CF022F2B6000CF068
:10EA9B0023F2C4000CF024F2D2000CF025F2E000BB
:10EAAB000CF026F2EE000CF027F2FD0200F028F439
:10EABB00FF0002F029F503000AF02AF50F000AF017
:10EACB002BF51B000AF02CF527000AF02DF533006F
:10EADB000AF02EF53F000AF02FF54B000AF030F547
:10EAEB0057000AF031F563000A72656164205441E6
:10EAFB004C3A2025640A0072656164204C442073F3
:10EB0B00657474696E673A2025640A0072656164E6
:10EB1B002067616D6D613A2025640A00726561643E
:10EB2B002073322042473A2025640A0072656164E3
:10EB3B002072616E67655B25645D2070756C736513
:10EB4B00636E743A2025640A00696E69745F6465AC
:10EB5B00766963655F7374617465735F6D61636818
:10EB6B00696E650A007263765B25785D5B25785D5F
:10EB7B000A007374617274207768656E205B25647C
:10EB8B005D0A0073657420776472206D6F64652C69
:10EB9B00207374617475733A2025640A007265677B
:10EBAB006973746572207461726765743D25780AA8
:10EBBB00006765742072656769737465725B307882
:10EBCB0025785D2064617461203D307825780A00DA
:10EBDB007365742072656769737465725B30782531
:10EBEB00785D2064617461203D307825780A0024BB
:10EBFB002424636F6D706172655F676465765F6314
:10EC0B006F6E6669670A006861726477617265206E
:10EC1B00636865636B206572726F7221210A00490C
:10EC2B00324320636F6E6669673A2025780A00616C
:10EC3B0070706C69636174696F6E20737461727448
:10EC4B005B25645D21210A004443414D31305F3225
:08EC5B00303230303531310058
:00000001FF
