:020000040000FA
:10000000022F008B688A69896A8C6B8D6CE4FDFC19
:10001000C3ED956EEC956D501FE56C2DFFE56B3CC7
:10002000FE1236137868E475F001120DCFEF120B53
:0A003000240DBD00010C80D822222F
:10003B00022AA57557008F5890084BE025E02484C1
:10004B00F582E4343AF583740193243BFFE4933453
:10005B00FFFEAD58AC5712354D7BFF7A3A7971855F
:10006B005766855867020EC002367E755800755963
:10007B0000755A537B007A00795112322DEF6003D1
:10008B000209E77BFF7AEB797085516685526785AC
:10009B005368855469120EC0C3E55194EC500302AA
:1000AB0001327B017A06790285535A85545BAF5234
:1000BB00AE5112237FD3747A955274EC9551501331
:1000CB00C3749A955274EF9551400890084BE0FF1A
:1000DB0002220ED37408955274EC95515013C374CD
:1000EB0054955274EC9551400890084BE0FF022850
:1000FB0073E552B4FF0DE551B4F40890084BE0FFE3
:10010B00021829D37403955274F5955140030209D3
:10011B00E7C37463955274F5955150030209E79048
:10012B00084BE0FF021F0FC3E5529401E551948089
:10013B0050030209E7E5528551F0120E0501B0801C
:10014B000202128004024C80050295800603228075
:10015B0007034A80080372800903D0800A052280B6
:10016B000B065F800C06AC800E0713800F085680C1
:10017B0011086D80120896801308F68014093580DB
:10018B001509648017043C8018077B8019058A8049
:10019B001A04A6801B07E1801C05F1801D088480D2
:1001AB001E000009E7E5546402455370159008489A
:1001BB00E0640460030209E71235D8900848740222
:1001CB00F022E5546404455370367BFF7AEB797D5E
:1001DB00900848E0756600F567120EC0900848E07D
:1001EB00640270051235C48010900848E064016009
:1001FB0008E0640360030209E79008487404F022E6
:10020B00E5546403455322900848E064016005E01F
:10021B0064037006900803020382900848E06404AC
:10022B006008E0640260030209E7900849E0655446
:10023B007002E55370030209E7E554F0E0FF022E6C
:10024B005D900848E06401600DE064036008E064C1
:10025B000260030209E7C3E5549404E5539400409C
:10026B00030209E77BFF7AEB798E900849E075660C
:10027B0000F567120EC090084AE065547002E55312
:10028B0070030209E7AF540211BAC3E5549408E5B1
:10029B0053940040030209E7900848E064016005AD
:1002AB00E064037006900805020382900848E0643E
:1002BB0002702B90084AE06401701DA3E065547036
:1002CB0002E55370030209E7C3E5549409E553941F
:1002DB000040030209E7803790084B020382900825
:1002EB0048E0640460030209E790084AE064016097
:1002FB00030209E7A3E065547002E553700302099A
:10030B00E7C3E5549409E553940040030209E7E57C
:10031B0054F0E0FF022C51C3E5549408E5539400CC
:10032B0040030209E7900848E06401600DE06403B4
:10033B006008E0640260030209E790084C8038C350
:10034B00E5549408E553940040030209E7900848EC
:10035B00E06401600DE064036008E0640260030286
:10036B0009E790084D8010900848E064016005E0B3
:10037B0064037007900809E554F022900848E06484
:10038B00026008E0640460030209E790084AE06435
:10039B000160030209E790084FE065547002E553D2
:1003AB0070030209E7D3E55494FFE553940040032F
:1003BB000209E7E554F0E0FF90084EE0FE131354FA
:1003CB0003FD023344900848E064016005E06403D8
:1003DB00700690084B0204B6900848E0640260086F
:1003EB00E0640460030209E790084BE025E0245029
:1003FB00F582E43408F583E0FEA3E065547003EE68
:10040B00655370030209E7D3E55494BCE55394029A
:10041B0040030209E790084BE025E02450F582E405
:10042B003408F583E553F0A3E554F090084B02052F
:10043B0019900848E064016005E0640370059008BA
:10044B004C8068900848E064026008E06404600334
:10045B000209E790084CE025E02450F582E43408CB
:10046B00F583E0FEA3E065547003EE655370030261
:10047B0009E7D3E55494BCE553940240030209E722
:10048B0090084CE025E02450F582E43408F583E530
:10049B0053F0A3E554F090084C8073900848E06447
:1004AB00016005E06403701090084DE025E0240A1C
:1004BB00F582E434080207FB900848E06402600808
:1004CB00E0640460030209E790084DE025E0245046
:1004DB00F582E43408F583E0FEA3E065547003EE87
:1004EB00655370030209E7D3E55494BCE5539402BA
:1004FB0040030209E790084DE025E02450F582E423
:10050B003408F583E553F0A3E554F090084DE0FD76
:10051B00AF54AE5302209B900848E064016005E0A5
:10052B006403701090084BE025E0241CF582E43442
:10053B00080207FB900848E064026008E06404606E
:10054B00030209E790084BE025E02462F582E434CE
:10055B0008F583E0FEA3E065547003EE655370036A
:10056B000209E790084BE025E02462F582E43408A9
:10057B00F583E553F0A3E554F090084B0206569033
:10058B000848E064016005E06403701090084CE0DB
:10059B0025E0241CF582E434080207FB900848E0B0
:1005AB0064026008E0640460030209E790084CE011
:1005BB0025E02462F582E43408F583E0FEA3E065D0
:1005CB00547003EE655370030209E790084CE02565
:1005DB00E02462F582E43408F583E553F0A3E55497
:1005EB00F090084C8065900848E064016005E06479
:1005FB0003701090084DE025E0241CF582E43408CC
:10060B000207FB900848E064026008E064046003A2
:10061B000209E790084DE025E02462F582E43408F6
:10062B00F583E0FEA3E065547003EE65537003029F
:10063B0009E790084DE025E02462F582E43408F5E3
:10064B0083E553F0A3E554F090084DE0FDAF54AEB5
:10065B0053023080900848E064016005E064037049
:10066B000EE5545403FF900808E054FC4FF0229021
:10067B000848E064026008E0640460030209E79044
:10068B00084EE0540365547002E55370030209E70A
:10069B00E5545403FFE054FC4FF0E05403FF0231E8
:1006AB0095900848E064016005E064037012E5541E
:1006BB00540325E025E0FF900808E054F34FF022A7
:1006CB00900848E064026008E0640460030209E7F4
:1006DB0090084AE0640160030209E790084EE013BA
:1006EB0013540365547002E55370030209E7E55494
:1006FB00540325E025E0FFE054F34FF0E0131354CF
:10070B0003FFA3E0FD022F8F900848E06401600512
:10071B00E06403701090084BE025E0242EF582E492
:10072B0034080207FB900848E064026008E06404A8
:10073B0060030209E790084BE025E02474F582E49E
:10074B003408F583E0FEA3E065547003EE65537047
:10075B00030209E790084BE025E02474F582E434AA
:10076B0008F583E553F0A3E554F090084B02084DD0
:10077B00900848E064016005E06403700F90084C3A
:10078B00E025E0242EF582E434088064900848E0EC
:10079B0064026008E0640460030209E790084CE01F
:1007AB0025E02474F582E43408F583E0FEA3E065CC
:1007BB00547003EE655370030209E790084CE02573
:1007CB00E02474F582E43408F583E553F0A3E55493
:1007DB00F090084C806C900848E064016005E06480
:1007EB0003701790084DE025E0242EF582E43408C1
:1007FB00F583E553F0A3E554F022900848E064023A
:10080B006008E0640460030209E790084DE025E00E
:10081B002474F582E43408F583E0FEA3E06554709C
:10082B0003EE655370030209E790084DE025E024C1
:10083B0074F582E43408F583E553F0A3E554F090A6
:10084B00084DE0FDAF54AE530231E2900848E0642E
:10085B00026008E0640460030209E7AF54AE530280
:10086B0033F7900848E064026008E0640460030218
:10087B0009E7AF54AE530233BD900848E064026001
:10088B00030209E7AF54AE53022D03900848E0640E
:10089B00016005E064037011E5545403C454F0FF88
:1008AB00900808E054CF4FF022900848E0640260B3
:1008BB0008E0640460030209E790084AE064016001
:1008CB00030209E790084EE0C4540365547002E537
:1008DB005370030209E7E5545403C454F0FFE0548A
:1008EB00CF4FF0E0C45403FF02003E900846E5539F
:1008FB00F0A3E554F07BFF7AEB79A8855366F56797
:10090B00120EC0900846E0FEA3E0FF1236D390080B
:10091B0044EEF0A3EFF07BFF7AEB79BCA3E0F56636
:10092B00A3E0F5678E688F69802C900846E0FEA3E4
:10093B00E0FF4E70030209E7AD54AC531236D0E41E
:10094B00900846F0A3F07BFF7AEB79DBF566F56751
:10095B00855368855469020EC0900848E0640270A4
:10096B007B90084AE06401700D900886E554F0E036
:10097B00FF90084B806190084AE064027023900856
:10098B0086E065547002E5536052E554F0E0FF9049
:10099B00084BE0FD1224ED900886E0FF90084C8098
:1009AB003690084AE064037033900886E065547013
:1009BB0002E5536027E554F0E0FF90084BE0FD1291
:1009CB0024ED900886E0FF90084CE0FD1224ED909A
:1009DB000886E0FF90084DE0FD1224ED22E709F6B2
:1009EB0008DFFA8046E709F208DFFA803E88828C3E
:1009FB0083E709F0A3DFFA8032E309F608DFFA8018
:100A0B0078E309F208DFFA807088828C83E309F0BF
:100A1B00A3DFFA806489828A83E0A3F608DFFA8079
:100A2B005889828A83E0A3F208DFFA804C80D28057
:100A3B00FA80C680D4806980F28033801080A680D3
:100A4B00EA809A80A880DA80E280CA803389828A21
:100A5B0083ECFAE493A3C8C582C8CCC583CCF0A3BE
:100A6B00C8C582C8CCC583CCDFE9DEE7800D89829F
:100A7B008A83E493A3F608DFF9ECFAA9F0EDFB22E5
:100A8B0089828A83ECFAE0A3C8C582C8CCC583CC23
:100A9B00F0A3C8C582C8CCC583CCDFEADEE880DB17
:100AAB0089828A83E493A3F208DFF980CC88F0EF84
:100ABB0060010E4E60C388F0ED2402B4040050B9FF
:100ACB00F582EB2402B4040050AF2323458223901C
:100ADB000A3873BB010689828A83E0225002E7221F
:100AEB00BBFE02E32289828A83E49322BB010CE5DD
:100AFB008229F582E5833AF583E0225006E92582C7
:100B0B00F8E622BBFE06E92582F8E222E58229F50A
:100B1B0082E5833AF583E49322BB010689828A83BB
:100B2B00F0225002F722BBFE01F322EF8DF0A4A8B6
:100B3B00F0CF8CF0A428CE8DF0A42EFE22BC000B9F
:100B4B00BE0029EF8DF084FFADF022E4CCF875F0F8
:100B5B0008EF2FFFEE33FEEC33FCEE9DEC984005D7
:100B6B00FCEE9DFE0FD5F0E9E4CEFD22EDF8F5F09D
:100B7B00EE8420D21CFEADF075F008EF2FFFED33A5
:100B8B00FD4007985006D5F0F222C398FD0FD5F023
:100B9B00EA22C2D5EC30E709B2D5E4C39DFDE49C53
:100BAB00FCEE30E715B2D5E4C39FFFE49EFE120BBB
:100BBB0048C3E49DFDE49CFC8003120B4830D50731
:100BCB00C3E49FFFE49EFE22BB010A89828A83E075
:100BDB00F5F0A3E022500687F009E71922BBFE07C8
:100BEB00E3F5F009E3192289828A83E493F5F07423
:100BFB00019322BB0110E58229F582E5833AF58347
:100C0B00E0F5F0A3E0225009E92582F886F008E62A
:100C1B0022BBFE0AE92582F8E2F5F008E222E58321
:100C2B002AF583E993F5F0A3E99322BB010A8982A4
:100C3B008A83F0E5F0A3F0225006F709A7F01922FA
:100C4B00BBFE06F3E5F009F31922F8BB0111E582AF
:100C5B0029F582E5833AF583E8F0E5F0A3F022501D
:100C6B0009E92582C8F608A6F022BBFE09E9258210
:100C7B00C8F2E5F008F222E88FF0A4CC8BF0A42C9C
:100C8B00FCE98EF0A42CFC8AF0EDA42CFCEA8EF08F
:100C9B00A4CDA8F08BF0A42DCC3825F0FDE98FF076
:100CAB00A42CCD35F0FCEB8EF0A4FEA9F0EB8FF06D
:100CBB00A4CFC5F02ECD39FEE43CFCEAA42DCE35F5
:100CCB00F0FDE43CFC2275F008758200EF2FFFEE7F
:100CDB0033FECD33CDCC33CCC58233C5829BED9A5D
:100CEB00EC99E58298400CF582EE9BFEED9AFDECBB
:100CFB0099FC0FD5F0D6E4CEFBE4CDFAE4CCF9A801
:100D0B008222B800C1B90059BA002DEC8BF084CF08
:100D1B00CECDFCE5F0CBF97818EF2FFFEE33FEEDDF
:100D2B0033FDEC33FCEB33FB10D703994004EB9909
:100D3B00FB0FD8E5E4F9FA227818EF2FFFEE33FE1C
:100D4B00ED33FDEC33FCC933C910D7059BE99A4051
:100D5B0007EC9BFCE99AF90FD8E0E4C9FAE4CCFB69
:100D6B002275F010EF2FFFEE33FEED33FDCC33CCBD
:100D7B00C833C810D7079BEC9AE899400AED9BFD46
:100D8B00EC9AFCE899F80FD5F0DAE4CDFBE4CCFA59
:100D9B00E4C8F922E0FCA3E0FDA3E0FEA3E0FF2200
:100DAB00E0F8A3E0F9A3E0FAA3E0FB22ECF0A3ED5B
:100DBB00F0A3EEF0A3EFF022A42582F582E5F03547
:100DCB0083F58322FAE6FB0808E6F925F0F618E628
:100DDB00CA3AF622D083D082F8E49370127401934E
:100DEB00700DA3A393F8740193F5828883E4737455
:100DFB0002936860EFA3A3A380DFD083D082F8E4D3
:100E0B00937012740193700DA3A393F8740193F56F
:100E1B00828883E473740293B5F00674039368605D
:100E2B00E9A3A3A3A380D8EF4E6012EF60010EEDF0
:100E3B00BB010B89828A83F0A3DFFCDEFA2289F0E7
:100E4B005007F709DFFCA9F022BBFEFCF309DFFC1E
:100E5B00A9F022E5722466F8E60572227863300861
:100E6B00027866E475F001120DCF020ADE2001EB69
:100E7B007F2ED2018018EF540F2490D43440D4FF2E
:100E8B0030050BEF24BFB41A0050032461FFE57348
:100E9B00600215730576E5767002057530080D78DE
:100EAB0063E475F001120DCFEF020B240236D974F7
:100EBB0003D2088003E4C208F5728B638A648965E8
:100ECB00E4F573F575F576E57360077F20120E99DF
:100EDB0080F57574FFC202C201C203C204C206C20E
:100EEB0007C209120E67FF700D3008057F00120E46
:100EFB00AAAF76AE7522B4255FC2D5C205120E67B6
:100F0B00FF24D0B40A00501A75F00A787330D50557
:100F1B0008B6FF0106C6A426F620D5047002D2043B
:100F2B0080D924CFB41A00EF5004C2E5D2050210C9
:100F3B00AAD20280C6D20180C0D20380BCD2D58097
:100F4B00BAD20680B47F20120E992003077401B524
:100F5B00730040F1120E5EFF120E99020ED2D209EF
:100F6B00D2078095120E5EFB120E5EFA120E5EF920
:100F7B004A4B7006797B7A117BFF20032EE5736059
:100F8B002A7E008E82758300120AF760060EEE65CC
:100F9B007470F0C2D5EBC0E0EAC0E0E9C0E0EE123D
:100FAB0010F1D0E0F9D0E0FAD0E0FB120ADEFF60DE
:100FBB00AAEBC0E0EAC0E0E9C0E0120E99D0E02451
:100FCB0001F9D0E03400FAD0E0FBE5740460DCD525
:100FDB0074D980877BFF7A1079EDD203809C7910CE
:100FEB0080027908C207C2098008D2D5790A800429
:100FFB00790AC2D5E574047002F574E4FAFDFEFFBC
:10100B00120E5EFC7B08200213120E5EFD7B10306D
:10101B00010A120E5EFE120E5EFF7B20EC3382D5B0
:10102B0092D55013C3E43001069FFFE49EFEE420EB
:10103B0002039DFDE49CFCE4CBF8C202EC700CCFE8
:10104B00CECDCCE824F8F870F38017C3EF33FFEE66
:10105B0033FEED33FDEC33FCEB33FB994002FB0F1E
:10106B00D8E9EB300205F8D0E0C448B202C0E00A80
:10107B00EC4D4E4F78207B0070C2EAB5740040BC3B
:10108B00C0E01210F3D0F0D0E0200204C4C0E0C4E2
:10109B00B202C0F0120E82D0F0D5F0EB020ED212DB
:1010AB000DDF0F6F530FE9580F404C0F3C420FED04
:1010BB004F0FF5440FF5490F55430FFB550FDF4607
:1010CB000FDF450FDF47119B500F442D0F482E0F9D
:1010DB006B2B0F4C230F692011842A0F044800003F
:1010EB000F633F3F3F00790AA2D520041430060955
:1010FB00B910020404B9080104A2D520070250015B
:10110B00042003689203B573005034C0E07F203095
:10111B0004197F30A20372077206500F12114AC2D4
:10112B0003C207C206C2097F30800F300603E9C035
:10113B00E0120E99300603D0E0F9D0E0B573CC3055
:10114B0006177F30B9100C120E997F583005077FA8
:10115B00788003B90803120E993003057F2D020E18
:10116B00997F202009F87F2B2007F322920380CF51
:10117B00286E756C6C2900D202120E5E3002F8C21A
:10118B0002787330D50108F6020F042D50434958ED
:10119B00120E5E2403B405004001E49011969312E5
:1011AB000E8A743A120E8AD204757304020FE98FF9
:1011BB00557BFF7A37799F7566008F67120EC0E5F6
:1011CB00556401703390084BE0C39409748094808C
:1011DB00400302150990084AE555F0A3E0FF122CD5
:1011EB005190084EE054036009E05403FD7C00026B
:1011FB0014F7E4FDFC0214F7AF55EF640260030231
:10120B0013417BFF7A3779B1F5668F6790084BE016
:10121B00756800F569A3E0756A00F56B120EC09056
:10122B00084D74FFF090084BE0C3940974809480D0
:10123B00400302133EA3E0C39409748094804003DF
:10124B0002133EE0FF90084BE06F70030215009015
:10125B003A8474019324FEFFE49334FFFE90084B11
:10126B00E0FD7C0012354D903A8474019324FFFF0E
:10127B00E49334FFFE7D017C0012354D90084BE06A
:10128B0025E02484F582E4343AF58374019324FE3B
:10129B00FFE49334FFFE90084CE0FD7C0012354DCB
:1012AB0090084BE025E02484F582E4343AF583740E
:1012BB00019324FFFFE49334FFFE7D017C00123584
:1012CB004D90084CE025E02484F582E4343AF58314
:1012DB0074019324FEFFE49334FFFE90084BE0FD72
:1012EB007C0012354D90084CE025E02484F582E417
:1012FB00343AF58374019324FFFFE49334FFFE7DAE
:10130B00017C0012354D90084AE555F0A3E0FF1221
:10131B002C5190084CE0FF122C5190084EE05403D6
:10132B00600AE054037C004402FD80047D027C00D3
:10133B000214F7021500AF55EF64036003021509A1
:10134B0090084BE0C394097480948040030215000D
:10135B00A3E0C39409748094804003021500A3E0BA
:10136B00C394097480948040030215007BFF7A3785
:10137B0079D87566008F6790084BE0756800F56942
:10138B00A3E0756A00F56BA3E0756C00F56D120EAA
:10139B00C090084CE0FF90084BE06F70030214FE06
:1013AB0090084DE0FF90084BE06F70030214FE9025
:1013BB00084DE0FF90084CE06F70030214FE903A6A
:1013CB008474019324FEFFE49334FFFE90084BE0FA
:1013DB00FD7C0012354D903A8474019324FFFFE499
:1013EB009334FFFE7D017C0012354D90084BE025B8
:1013FB00E02484F582E4343AF58374019324FEFFF0
:10140B00E49334FFFE90084CE0FD7C0012354D90C8
:10141B00084BE025E02484F582E4343AF58374012B
:10142B009324FFFFE49334FFFE7D017C0012354DC6
:10143B0090084CE025E02484F582E4343AF583747B
:10144B00019324FEFFE49334FFFE90084DE0FD7CF6
:10145B000012354D90084CE025E02484F582E434ED
:10146B003AF58374019324FFFFE49334FFFE7D016F
:10147B007C0012354D90084DE025E02484F582E484
:10148B00343AF58374019324FEFFE49334FFFE900A
:10149B00084BE0FD7C0012354D90084DE025E02413
:1014AB0084F582E4343AF58374019324FFFFE493CB
:1014BB0034FFFE7D017C0012354D90084AE555F056
:1014CB00A3E0FF122C5190084CE0FF122C51900816
:1014DB004DE0FF122C5190084EE05403600AE0548B
:1014EB00037C004402FD80047D027C007F0F7E4064
:1014FB0002354D80007BFF7A3779C8120EC022C3AC
:10150B00E5119401E510948050030217ABE510949C
:10151B00EC40030217ABE50B450A600302161DE511
:10152B00118510F0120E05158A8001159080021599
:10153B0099800315998004159980061599800915D2
:10154B009F800A15B8800B1599800C1599800E1584
:10155B00E5800F15998010159980131614801615B8
:10156B0099801715A4801815F4801915C7801A15C2
:10157B00A9801B1603801C15D6801D000017A275B1
:10158B00C2100217A2900848E0F5C20217A2E4F5B8
:10159B00C20217A290084B800890084C8003900859
:1015AB004DE025E02450F582E43408805890084B38
:1015BB00E025E02462F582E43408804990084CE091
:1015CB0025E02462F582E43408803A90084DE0254A
:1015DB00E02462F582E43408802B90084BE025E090
:1015EB002474F582E43408801C90084CE025E02438
:1015FB0074F582E43408800D90084DE025E02474E6
:10160B00F582E43408F5838003900844E0F5C202C8
:10161B0017A2E50B6401450A600302179BE51185D0
:10162B0010F0120E0516888001168E80021695801A
:10163B0003169B800416A1800616A7800916BD8091
:10164B000A16F9800B16AD800C16B4800E1733807A
:10165B000F17878010176C801317778016178E80E3
:10166B001716D1801817468019170D801A16E580AA
:10167B001B1759801C1720801D0000179475C2166C
:10168B0002179490084EE0C48023E4F5C20217942D
:10169B0090084902179190084B02179190084F023E
:1016AB00179190084EE002177190084EE013130249
:1016BB00177190084BE025E02450F582E43408F5CF
:1016CB0083E0A302179190084CE025E02450F582AB
:1016DB00E43408F583E0A302179190084DE025E070
:1016EB002450F582E43408F583E0A30217919008A7
:1016FB004BE025E02462F582E43408F583E0A30295
:10170B00179190084CE025E02462F582E43408F54B
:10171B0083E0A3807190084DE025E02462F582E41C
:10172B003408F583E0A3805E90084BE025E0247439
:10173B00F582E43408F583E0A3804B90084CE02558
:10174B00E02474F582E43408F583E0A38038900834
:10175B004DE025E02474F582E43408F583E0A380A2
:10176B002590084EE0C45403F5C2801D900844A395
:10177B00E0F5C2E4900846F0A3F0800D1236AD8F71
:10178B00C28006900886E0F5C2E4F510F5118007DB
:10179B00E4F510F511F5C2050BE50B7047050A22B0
:1017AB00C3E51094EC4076E511B4FC3DE510B4F2C2
:1017BB0038E50B2511FFE50A3510FEC3EF940CEE4F
:1017CB0094F35021E511250BFFE510350AFE7457F4
:1017DB002FF58274F93EF583E493F5C2050BE50B07
:1017EB007002050A22E4F5C222E5166402602BE5BD
:1017FB000B450A7006751501751601E50D2402FFE0
:10180B00E4350CFEE50B2FFFE50A3EFE1236138F77
:10181B00C2050BE50B7002050A2275C2AA228F5670
:10182B007BFF7A3979E3120EC07B007A007957750A
:10183B0063007564027F287EF0122DB1EF60030206
:10184B001B3FAF58AE5712363B8E578F587BFF7AE4
:10185B003A7902855766855867120EC0C3E55894CE
:10186B0002E557940050087557007558028011D344
:10187B00E558947EE5579400400675570075587EE1
:10188B00E556120DDF18AC0018EE01193002197273
:10189B000319F6041A7A051ABC061AFD0700001B79
:1018AB003FAD58AC577FD37E5412354DAD58AC5726
:1018BB007FF77E5412354DAD58AC577F097E5512CC
:1018CB00354DAD58AC577F2D7E5512354DAD58ACBF
:1018DB00577F3F7E5512354DAD58AC577F517E55D6
:1018EB00021B3CAD58AC577F497E5612354DAD5857
:1018FB00AC577F6D7E5612354DAD58AC577F7F7E02
:10190B005612354DAD58AC577FA37E5612354DADA3
:10191B0058AC577FB57E5612354DAD58AC577FC777
:10192B007E56021B3CAD58AC577FBD7E5712354DD2
:10193B00AD58AC577FE17E5712354DAD58AC577F44
:10194B00F37E5712354DAD58AC577F177E58123575
:10195B004DAD58AC577F297E5812354DAD58AC570D
:10196B007F3B7E58021B3CAD58AC577F317E5912E2
:10197B00354DAD58AC577F437E5912354DAD58ACF4
:10198B00577F677E5912354DAD58AC577F797E59CD
:10199B0012354DAD58AC577F8B7E5912354DAD5826
:1019AB00AC577F9D7E5912354DAD58AC577FC17EDC
:1019BB005912354DAD58AC577FD37E5912354DADBD
:1019CB0058AC577FE57E5912354DAD58AC577FF764
:1019DB007E5912354DAD58AC577F097E5A12354D95
:1019EB00AD58AC577F1B7E5A021B3CAD58AC577F92
:1019FB00157E5B12354DAD58AC577F277E5B12358C
:101A0B004DAD58AC577F4B7E5B12354DAD58AC5737
:101A1B007F5D7E5B12354DAD58AC577F6F7E5B1291
:101A2B00354DAD58AC577F817E5B12354DAD58AC03
:101A3B00577FA57E5B12354DAD58AC577FB77E5B9C
:101A4B0012354DAD58AC577FC97E5B12354DAD5835
:101A5B00AC577FDB7E5B12354DAD58AC577FED7EBF
:101A6B005B12354DAD58AC577FFF7E5B021B3CAD17
:101A7B0058AC577FF97E5C12354DAD58AC577F1D76
:101A8B007E5D12354DAD58AC577F2F7E5D12354DB7
:101A9B00AD58AC577F537E5D12354DAD58AC577F6B
:101AAB00657E5D12354DAD58AC577F777E5D021B61
:101ABB003CAD58AC577F6D7E5E12354DAD58AC5773
:101ACB007F917E5E12354DAD58AC577FA37E5E1273
:101ADB00354DAD58AC577FC77E5E12354DAD58AC0A
:101AEB00577FD97E5E12354DAD58AC577FEB7E5E7E
:101AFB00803FAD58AC577FE17E5F12354DAD58AC92
:101B0B00577F057E6012354DAD58AC577F177E6001
:101B1B0012354DAD58AC577F3B7E6012354DAD58ED
:101B2B00AC577F4D7E6012354DAD58AC577F5F7E05
:101B3B003012354D229008487401F0A3F0A3F0E465
:101B4B00A3F0A3F0A3F0A3E054FCF0E054F344049F
:101B5B00F0E054CF4410F0E0543FF0900886741E30
:101B6B00F090084BE0900887F090084F7401F090CC
:101B7B00084BE025E02450F582E43408F583E4F0CB
:101B8B00A37432F0E4F554C3E55494097480948043
:101B9B005028E55425E02474F582E43408F583E4F9
:101BAB00F0A3F0E55425E02462F582E43408F583D4
:101BBB007401F0A3E4F0055480CDE4900846F0A343
:101BCB00F0FB7A007952F5637564027F1D7EF0128B
:101BDB002DB1EF7034AF53AE5212363B8E528F5342
:101BEB00E553455290084E6008E054F34404F080EE
:101BFB0004E054F3F07BFF7AEA79F490084EE0FFAF
:101C0B0013135403F566120EC07B007A00795175DD
:101C1B0063007564017F1C7EF0122DB1EF70129082
:101C2B00084FE551F07BFF7AEB7902E0F566120E77
:101C3B00C07B007A0079527563007564027F1B7E4E
:101C4B00F0122DB1EF704EAF53AE5212363B8E5297
:101C5B008F53E4F554C3E554940974809480503544
:101C6B00E55425E02462F582E43408F583E552F06F
:101C7B00A3E553F07BFF7AEB7917E55425E024625B
:101C8B00F582E43408F583E0F566A3E0F567120E00
:101C9B00C0055480C07B007A007951756300756470
:101CAB00017F1A7EF0122DB1EF701FE5515403C462
:101CBB0054F0FF90084EE054CF4FF07BFF7AEB7956
:101CCB0027855266855367120EC07B017A00790017
:101CDB007563007564127F107EF0122DB1EF705C8E
:101CEB00F554C3E554940974809480504FE5542502
:101CFB00E02400F582E43400F583E0FEA3E0FF125C
:101D0B00363BE55425E02450F582E43408F583EEA8
:101D1B00F0A3EFF07BFF7AEB79377566008554679C
:101D2B00E55425E02450F582E43408F583E0FEA366
:101D3B00E08E68F569120EC0055480A678027C0807
:101D4B007D017B017A0879487E007F42120AB87BBD
:101D5B00FF7AEB7954020EC0900848E064036003ED
:101D6B00021F0E7BFF7AEB79FA120EC090084AE045
:101D7B0064017022900804E0FF90084AE0B5071E4A
:101D8B00900805E0FF90084BE06F6012900805E0AB
:101D9B00FF122C518008900804E090084AE090084C
:101DAB0003E0FF900849E06F6008900803E0FF1222
:101DBB002E5D900805E0FF90084BE06F60089008DF
:101DCB0005E0FF122C51900808E013135403FF9009
:101DDB00084EE0FE131354036F600CE0131354030F
:101DEB00FFA3E0FD122F8F900808E05403FF90082B
:101DFB004EE054036F600A900808E05403FF123161
:101E0B0095900809E0FF90084FE06F600FE0FF909E
:101E1B00084EE0FE13135403FD123344900805E003
:101E2B0025E0240AF582E43408F583E0FEA3E0FF05
:101E3B0090084BE025E02450F582E43408F583E06C
:101E4B00FCA3E06F7002EC6E601C900805E025E0CF
:101E5B00240AF582E43408F583E0FEA3E0FF900842
:101E6B0005E0FD12209B7B017A08796274019008D2
:101E7B001C6401700A746265827004740865836067
:101E8B001C900805E025E0241CF582E43408F5835A
:101E9B00E0FEA3E0FF900805E0FD1230807B017AA5
:101EAB00087974740190082E6401700A7474658249
:101EBB00700474086583601C900805E025E0242EEF
:101ECB00F582E43408F583E0FEA3E0FF900805E01B
:101EDB00FD1231E278037C087D017B017A08794998
:101EEB007E007F41120AB8900802E06404700A1267
:101EFB0035C49008487404F0229008487402F0909E
:101F0B000802F0228F577BFF7A3879767566008F3F
:101F1B0067120EC0E557120DDF1F43001F5C011F38
:101F2B0078021F94031FB0041FCA051FE4061FFE8F
:101F3B00072018080000208B7B017A00790075635D
:101F4B000075640A7F297EF0122DB1EF60540220D8
:101F5B002E7B017A00790075630075640A7F2A7EF7
:101F6B00F0122DB1EF600302202E0220367B017A96
:101F7B0000790075630075640A7F2B7EF0122DB11A
:101F8B00EF600302202E0220367B017A0079007568
:101F9B00630075640A7F2C7EF0122DB1EF60030293
:101FAB00202E0220367B017A007900756300756460
:101FBB000A7F2D7EF0122DB1EF60028066806C7B64
:101FCB00017A00790075630075640A7F2E7EF0122A
:101FDB002DB1EF6002804C80527B017A0079007545
:101FEB00630075640A7F2F7EF0122DB1EF600280C3
:101FFB003280387B017A00790075630075640A7F43
:10200B00307EF0122DB1EF60028018801E7B017ABA
:10201B0000790075630075640A7F317EF0122DB173
:10202B00EF60087BFF7A387952806190000012369E
:10203B0036AC06AD077F507EC712354D90000212AD
:10204B003636AC06AD077F517EC712354D90000476
:10205B00123636AC06AD077F527EC712354D900057
:10206B0006123636AC06AD077F537EC712354D9040
:10207B000008123636AC06AD077F547EC702354DCD
:10208B007BFF7A387999756600855767120EC022E7
:10209B008E578F588D59E4F55A7BFF7A3879D18555
:1020AB005766855867F568855969120EC0900849BF
:1020BB00E01424FD5002800C755B02755CBC755DF1
:1020CB0000755E02D3E558955CE557955B40088536
:1020DB005B5F855C608019C3E558955EE557955D40
:1020EB005008855D5F855E60800685575F8558600B
:1020FB00AF60AE5F122B9E8E618F62900849E064D9
:10210B0001600DE064026008E06403600302220DCD
:10211B00E55925E02484F582E4343AF58374019380
:10212B002433FFE49334FFFEAD60AC5F12354DAF4B
:10213B0059EF64036008EF640460030221F2E55970
:10214B0025E02484F582E4343AF583740193243F2B
:10215B00FBE49334FFFAAE5FAF607C007D06120B9D
:10216B0036AC06AD07AF03AE0212354DE55925E08F
:10217B002484F582E4343AF583740193243EFBE422
:10218B009334FFFAAE5FAF607C007D06120B36AC6A
:10219B0006AD07AF03AE0212354DE55925E0248499
:1021AB00F582E4343AF583740193243DFBE49334D4
:1021BB00FFFAAE5FAF607C007D06120B36AC06AD4E
:1021CB0007AF03AE0212354DAE5FAF607C007D12E0
:1021DB00120B367D09120B48E5602FFFE55F3EFEC3
:1021EB00122B9E8E618F62E55925E02484F582E4E3
:1021FB00343AF583E493FE740193FFAD62AC611244
:10220B00354D228F577BFF7A3779F37566008F67D1
:10221B00120EC0E557120DDF224200225E01227A18
:10222B000222960322AF0422C80522E10622F907F7
:10223B00231108000023277B017A007900756300C6
:10224B007564627F067EF0122DB1EF7003022327B7
:10225B000223757B017A0079007563007564627FD8
:10226B00077EF0122DB1EF70030223270223757B3B
:10227B00017A0079007563007564627F087EF01245
:10228B002DB1EF70030223270223757B017A0079AE
:10229B00007563007564627F097EF0122DB1EF60EB
:1022AB007B0223757B017A0079007563007564628C
:1022BB007F0A7EF0122DB1EF60620223757B017AEB
:1022CB000079007563007564627F0B7EF0122DB18F
:1022DB00EF60490223757B017A0079007563007505
:1022EB0064627F0C7EF0122DB1EF6030807C7B013D
:1022FB007A0079007563007564627F0D7EF0122D94
:10230B00B1EF601880647B017A007900756300750A
:10231B0064627F0E7EF0122DB1EF704EE55725E013
:10232B002484F582E4343AF58374019324F8F55A46
:10233B00E49334FFF559E4F558C3E55894317480B0
:10234B009480502FE55825E02400F582E43400F505
:10235B0083123636AC06AD07C3E55A9558FFE559DF
:10236B009400FE12354D055880CF7BFF7A38791AD1
:10237B00120EC0228B578A588959E4F55CE55CC371
:10238B00950F501A75F006E55C90E9D0120DC374E9
:10239B0001936F7003E4936E6004055C80DFE55C72
:1023AB00C3950F40087BFF7AE97962801E75F006B2
:1023BB00E55C90E9D2120DC3740193655B7004E484
:1023CB0093655A60097BFF7AE9797E020EC0E55C62
:1023DB0075F006A424CEF974E935F0FA7BFF78008A
:1023EB007C007D017E007F02120AB875F006E55C69
:1023FB0090E9D2120DC3E493FE740193FF78027C33
:10240B00007D01AB57AA58A959120AB87BFF7AE98C
:10241B00799675F006E55C90E9CE120DC3E493FE58
:10242B007401938E66F56775F006E55C90E9D21240
:10243B000DC3E493FE7401938E68F569120EC07B95
:10244B00FF7AE979A6900002E0756600F56775F0F2
:10245B0006E55C90E9D2120DC3E493FE740193245C
:10246B0001F58274003EF583E0756800F569120E84
:10247B00C07BFF7AE979B9756600855C6775F006F4
:10248B00E55C90E9D0120DC3E493FE7401938E6862
:10249B00F56975F006E55C90E9D2120DC3E493FE85
:1024AB007401938E6AF56B120EC0D2A575F006E51A
:1024BB005C90E9D0120DC3E493FE740193FF7B0192
:1024CB007A00790075F006E55C90E9D2120DC374C1
:1024DB0001932402F563E4933400F56212298DC253
:1024EB00A5228F558D56E4900004F0A3F0D3EF9402
:1024FB001E74809480401275551E7BFF7A39799734
:10250B00756600855567120EC0AF55E4FCFDFE7B6A
:10251B00407A85791FF8120C82E47B64FAF9F81281
:10252B000D0D900000120DB7900000120DAB7F0047
:10253B007ECA7D9A7C3B120D0D900000120DB79058
:10254B000000120D9FEF24A0FFEE34FCFE90000460
:10255B00F0A3EFF0C394F0EE9402500A90000474D1
:10256B0002F0A374F0F07BFF7A3979B975660085B8
:10257B005567756800855669120EC0E556120DDF5A
:10258B0025AA0025B80125C60225D40325E204257A
:10259B00F00525FE06260E07260E080000261F90C6
:1025AB000000120D9FAD07AC067F02806290000009
:1025BB00120D9FAD07AC067F0E8054900000120DDC
:1025CB009FAD07AC067F1A8046900000120D9FADA1
:1025DB0007AC067F268038900000120D9FAD07AC2C
:1025EB00067F32802A900000120D9FAD07AC067F4C
:1025FB003E801C900000120D9FAD07AC06744AFF85
:10260B00FE800E900000120D9FAD07AC067F567E2C
:10261B004A12354D22E50945087025AFC2EF64809B
:10262B00600FAFC2C3EF94EC748094805003022709
:10263B0049AFC2EF751100F510750800750901223D
:10264B00E509640145087032E5106480700EAFC275
:10265B00EF42110509E5097002050822E510C39444
:10266B00ECE494004057AFC2EF42110509E5097045
:10267B0002050885100C85110D22E5096402450839
:10268B00703DE51064807011AFC2EF751400F51347
:10269B000509E5097026050822E510C394ECE494BE
:1026AB0000401AAE08AF0974002FF58274063EF590
:1026BB0083E5C2F00509E50970020508228045E5AE
:1026CB0009640345087047E51064807013AFC2EFCF
:1026DB004214E4AD14AC13AF11AE1012349D802430
:1026EB00E510C394ECE49400401AAE08AF097400F3
:1026FB002FF58274063EF583E5C2F00509E50970F6
:10270B0002050822E4F510F511F513F51422E51076
:10271B00C394ECE494004026E50924FEE50834FF5D
:10272B00C394025019AE08AF0974002FF5827406DA
:10273B003EF583E5C2F00509E5097002050822E4C0
:10274B00F551C3E55194FF748094804003022870C7
:10275B00C3E519949FE518942A5074AE18E51978BF
:10276B0002C333CE33CED8F92496F582743A3EF5B4
:10277B00837401937002E49370051235AD8045AEFE
:10278B0018E5197802C333CE33CED8F92496F582E7
:10279B00743A3EF583E493FE740193FFC006C007C1
:1027AB00AE18E5197802C333CE33CED8F92498F599
:1027BB0082743A3EF583E493FC740193FDD007D009
:1027CB000612354D0519E5197002051802286B7BA9
:1027DB00FF7A3679DC851866851967120EC07B0087
:1027EB007A0079527563007564027F017EF0122DB9
:1027FB00B1EF7021AF53AE5212363B8E528F537BDB
:10280B00FF7A3679FF855266855367120EC0AF5338
:10281B00AE521233F77B007A007952756300756400
:10282B00027F027EF0122DB1EF7021AF53AE521228
:10283B00363B8E528F537BFF7A37791685526685DE
:10284B005367120EC0AF53AE521233BD90084BE01C
:10285B00FF122C517BFF7A37792A120EC07F002290
:10286B00055102274D7F01228F577BFF7A3879352F
:10287B007566008F67120EC0C3E55794037480947E
:10288B008050267B017A0079007563007564247F84
:10289B00037EF0122DB1EF6003022983E55775F02B
:1028AB000CA42400F97400805CAF57C3EF9403743D
:1028BB00809480402FEF94067480948050267B0187
:1028CB007A0079007563007564247F047EF0122D05
:1028DB00B1EF6003022983E55775F00CA424DCF9F2
:1028EB0074FF80217B017A00790075630075642485
:1028FB007F057EF0122DB1EF707EE55775F00CA4BD
:10290B0024B8F974FF35F0FA7B01782A7C007D013D
:10291B007E007F0C120AB8E55725E02484F582E48B
:10292B00343AF583740193244EF55AE49334FFF54E
:10293B0059755B01755C00755D2AE4F558C3E55864
:10294B009406748094805039AB5BAA5CA95D75F0DA
:10295B0002E558A4F58285F083120BFEFFAEF01250
:10296B00363BAC06AD07C3E55A9558FFE5599400C5
:10297B00FE12354D055880C57BFF7A387952120E01
:10298B00C0228B5F8A608961AD07AC06EC131354D0
:10299B003F75650025E025E0F564EC5403F5668D85
:1029AB0067E4F568F569E51670FC751602D3E56307
:1029BB009400E56294005003022AA1E4F56AF56BDA
:1029CB00E565256BFFE564356AFE12361374022547
:1029DB006BF5827402356AF583EFF0056BE56B706E
:1029EB0002056AC3E56A940440D6AF65AE6412353E
:1029FB0024E5672563FFE5663562FED3EF9400EEB1
:102A0B009404400BE49567FF74049566FE8004AE56
:102A1B0062AF638E688F69E4F56AF56BC3E56B95FE
:102A2B0069E56A95685030AB5FAA60A961856B82D6
:102A3B00856A83120AF7FFE567256BFDE566356A44
:102A4B00FC74022DF58274023CF583EFF0056BE507
:102A5B006B70C9056A80C5C3E5639569F563E5626B
:102A6B009568F562E5692561F561E5683560F560A6
:102A7B007B017A027902757104757200AF65AE64E1
:102A8B001232C0E42565F56574043564F564E4F52C
:102A9B0066F5670229B8E4F51622C0E0C0F0C083E2
:102AAB00C082C0D075D000C000C001C002C003C03E
:102ABB0004C005C006C00730C203022B7BE5C0541F
:102ACB00F0604324F0604624D07003022B6724F09F
:102ADB007003022B6F24306003022B73C2C5750A7F
:102AEB0000750B00750800750900E52254FEFFE523
:102AFB00C254FEB5070CD2C1E5C254016401707615
:102B0B00805DC2C18070122620D2C18069C2C4C34D
:102B1B00E5099403E5089400402ED3E5099402E5FA
:102B2B000894025023C3E5119401E51094805007DB
:102B3B00C3E51094EC4011E50924FEFDE50834FFD4
:102B4B00FCAF11AE1012349DE50B450A60287515CC
:102B5B0000E5176401601F751600801A30C117124B
:102B6B00150A8012C2C4800E53C17F43C1808000FE
:102B7B00C2C5C2C4C2C1C2C0D007D006D005D004E2
:102B8B00D003D002D001D000D0D0D082D083D0F0EF
:102B9B00D0E0328E638F64E4FFFBFA7565037566D4
:102BAB00A0F567756824F569F56AF56BF56C900807
:102BBB0049E06401600AE064026005E0640370119F
:102BCB007A007B18756900756A54E4F56BF56C80B7
:102BDB0022900849E06404600AE064056005E06443
:102BEB000670107A007B0E7569FF756AF8756BFFBE
:102BFB00756CFDE5662BCFE5653ACF24A5CF34FF89
:102C0B00FEAD03AC02120B9DC3E5649FFFE5639E13
:102C1B00FEAC02AD03120B36E5662FFFE5653EFEFB
:102C2B00E56C2FFFE56B3EFEAC65AD66120B9DEFC1
:102C3B002403FFE43EFEAC67AD68120B36E56A2F4A
:102C4B00FFE5693EFE228F567BFF7A3779827566E8
:102C5B00008F67120EC090084FE0D39401748094DC
:102C6B0080402190084EE013135403FFA3E0FD12A4
:102C7B002F8F90084FE0FF90084EE0FE1313540384
:102C8B00FD123344E55625E02450F582E43408F573
:102C9B0083E0FEA3E0FFAD5612209BAF56122873C4
:102CAB00AF5612220EAF56121F0FE55625E02462C7
:102CBB00F582E43408F583E0FEA3E0FFAD56123055
:102CCB0080E55625E02474F582E43408F583E0FEB4
:102CDB00A3E0FFAD561231E290084EE0C45403FF5F
:102CEB0012003E90084AE06401700CE556FD7C0032
:102CFB007F037E6812354D228E558F56C3E5569451
:102D0B0003E55594004003022DB07C00E55654803A
:102D1B00FD7F007EC412354DE55664014555702F7D
:102D2B00900888E0F470057D08FC8007900888E027
:102D3B00FD7C007F027EC412354D900889E0F47053
:102D4B00057D08FC803E900889E0FD7C008035E520
:102D5B0056640245557034900888E0F470057D0385
:102D6B00FC8007900888E0FD7C007F027EC4123552
:102D7B004D900889E0F470057D04FC80079008896C
:102D8B00E0FD7C007F037EC412354DAD56AC557F04
:102D9B00007EC412354D7BFF7A3A791185556685D5
:102DAB005667120EC0228E5E8F5F8B608A618962BE
:102DBB00E4F565E565C3950F501C75F006E5659068
:102DCB00E9CE120DC3740193655F7004E493655EE5
:102DDB006004056580DDE516640260FA7516017501
:102DEB00170175F006E56590E9D0120DC3E493FC6D
:102DFB00740193FD7B007A007966756D00756E0228
:102E0B00120003E55F65677004E55E6566703475F7
:102E1B00F006E56590E9D0120DC37401932402FD11
:102E2B00E4933400FCAB60AA61A96285636D856491
:102E3B006E120003E4F517E51564016003E4F51663
:102E4B007F0022E4F517E51564016003E4F5167FB6
:102E5B0001228F557BFF7A3779667566008F671273
:102E6B000EC0E555640770047D198002E4FDFC7FFC
:102E7B00FC7EC012354DAF55EF6401602DEF64043D
:102E8B0070028026AF55EF64026005EF6405700495
:102E9B007D058018AF55EF64036005EF6406700481
:102EAB007D078008E5556407600B7D037C007FDAA6
:102EBB007EC312354D90084AE0D394017480948000
:102ECB00401890084EE05403600AE054037C004421
:102EDB0002FD80197D027C00801390084EE05403A4
:102EEB006008E05403FD7C008003E4FDFC7F0F7E53
:102EFB004012354D22120039787FE4F6D8FD7581EA
:102F0B0076022F4A023278E493A3F8E493A34003AA
:102F1B00F68001F208DFF48029E493A3F854072428
:102F2B000CC8C333C4540F4420C8834004F45680E8
:102F3B000146F6DFE4800B0102040810204080906C
:102F4B003625E47E019360BCA3FF543F30E5095462
:102F5B001FFEE493A360010ECF54C025E060A84090
:102F6B00B8E493A3FAE493A3F8E493A3C8C582C887
:102F7B00CAC583CAF0A3C8C582C8CAC583CADFE95C
:102F8B00DEE780BE8F578D587BFF7A397977756670
:102F9B00008F67756800855869120EC0E55824FECE
:102FAB00600F14601424027018755900755A118043
:102FBB0015755900755A12800D755900755A138085
:102FCB0005E4F559F55AE55790084B601DE025E0EF
:102FDB002484F582E4343AF58374019324BAFFE434
:102FEB009334FFFEAD5AAC59801AE025E02484F5EA
:102FFB0082E4343AF58374019324BAFFE49334FFEB
:10300B00FEE4FDFC12354D228D55E4F5568B578AA7
:10301B00588959F556E556C395555058AB57AA588C
:10302B00A95975F004E556A4F58285F083120BFEC1
:10303B0045F070051235AD8037AB57AA58A95975B5
:10304B00F004E556A4F58285F083120BFEFFAEF07B
:10305B00C006C007E55675F004A429F9EA35F0FA65
:10306B00900002120BFEFDACF0D007D00612354DCE
:10307B00055680A1228E578F588D59E55925E0248E
:10308B0084F582E4343AF583740193243CFFE49392
:10309B0034FFFE1230EA8E5A8F5B755B00535AF089
:1030AB00E558425BE557425AE55925E02484F58201
:1030BB00E4343AF583740193243CFFE49334FFFE2C
:1030CB00AD5BAC5A12354D7BFF7A39793BE55A54DF
:1030DB000FF566855B67756800855969020EC08EB2
:1030EB005C8F5DE4F55EF55F12365EAF1A123382CC
:1030FB00EF60028026E55CFF123382EF6002801BDB
:10310B00AF5D123382EF600280111236BA12365E57
:10311B00E51A4401FF123382EF60061236BA7E00C5
:10312B0022123431EF755F00F55E123467EF425FA8
:10313B001236BAAE5EAF5F228E658F668C678D6876
:10314B0012365EAF1A123382EF60028034E565FFF0
:10315B00123382EF60028029AF66123382EF600276
:10316B00801FE567FF123382EF60028014AF681295
:10317B003382E56664227004E56564C06006EF6027
:10318B00030236BA1236BA7F00228F557BFF7A398B
:10319B007959855566120EC090084BE0FF1218291D
:1031AB0090084AE0D3940174809480E55540044420
:1031BB00028000FD7C007F0F7E4012354DE555707F
:1031CB00157D07FC7F017E4012354D7D047C007F11
:1031DB00227E7C12354D228E578F588D597BFF7A6C
:1031EB003979128557668558677568008559691254
:1031FB000EC0D3E55894FFE557943F400675573FF3
:10320B007558FFE55925E02484F582E4343AF583BB
:10321B0074019324FDFFE49334FFFEAD58AC5702C9
:10322B00354DE52465236042AF23EF25E025E024EF
:10323B0025F8E6FF08E6CF8FF0120C36AF23EF250B
:10324B00E025E02427F8E6FF08E6AB58AA59A95A6F
:10325B00CF8FF0120C360523AF23C3EF9409748084
:10326B0094804003E4F5237F00227F01221234CDAA
:10327B001236D6C2A0C2A17522C8209303432204E2
:10328B002092034322027BFF7AEC792AAF227566E8
:10329B00008F67120EC01235ECE4900848F07BFFEC
:1032AB007AEC793AE0756600F567120EC01200767B
:1032BB0012330280F88E6C8F6D8B6E8A6F897085DE
:1032CB006C73856D74E56D2572FFE56C3571FEC30E
:1032DB00E5749FE5739E501E786EE475F001120D38
:1032EB00CF120ADEFDAF74AE731234FB0574E574B6
:1032FB0070D3057380CF22900848E07012123652BB
:10330B00EF60097BFF7AEC7912020EC0021B409032
:10331B000848E06401700D12274AEF701B900848B3
:10332B007403F022900848E064037003021D63905D
:10333B000848E064026001E022EF4410755700F585
:10334B00587BFF7A3879F97566008F67AF0575681A
:10335B00008F69120EC090084BE025E02484F582A3
:10336B00E4343AF58374019324B9FFE49334FFFEFC
:10337B00AD58AC5702354DE4FA7E017B07C281ADE7
:10338B0003A805EF088002C313D8FC1392801235F3
:10339B0077EB1B70011ABAFFE4BBFFE1C281D2804D
:1033AB0012357C12357CD281A280E433FE12357C3F
:1033BB00FF228E558F56D3E5569403E55594004066
:1033CB0024E556941EE5559400501AAD56AC557F26
:1033DB00037EC412354D7BFF7A3A792C8555668571
:1033EB005667020EC090088974FFF0228E558F56D7
:1033FB00D3E5569402E55594004024E556941EE51A
:10340B00559400501AAD56AC557F027EC412354D03
:10341B007BFF7A3A794D855566855667020EC090CB
:10342B00088874FFF022E4FEFD7F07C28112357C11
:10343B00D281AC07A280E433FBA804088002C3331B
:10344B00D8FC420512357CEF1F70011EBEFFDCBF9E
:10345B00FFD9123573C281D280AF0522E4FEFD7F06
:10346B0007C28112357CD281AC07A280E433FBA862
:10347B0004088002C333D8FC420512357CEF1F7061
:10348B00011EBEFFDCBFFFD9C281123577C281AFEF
:10349B000522AB24EB25E025E02425F8A60608A69B
:1034AB0007AF24EF25E025E02427F8A60408A6059E
:1034BB000524AF24C3EF9409748094804003E4F592
:1034CB00242285A7511236881236911236C0123635
:1034DB009812369F1236CC12366A12364612359136
:1034EB001236741236C41236C81236A68551A7226C
:1034FB00A2AF9201C2AF75FF8075EF028F828E83F0
:10350B0075B7A575B7F1438F0175FF8075EF02EDA8
:10351B00F0538FFEA20192AF22A2AF9201C2AF7500
:10352B00FF8075EF028F828E8375B7A575B7F14358
:10353B008F0375FF8075EF02E4F0538FFCA20192AD
:10354B00AF228E638F648D828C83790AE9D39400CA
:10355B00748094804011AD82AC83AF64AE63123142
:10356B0043EF60031980E522C281C28012357CD201
:10357B0081000000000000000000000000000000BF
:10358B00000000000022AF885388AF758CBC758A91
:10359B0034758D96758BCBEF5440FEEF54104E4225
:1035AB008822E4FFFE055BE55B7002055A0FBF0046
:1035BB00010EBE02F0BF58ED227BFF7AE579127D3A
:1035CB00101230137BFF7A377945020EC07BFF7ADE
:1035DB00E579527D0C1230137BFF7A377956020E48
:1035EB00C0E4F523F524FE7F28FDFB7A0079251234
:1035FB000E320236B4BF0A083099FDC29975990D87
:10360B003099FDC2998F9922A2AF9201C2AF8F82DE
:10361B008E83E493FFA20192AF22021800000116E1
:10362B0000011500011700011AC800E0FEA3E0FF1E
:10363B00AD07EDFAEEFBAE02AF0322E4F5A9E5A967
:10364B005480648070F8223090063087037F00220C
:10365B007F0122D280D28112357CC28002357C431D
:10366B00B280E5B2544060FA22758E087589224308
:10367B0088502253C17F43C18053917F32E4F5A719
:10368B0053D9BFF5D92275A41375D4C32275A603DC
:10369B0075D63C2275E10575E3402275E68175A868
:1036AB0080227F007E680236D3750F31C2A52212AD
:1036BB003573D2802275D5F32243C18022439810F3
:1036CB002275EF022202354D0230EAD299220236E0
:1036DB000064656661756C742073657474696E67DC
:1036EB002077726974652066696E6973683A5B2529
:1036FB00645D0A0072656164206D69706920707287
:10370B0065706172653A2025640A007265616420F8
:10371B006D697069207A65726F3A2025640A0065BD
:10372B006570726F6D2073657474696E6720777244
:10373B0069746520646F6E650A0073746172745FDF
:10374B0073647265616D696E670A0073746F705F85
:10375B0073647265616D696E670A006164646939CF
:10376B003033365F7365745F776F726B5F6D6F6449
:10377B00655B25645D0A0061646469393033365FCB
:10378B007365745F776F726B5F72616E67655B25D4
:10379B00645D0A0073657420776472206D6F6465D5
:1037AB003A2025640A00776472206D6F64655B258F
:1037BB00645D3A5B25645D5B25645D0A007365742B
:1037CB0020776472206572726F72210A00776472BF
:1037DB00206D6F64655B25645D3A5B25645D5B25DD
:1037EB00645D5B25645D0A0061646469393033365E
:1037FB005F7365745F6C696E6561725F636F727224
:10380B006563745F76616C75655B25645D0A007238
:10381B00656164206C696E65617220636F7272659D
:10382B006374206572726F720A0061646469393067
:10383B0033365F7365745F6874705F76616C756542
:10384B003A5B25645D0A00726561642068747020C0
:10385B00656570726F6D206572726F722C20757357
:10386B00652064656661756C740A0061646469390E
:10387B003033365F7365745F74616C5F64656C6164
:10388B00795F76616C75653A5B25645D0A006164EE
:10389B006469393033365F7365745F74616C5F6470
:1038AB00656C61795F76616C75653A72616E67659F
:1038BB00205B25645D206973206E6F7420737570B7
:1038CB00706F72740A0061646469393033365F73E8
:1038DB0065745F70756C7365636E745B25645D20D6
:1038EB006F662072616E67655B25645D0A006164BB
:1038FB006469393033365F7365745F4C445B25788C
:10390B005D5B25785D0A0061646469393033365F2D
:10391B007365745F7468726573686F6C645B256440
:10392B005D206F662072616E67655B25645D0A00C2
:10393B0073657420676D6D206761696E5B25645DCF
:10394B00206F662072616E67652025640A006164D2
:10395B006469393033365F7365745F736C61766598
:10396B005F6D6F64653A5B25645D0A006164646931
:10397B00393033365F7365745F74616C5F6D6F6480
:10398B00653A5B25785D282578290A007261746594
:10399B002076616C7565206E6F7420616C6C6F772F
:1039AB0065642C73657420746F3A25640A00616436
:1039BB006469393033365F7365745F6672616D6548
:1039CB005F726174655B25645D206F662072616E4A
:1039DB0067655B25645D0A00616464693930333661
:1039EB005F7365745F736C6176655F747269675F33
:1039FB0064656C61790A0064656C61792076616C31
:103A0B003A2025640A0061646469393033365F7388
:103A1B0065745F6D6970695F6C616E653A25640AE8
:103A2B000061646469393033365F7365745F6D6947
:103A3B0070695F7A65726F5F76616C75653A256444
:103A4B000A0061646469393033365F7365745F6D86
:103A5B006970695F707265706172655F76616C75B4
:103A6B00653A25640A0073657420676D6D20656E79
:103A7B00207265673D25780A006FFF6F2F6E5F6DB3
:103A8B008F6CBF6BEF6B1F6A4F697F6FFF008E6F81
:103A9B00FE00016FFD00016FFC00046FFB00006F67
:103AAB00FA00006FF900006FF804006FF701226F46
:103ABB00F601096FF500F06FF400D76FF300BD6FDF
:103ACB00F2008B6FF100596FF000276FEFFFF56F6E
:103ADB00EEFFC36FEDFF916FECFF5E6FEBFF2C6F93
:103AEB00EAFEFA6FE9FEBD6FE8FE2A6FE7FD826F13
:103AFB00E6FCC26FE5FBFA6FE4FB276FE3FA536F4B
:103B0B00E2F97D6FE1F8A46FE0F7CF6FDFF6FD6FA1
:103B1B00DEF6326FDDF5706FDCF4B76FDBF40F6F31
:103B2B00DAF3676FD9F2CE6FD8F2456FD7F1E26F48
:103B3B00D6F17F6FD5F1426FD4F1326FD3F1336F82
:103B4B00D2F1406FD1F15A6FD0F1896FCFF1D46FB1
:103B5B00CEF23D6FCDF2CA6FCCF37D6FCBF4976F86
:103B6B00CAF5786FC9F6936FC8F7AF6FC7F7AF6F2A
:103B7B00C600006FC577776FC488886FC388886F5E
:103B8B00C299886FC199996FC099996FBF99996FB5
:103B9B00BE99996FBD88996FBC88886FBB88886FF9
:103BAB00BA77776FB900116FB800116FB700016F5B
:103BBB00B608016FB500016FB400036FB300036F5C
:103BCB00B2FF486FB100036FB0FEEE6FAF41626F93
:103BDB00AE54B26FAD416E6FAC54D66FAB41746FD8
:103BEB00AA54E86FA941806FA8550C6FA741866F47
:103BFB00A6551E6FA5418C6FA455306FA340CE6F99
:103C0B00A240E06FA140E66FA040F26F9F40F86FBB
:103C1B009E41046F9D68106F9C68106F9B68106FBE
:103C2B009A68106F9968106F9868106F9768106F8B
:103C3B009668106F9568106F9468106F9368106F8B
:103C4B009268106F9168106F9068106F8F68106F8B
:103C5B008E68106F8D68106F8C68106F8B54A46F0B
:103C6B008A54A56F8954A86F8854C86F8754C96F3D
:103C7B008654CC6F8554DA6F8454DB6F8354DE6FBC
:103C8B008254FE6F8154FF6F8055026F7F55106F0A
:103C9B007E55116F7D55146F7C55226F7B55236FAD
:103CAB007A55266F7968106F7868106F7768106F88
:103CBB007668106F7568106F7468106F7368106F8B
:103CCB007268106F7168106F7068106F6F68106F8B
:103CDB006E68106F6D68106F6C68106F6B68106F8B
:103CEB006A68106F6968106F6868106F6768106F8B
:103CFB006668106F6568106F6468106F6368106F8B
:103D0B006268106F6168106F6068106F5F68106F8A
:103D1B005E68106F5D68106F5C68106F5B68106F8A
:103D2B005A68106F5968106F5868106F5768106F8A
:103D3B005668106F5568106F5468106F5368106F8A
:103D4B005268106F5168106F5068106F4F00006F02
:103D5B004E064E6F4D00006F4C00006F4B00006F16
:103D6B004A00006F4900006F4800006F4700006F6A
:103D7B004600006F4500006F4400006F4300006F6A
:103D8B004200006F4100006F4000006F3F00006F6A
:103D9B003E000A6F3D00006F3C00006F3B01006F5F
:103DAB003A00016F3954806F3854816F3754846FE8
:103DBB003641566F35548E6F3440BC6F33012C6FC8
:103DCB003200006F3100006F3000006F2F00FA6F70
:103DDB002E00016F2D00006F2C00086F2B00006F61
:103DEB002A00006F2900006F2804006F2700006F66
:103DFB002600006F2500006F2400006F2300006F6A
:103E0B002200006F2100006F2000006F1F00006F69
:103E1B001E00006F1D00006F1C00006F1B00006F69
:103E2B001A00006F1900006F1800006F1700006F69
:103E3B001600006F1500006F1400006F1300006F69
:103E4B001200006F1100006F1000006F0F00006F69
:103E5B000E00006F0D00006F0C00006F0B00006F69
:103E6B000A00006F0900006F0800006F0700006F69
:103E7B000600006F0500006F0400006F0300006F69
:103E8B000200006F0100006F0000006EFF00006E6B
:103E9B00FE00006EFD00006EFC00006EFB00006E6D
:103EAB00FA00006EF900006EF800006EF700006E6D
:103EBB00F600006EF577776EF488886EF388886E5F
:103ECB00F299886EF199996EF099996EEF99996EB6
:103EDB00EE99996EED88996EEC88886EEB88886EFA
:103EEB00EA77776EE900116EE800116EE700016E5C
:103EFB00E608016EE500016EE400036EE300036E5D
:103F0B00E2FF486EE100036EE0FEEE6EDF427A6E7A
:103F1B00DE56286EDD42866EDC564C6EDB428C6EB6
:103F2B00DA565E6ED942986ED856826ED7429E6E26
:103F3B00D656946ED542A46ED456A66ED341E66E79
:103F4B00D241F86ED141FE6ED0420A6ECF42106E56
:103F5B00CE421C6ECD68106ECC68106ECB68106EA6
:103F6B00CA68106EC968106EC868106EC768106E8C
:103F7B00C668106EC568106EC468106EC368106E8C
:103F8B00C268106EC168106EC068106EBF68106E8C
:103F9B00BE68106EBD68106EBC68106EBB561A6E94
:103FAB00BA561B6EB9561E6EB8563E6EB7563F6E5E
:103FBB00B656426EB556506EB456516EB356546EDD
:103FCB00B256746EB156756EB056786EAF56866E2D
:103FDB00AE56876EAD568A6EAC56986EAB56996ED2
:103FEB00AA569C6EA968106EA868106EA768106E12
:103FFB00A668106EA568106EA468106EA368106E8C
:10400B00A268106EA168106EA068106E9F68106E8B
:10401B009E68106E9D68106E9C68106E9B68106E8B
:10402B009A68106E9968106E9868106E9768106E8B
:10403B009668106E9568106E9468106E9368106E8B
:10404B009268106E9168106E9068106E8F68106E8B
:10405B008E68106E8D68106E8C68106E8B68106E8B
:10406B008A68106E8968106E8868106E8768106E8B
:10407B008668106E8568106E8468106E8368106E8B
:10408B008268106E8168106E8068106E7F00006E03
:10409B007E00006E7D00006E7C00006E7B00006E6B
:1040AB007A00006E7900006E7800006E7700006E6B
:1040BB007600006E7500006E7400006E7300006E6B
:1040CB007200006E7100006E7000006E6F00006E6B
:1040DB006E01046E6D00006E6C00006E6B01006E65
:1040EB006A00016E6955F66E6855F76E6755FA6E84
:1040FB0066426E6E6556046E6441D46E63012C6E1F
:10410B006200006E6100006E6000006E5F01426E27
:10411B005E00016E5D00006E5C00006E5B00006E69
:10412B005A00006E5900006E5804006E5700006E66
:10413B005600006E5500006E5400006E5300006E6A
:10414B005200006E5100006E5000006E4F00006E6A
:10415B004E00006E4D00006E4C00006E4B00006E6A
:10416B004A00006E4900006E4800006E4700006E6A
:10417B004600006E4500006E4400006E4300006E6A
:10418B004200006E4100006E4000006E3F00006E6A
:10419B003E00006E3D00006E3C00006E3B00006E6A
:1041AB003A00006E3900006E3800006E3700006E6A
:1041BB003600006E3500006E3400006E3300006E6A
:1041CB003200006E3100006E3000006E2F00006E6A
:1041DB002E00006E2D00006E2C00006E2B00006E6A
:1041EB002A00006E2900006E2800006E2700006E6A
:1041FB002600006E2577776E2488886E2388886E5C
:10420B002299886E2199996E2099996E1F99996EB2
:10421B001E99996E1D88996E1C88886E1B88886EF6
:10422B001A77776E1900116E1800116E1700016E58
:10423B001608016E1500016E1400036E1300036E59
:10424B0012FF486E1100036E10FEEE6E0F43926E5E
:10425B000E579C6E0D439E6E0C57C06E0B43A46E97
:10426B000A57D26E0943B06E0857F66E0743B66E07
:10427B000658086E0543BC6E04581A6E0342FE6E58
:10428B000243106E0143166E0043226DFF43286DEF
:10429B00FE43346DFD68106DFC68106DFB68106D8E
:1042AB00FA68106DF968106DF868106DF768106D8D
:1042BB00F668106DF568106DF468106DF368106D8D
:1042CB00F268106DF168106DF068106DEF68106D8D
:1042DB00EE68106DED68106DEC68106DEB578E6D20
:1042EB00EA578F6DE957926DE857B26DE757B36D8B
:1042FB00E657B66DE557C46DE457C56DE357C86D0A
:10430B00E257E86DE157E96DE057EC6DDF57FA6D59
:10431B00DE57FB6DDD57FE6DDC580C6DDB580D6DFC
:10432B00DA58106DD968106DD868106DD768106D9C
:10433B00D668106DD568106DD468106DD368106D8C
:10434B00D268106DD168106DD068106DCF68106D8C
:10435B00CE68106DCD68106DCC68106DCB68106D8C
:10436B00CA68106DC968106DC868106DC768106D8C
:10437B00C668106DC568106DC468106DC368106D8C
:10438B00C268106DC168106DC068106DBF68106D8C
:10439B00BE68106DBD68106DBC68106DBB68106D8C
:1043AB00BA68106DB968106DB868106DB768106D8C
:1043BB00B668106DB568106DB468106DB368106D8C
:1043CB00B268106DB168106DB068106DAF00006D04
:1043DB00AE00006DAD00006DAC00006DAB00006D6C
:1043EB00AA00006DA900006DA800006DA700006D6C
:1043FB00A600006DA500006DA400006DA300006D6C
:10440B00A200006DA100006DA000006D9F00006D6B
:10441B009E01B86D9D00006D9C00006D9B01006DB1
:10442B009A00016D99576A6D98576B6D97576E6D22
:10443B009643866D9557786D9442EC6D93012C6D78
:10444B009200006D9100006D9000006D8F035C6D0C
:10445B008E00006D8D00006D8C00326D8B00006D39
:10446B008A00B06D89FFF16D8803A86D8700006D20
:10447B008600006D8500006D8400006D8300006D6B
:10448B008200006D8100006D8000006D7F00006D6B
:10449B007E00006D7D00006D7C00006D7B00006D6B
:1044AB007A00006D7900006D7800006D7700006D6B
:1044BB007600006D7500006D7400006D7300006D6B
:1044CB007200006D7100006D7000006D6F00006D6B
:1044DB006E00006D6D00006D6C00006D6B00006D6B
:1044EB006A00006D6900006D6800006D6700006D6B
:1044FB006600006D6500006D6400006D6300006D6B
:10450B006200006D6100006D6000006D5F00006D6A
:10451B005E00006D5D00006D5C00006D5B00006D6A
:10452B005A00006D5900006D5800006D5700006D6A
:10453B005600006D5577776D5488886D5388886D5C
:10454B005299886D5199996D5099996D4F99996DB3
:10455B004E99996D4D88996D4C88886D4B88886DF7
:10456B004A77776D4900116D4800116D4700016D59
:10457B004608016D4500016D4400036D4300036D5A
:10458B0042FF486D4100036D40FEEE6D3F44D06D20
:10459B003E59106D3D44E26D3C59466D3B44EE6D0A
:1045AB003A596A6D3945006D3859A06D37450C6D18
:1045BB003659C46D3545186D3459E86D3344166D55
:1045CB0032442E6D31443A6D30444C6D2F44586D4E
:1045DB002E446A6D2D44D66D2C59226D2B45066DDC
:1045EB002A59B26D29441C6D2844526D2744E86D3D
:1045FB002659586D2545126D2459D66D2344346DBB
:10460B0022445E6D2144F46D20597C6D1F451E6D57
:10461B001E59FA6D1D44406D1C44706D1B59026D83
:10462B001A59036D1959066D1859386D1759396D8B
:10463B0016593C6D15595C6D14595D6D1359606DB0
:10464B001259926D1159936D1059966D0F59B66D94
:10465B000E59B76D0D59BA6D0C59DA6D0B59DB6DDF
:10466B000A59DE6D0959146D0859156D0759186DE6
:10467B0006594A6D05594B6D04594E6D03596E6DB4
:10468B0002596F6D0159726D0059A46CFF59A56CDD
:10469B00FE59A86CFD59C86CFC59C96CFB59CC6C04
:1046AB00FA59EC6CF959ED6CF859F06CF768106C21
:1046BB00F668106CF568106CF468106CF368106C8D
:1046CB00F268106CF168106CF068106CEF68106C8D
:1046DB00EE68106CED68106CEC68106CEB68106C8D
:1046EB00EA68106CE968106CE868106CE768106C8D
:1046FB00E668106CE568106CE468106CE368106C8D
:10470B00E268106CE168106CE068106CDF00006C04
:10471B00DE00006CDD00006CDC00006CDB00006C6C
:10472B00DA00006CD900006CD800006CD700006C6C
:10473B00D602266CD502266CD402266CD3264A6C84
:10474B00D24C706CD14E726CD000006CCF00006CF0
:10475B00CE05286CCD05286CCC05286CCB01006CE4
:10476B00CA00016CC958DE6CC858DF6CC758E26CC4
:10477B00C644C46CC558EC6CC444046CC3012C6CAB
:10478B00C200006CC100006CC000006CBF00006C6C
:10479B00BE00006CBD00006CBC00506CBB00006C1C
:1047AB00BAFBE06CB9FFD36CB804396CB700006C82
:1047BB00B600006CB500006CB400006CB300006C6C
:1047CB00B200006CB100006CB000006CAF00006C6C
:1047DB00AE00006CAD00006CAC00006CAB00006C6C
:1047EB00AA00006CA900006CA800006CA700006C6C
:1047FB00A600006CA500006CA400006CA300006C6C
:10480B00A200006CA100006CA000006C9F00006C6B
:10481B009E00006C9D00006C9C00006C9B00006C6B
:10482B009A00006C9900006C9800006C9700006C6B
:10483B009600006C9500006C9400006C9300006C6B
:10484B009200006C9100006C9000006C8F00006C6B
:10485B008E00006C8D00006C8C00006C8B00006C6B
:10486B008A00006C8900006C8800006C8700006C6B
:10487B008600006C8577776C8488886C8388886C5D
:10488B008299886C8199996C8099996C7F99996CB4
:10489B007E99996C7D88996C7C88886C7B88886CF8
:1048AB007A77776C7900116C7800116C7700016C5A
:1048BB007608016C7500016C7400036C7300036C5B
:1048CB0072FF486C7100036C70FEEE6C6F46366CB9
:1048DB006E5AF46C6D46486C6C5B2A6C6B46546C70
:1048EB006A5B4E6C6946666C685B846C6746726C7F
:1048FB00665BA86C65467E6C645BCC6C63457C6CBC
:10490B006245946C6145A06C6045B26C5F45BE6CB2
:10491B005E45D06C5D463C6C5C5B066C5B466C6CC0
:10492B005A5B966C5945826C5845B86C57464E6C21
:10493B00565B3C6C5546786C545BBA6C53459A6C21
:10494B005245C46C51465A6C505B606C4F46846C3C
:10495B004E5BDE6C4D45A66C4C45D66C4B5AE66CEB
:10496B004A5AE76C495AEA6C485B1C6C475B1D6CF6
:10497B00465B206C455B406C445B416C435B446C19
:10498B00425B766C415B776C405B7A6C3F5B9A6CFD
:10499B003E5B9B6C3D5B9E6C3C5BBE6C3B5BBF6C48
:1049AB003A5BC26C395AF86C385AF96C375AFC6C52
:1049BB00365B2E6C355B2F6C345B326C335B526C1D
:1049CB00325B536C315B566C305B886C2F5B896C44
:1049DB002E5B8C6C2D5BAC6C2C5BAD6C2B5BB06C69
:1049EB002A5BD06C295BD16C285BD46C2768106C6C
:1049FB002668106C2568106C2468106C2368106C8A
:104A0B002268106C2168106C2068106C1F68106C89
:104A1B001E68106C1D68106C1C68106C1B68106C89
:104A2B001A68106C1968106C1868106C1768106C89
:104A3B001668106C1568106C1468106C1368106C89
:104A4B001268106C1168106C1068106C0F00006C01
:104A5B000E00006C0D00006C0C00006C0B00006C69
:104A6B000A00006C0900006C0800006C0700006C69
:104A7B000630306C0530306C0430306C0340026C07
:104A8B000272346C0173356C0000006BFF00006B1D
:104A9B00FE00006BFD00006BFC00006BFB01006B6C
:104AAB00FA00016BF95AC26BF85AC36BF75AC66B13
:104ABB00F6462A6BF55AD06BF4456A6BF3012C6BF7
:104ACB00F200006BF100006BF000006BEF00006B6D
:104ADB00EE00006BED00006BEC00006BEB00006B6D
:104AEB00EA00006BE900006BE804006BE700006B69
:104AFB00E600006BE500006BE400006BE300006B6D
:104B0B00E200006BE100006BE000006BDF00006B6C
:104B1B00DE00006BDD00006BDC00006BDB00006B6C
:104B2B00DA00006BD900006BD800006BD700006B6C
:104B3B00D600006BD500006BD400006BD300006B6C
:104B4B00D200006BD100006BD000006BCF00006B6C
:104B5B00CE00006BCD00006BCC00006BCB00006B6C
:104B6B00CA00006BC900006BC800006BC700006B6C
:104B7B00C600006BC500006BC400006BC300006B6C
:104B8B00C200006BC100006BC000006BBF00006B6C
:104B9B00BE00006BBD00006BBC00006BBB00006B6C
:104BAB00BA00006BB900006BB800006BB700006B6C
:104BBB00B600006BB577776BB488886BB388886B5E
:104BCB00B299886BB199996BB099996BAF99996BB5
:104BDB00AE99996BAD88996BAC88886BAB88886BF9
:104BEB00AA77776BA900116BA800116BA700016B5B
:104BFB00A608016BA500016BA400036BA300036B5C
:104C0B00A2FF486BA100036BA0FEEE6B9F47766B78
:104C1B009E5CD86B9D47826B9C5CFC6B9B47886B47
:104C2B009A5D0E6B9947946B985D326B97479A6BB5
:104C3B00965D446B9547A06B945D566B9346E26B08
:104C4B009246F46B9146FA6B9047066B8F470C6B51
:104C5B008E47186B8D68106B8C68106B8B68106BA4
:104C6B008A68106B8968106B8868106B8768106B8B
:104C7B008668106B8568106B8468106B8368106B8B
:104C8B008268106B8168106B8068106B7F68106B8B
:104C9B007E68106B7D68106B7C68106B7B5CCA6BDD
:104CAB007A5CCB6B795CCE6B785CEE6B775CEF6B85
:104CBB00765CF26B755D006B745D016B735D046B01
:104CCB00725D246B715D256B705D286B6F5D366B50
:104CDB006E5D376B6D5D3A6B6C5D486B6B5D496BF5
:104CEB006A5D4C6B6968106B6868106B6768106B5A
:104CFB006668106B6568106B6468106B6368106B8B
:104D0B006268106B6168106B6068106B5F68106B8A
:104D1B005E68106B5D68106B5C68106B5B68106B8A
:104D2B005A68106B5968106B5868106B5768106B8A
:104D3B005668106B5568106B5468106B5368106B8A
:104D4B005268106B5168106B5068106B4F68106B8A
:104D5B004E68106B4D68106B4C68106B4B68106B8A
:104D6B004A68106B4968106B4868106B4768106B8A
:104D7B004668106B4568106B4468106B4368106B8A
:104D8B004268106B4168106B4068106B3F00006B02
:104D9B003E00006B3D00006B3C00006B3B00006B6A
:104DAB003A00006B3900006B3800006B3700006B6A
:104DBB003600006B3500006B3400006B3300006B6A
:104DCB003200006B3100006B3000006B2F00006B6A
:104DDB002E00006B2D00006B2C00006B2B01006B69
:104DEB002A00016B295CA66B285CA76B275CAA6B5E
:104DFB0026476A6B255CB46B2446D06B23012C6B66
:104E0B002200006B2100006B2000006B1F00006B69
:104E1B001E00006B1D00006B1C00006B1B00006B69
:104E2B001A00006B1900006B1804006B1700006B65
:104E3B001600006B1500006B1400006B1300006B69
:104E4B001200006B1100006B1000006B0F00006B69
:104E5B000E00006B0D00006B0C00006B0B00006B69
:104E6B000A00006B0900006B0800006B0700006B69
:104E7B000600006B0500006B0400006B0300006B69
:104E8B000200006B0100006B0000006AFF00006A6B
:104E9B00FE00006AFD00006AFC00006AFB00006A6D
:104EAB00FA00006AF900006AF800006AF700006A6D
:104EBB00F600006AF500006AF400006AF300006A6D
:104ECB00F200006AF100006AF000006AEF00006A6D
:104EDB00EE00006AED00006AEC00006AEB00006A6D
:104EEB00EA00006AE900006AE800006AE700006A6D
:104EFB00E600006AE577776AE488886AE388886A5F
:104F0B00E299886AE199996AE099996ADF99996AB5
:104F1B00DE99996ADD88996ADC88886ADB88886AF9
:104F2B00DA77776AD900116AD800116AD700016A5B
:104F3B00D608036AD500016AD400036AD300036A5A
:104F4B00D2FF486AD100036AD0FEEE6ACF488E6A60
:104F5B00CE5E4C6ACD489A6ACC5E706ACB48A06A2A
:104F6B00CA5E826AC948AC6AC85EA66AC748B26A9A
:104F7B00C65EB86AC548B86AC45ECA6AC347FA6AED
:104F8B00C2480C6AC148126AC0481E6ABF48246AEC
:104F9B00BE48306ABD68106ABC68106ABB68106A8C
:104FAB00BA68106AB968106AB868106AB768106A8C
:104FBB00B668106AB568106AB468106AB368106A8C
:104FCB00B268106AB168106AB068106AAF68106A8C
:104FDB00AE68106AAD68106AAC68106AAB5E3E6A68
:104FEB00AA5E3F6AA95E426AA85E626AA75E636AAE
:104FFB00A65E666AA55E746AA45E756AA35E786A2D
:10500B00A25E986AA15E996AA05E9C6A9F5EAA6A7C
:10501B009E5EAB6A9D5EAE6A9C5EBC6A9B5EBD6A21
:10502B009A5EC06A9968106A9868106A9768106AE5
:10503B009668106A9568106A9468106A9368106A8B
:10504B009268106A9168106A9068106A8F68106A8B
:10505B008E68106A8D68106A8C68106A8B68106A8B
:10506B008A68106A8968106A8868106A8768106A8B
:10507B008668106A8568106A8468106A8368106A8B
:10508B008268106A8168106A8068106A7F68106A8B
:10509B007E68106A7D68106A7C68106A7B68106A8B
:1050AB007A68106A7968106A7868106A7768106A8B
:1050BB007668106A7568106A7468106A7368106A8B
:1050CB007268106A7168106A7068106A6F00006A03
:1050DB006E00006A6D00006A6C00006A6B00006A6B
:1050EB006A00006A6900006A6800006A6700006A6B
:1050FB006600006A6500006A6400006A6300006A6B
:10510B006200006A6100006A6000006A5F00006A6A
:10511B005E00006A5D00006A5C00006A5B01006A69
:10512B005A00016A595E1A6A585E1B6A575E1E6AFC
:10513B005648826A555E286A5447E86A53012C6ABE
:10514B005200006A5100006A5000006A4F00006A6A
:10515B004E00006A4D00006A4C00006A4B00006A6A
:10516B004A00006A4900006A4804006A4700006A66
:10517B004600006A4500006A4400006A4300006A6A
:10518B004200006A4100006A4000006A3F00006A6A
:10519B003E00006A3D00006A3C00006A3B00006A6A
:1051AB003A00006A3900006A3800006A3700006A6A
:1051BB003600006A3500006A3400006A3300006A6A
:1051CB003200006A3100006A3000006A2F00006A6A
:1051DB002E00006A2D00006A2C00006A2B00006A6A
:1051EB002A00006A2900006A2800006A2700006A6A
:1051FB002600006A2500006A2400006A2300006A6A
:10520B002200006A2100006A2000006A1F00006A69
:10521B001E00006A1D00006A1C00006A1B00006A69
:10522B001A00006A1900006A1800006A1700006A69
:10523B001600006A1577776A1488886A1388886A5B
:10524B001299886A1199996A1099996A0F99996AB2
:10525B000E99996A0D88996A0C88886A0B88886AF6
:10526B000A77776A0900116A0800116A0700016A58
:10527B000608036A0500016A0400036A0300036A57
:10528B0002FF486A0100036A00FEEE69FF49A66946
:10529B00FE5FC069FD49B269FC5FE469FB49B8690F
:1052AB00FA5FF669F949C469F8601A69F749CA697E
:1052BB00F6602C69F549D069F4603E69F3491269CF
:1052CB00F2492469F1492A69F0493669EF493C6989
:1052DB00EE494869ED681069EC681069EB68106974
:1052EB00EA681069E9681069E8681069E76810698D
:1052FB00E6681069E5681069E4681069E36810698D
:10530B00E2681069E1681069E0681069DF6810698C
:10531B00DE681069DD681069DC681069DB5FB269F3
:10532B00DA5FB369D95FB669D85FD669D75FD769DA
:10533B00D65FDA69D55FE869D45FE969D35FEC6959
:10534B00D2600C69D1600D69D0601069CF601E69A5
:10535B00CE601F69CD602269CC603069CB6031694A
:10536B00CA603469C9681069C8681069C768106970
:10537B00C6681069C5681069C4681069C36810698C
:10538B00C2681069C1681069C0681069BF6810698C
:10539B00BE681069BD681069BC681069BB6810698C
:1053AB00BA681069B9681069B8681069B76810698C
:1053BB00B6681069B5681069B4681069B36810698C
:1053CB00B2681069B1681069B0681069AF6810698C
:1053DB00AE681069AD681069AC681069AB6810698C
:1053EB00AA681069A9681069A8681069A76810698C
:1053FB00A6681069A5681069A4681069A36810698C
:10540B00A2681069A1681069A06810699F00006903
:10541B009E0000699D0000699C0000699B0000696B
:10542B009A0000699900006998000069970000696B
:10543B00960000699500006994000069930000696B
:10544B009200006991000069900000698F0000696B
:10545B008E0000698D0000698C0000698B0100696A
:10546B008A000169895F8E69885F8F69875F92699E
:10547B0086499A69855F9C698449006983012C6917
:10548B008200006981000069800000697F0000696B
:10549B007E0000697D0000697C0028697B00006943
:1054AB007AFEB06979000069780440697700006979
:1054BB00760000697500006974000069730000696B
:1054CB007200006971000069700000696F0000696B
:1054DB006E0000696D0000696C0000696B0000696B
:1054EB006A0000696900006968000069670000696B
:1054FB00660000696500006964000069630000696B
:10550B006200006961000069600000695F0000696A
:10551B005E0000695D0000695C0000695B0000696A
:10552B005A0000695900006958000069570000696A
:10553B00560000695500006954000069530000696A
:10554B005200006951000069500000694F0000696A
:10555B004E0000694D0000694C0000694B0000696A
:10556B004A0000694900006948000069470000696A
:10557B00460000694577776944888869438888695C
:10558B004299886941999969409999693F999969B3
:10559B003E9999693D8899693C8888693B888869F7
:1055AB003A77776939001169380011693700016959
:1055BB00360801693500016934000369330003695A
:1055CB0032FF48693100036930FEEE692F49A66945
:1055DB002E5FC0692D49B2692C5FE4692B49B8690C
:1055EB002A5FF6692949C46928601A692749CA697B
:1055FB0026602C692549D06924603E6923491269CC
:10560B002249246921492A69204936691F493C6985
:10561B001E4948691D6810691C6810691B68106970
:10562B001A68106919681069186810691768106989
:10563B001668106915681069146810691368106989
:10564B001268106911681069106810690F68106989
:10565B000E6810690D6810690C6810690B5FB269F0
:10566B000A5FB369095FB669085FD669075FD769D7
:10567B00065FDA69055FE869045FE969035FEC6956
:10568B0002600C6901600D6900601068FF601E68A4
:10569B00FE601F68FD602268FC603068FB6031684B
:1056AB00FA603468F9681068F8681068F768106871
:1056BB00F6681068F5681068F4681068F36810688D
:1056CB00F2681068F1681068F0681068EF6810688D
:1056DB00EE681068ED681068EC681068EB6810688D
:1056EB00EA681068E9681068E8681068E76810688D
:1056FB00E6681068E5681068E4681068E36810688D
:10570B00E2681068E1681068E0681068DF6810688C
:10571B00DE681068DD681068DC681068DB6810688C
:10572B00DA681068D9681068D8681068D76810688C
:10573B00D6681068D5681068D4681068D36810688C
:10574B00D2681068D1681068D0681068CF00006804
:10575B00CE000068CD000068CC000068CB0000686C
:10576B00CA000068C9000068C8000068C70000686C
:10577B00C6000068C5000068C4000068C30000686C
:10578B00C2000068C1000068C0000068BF0000686C
:10579B00BE000068BD000068BC000068BB0100686B
:1057AB00BA000168B95F8E68B85F8F68B75F92689F
:1057BB00B6499A68B55F9C68B4490068B3012C6818
:1057CB00B2000068B1000068B00000680100056815
:1057DB00000000C4230000C0310001C0200007C03E
:1057EB00210000C020015700000001C72019000054
:1057FB00000001C0300001C0270003C0250001C01C
:10580B001C0400C0000001C0010002C002000FC058
:10581B000301ECC0230001C0240FF2C0260001C01D
:10582B004F000CC0500011C0510000C055FFFFC00D
:10583B0056FFFFC057FFFFC058FFFFC05D0044C0BD
:10584B005E0044C0384000C0394000C03A0040C040
:10585B003B0040C0400040C0410040C0426040C0DF
:10586B00436040C0880000C0890000C08A00FFC0B0
:10587B008B0000C08F0000C0A44444C0A54444C0AA
:10588B00A60044C0E00002C0446303C0460043C00E
:10589B002D0000C02C0001C01B114000000001C0F6
:1058AB008C0010C08D0003C0A90002C0900038C04E
:1058BB00910040C0920038C0930040C0940038C0A3
:1058CB00950040C0960038C0970040C0980040C07B
:1058DB0099004FC4C40000C4000082C4AA0001C4D4
:1058EB00010004C4020003C4030004C4040003C485
:1058FB00050002C4060003C4070009C4080003C462
:10590B001E0080C4D400C2C4C40002C4F00000C492
:10591B00DF00B0C4E2000700000001C4DF0000C4D8
:10592B00E20006C4E20002C4D3001FC4310082C4EB
:10593B00D40042C4D400C2C4DA0001C437001EC470
:10594B0036002D00000001C400000200000001C45D
:10595B0031008000000001C49C0040C49E0001C4C3
:10596B00C10000C4C40000C4C700390000000154CA
:10597B002000025421105354221054542302025479
:10598B00240212542510B154260000542700005451
:10599B0028000054290000542A0000542B00005406
:1059AB002C0000542DFFFF542E0000542F000054E8
:1059BB0030000054310000543210B2543302025400
:1059CB0034004D5435000054360200543710B35494
:1059DB0038000054390000543A0000543B00005486
:1059EB003C0000543D0000543E0000543FFFFF5468
:1059FB004000005441000054420000544300005446
:105A0B004410B4544502025446003354470000542A
:105A1B00480A06544910B5544A0000544B00005430
:105A2B004C0000544D0000544E0000544F000054E5
:105A3B005000005451FFFF545200005453000054C7
:105A4B0054000054550000545610B65457020254DB
:105A5B005802F05459004B545A0206545B10B75479
:105A6B005C0000545D0000545E0000545F00005465
:105A7B0060000054610000546200005463FFFF5447
:105A8B006400005465000054660000546700005425
:105A9B006810B854690202546A000A546B0000542F
:105AAB006C0210546D106F546E0000546F00005454
:105ABB007000005471000054727F00547300005446
:105ACB007400005475FFFF547600005477000054A7
